S00B00004144432E7372656351
S11300000C9438000C9455000C9455000C94550035
S11300100C9455000C9455000C9455000C94550008
S11300200C9455000C9455000C9455000C945500F8
S11300300C9455000C9455000C9455000C945500E8
S11300400C9455000C9455000C9455000C945500D8
S11300500C9455000C9455000C9455000C945500C8
S11300600C9455000C9455000C9455000C945500B8
S113007011241FBECFEFD4E0DEBFCDBF12E0A0E05D
S1130080B1E0ECE6FFE002C005900D92A234B107A6
S1130090D9F722E0A2E4B2E001C01D92AC34B20769
S11300A0E1F70E9441010C94B4070C940000CF9333
S11300B0DF93CDB7DEB728970FB6F894DEBF0FBE37
S11300C0CDBF94E0998395E09A8396E09B8397E073
S11300D09C83FE01E80FF11D8181809300141D8231
S11300E01E821F8218868D819E81AF81B885883ECD
S11300F09340A105B105A0F48D819E81AF81B8859F
S11301000196A11DB11D8D839E83AF83B8878D8118
S11301109E81AF81B885883E9340A105B10560F307
S11301208091001490E028960FB6F894DEBF0FBEBD
S1130130CDBFDF91CF910895BC01990F880B990B26
S11301400E944E0220E030E040E05CE30E94DA02CC
S113015020E030E048EC52E40E94DA0220E030E093
S113016048EC52E40E94A9010E941602CB010895B2
S1130170CF92DF92EF92FF920F931F93CF93DF936F
S1130180EC0180E00E9457000E949C006C0181E019
S11301900E9457000E949C007C0182E00E9457004C
S11301A00E949C008C0183E00E9457000E949C00E6
S11301B0D982C882FB82EA821D830C839F838E834B
S11301C085E48887CE01DF91CF911F910F91FF9035
S11301D0EF90DF90CF900895863F2FEF920754F46D
S11301E0861797073CF422273327281B390B6217FD
S11301F073078CF18B30910554F0681779073CF440
S113020022273327281B390B2617370734F1663F7B
S11302102FEF720754F422273327261B370B82173C
S113022093071CF468177907D4F06B30710554F008
S1130230861797073CF422273327261B370B2817EA
S113024039077CF00996439728F4675F7F4F633141
S1130250710548F0089581E0089582E0089584E0EE
S1130260089583E0089585E0089580E885BF80E2DD
S113027080BF0895B89AC09A089581B3877E81BBE0
S11302800895CF93DF93CDB7DEB729970FB6F894CF
S1130290DEBF0FBECDBF0E943A010E943D010E9405
S11302A035010E949B010F2EFBEEEF2EF1E0FF2E95
S11302B0F02D10B300B3CE0101960E94B800D9808E
S11302C0CA80BB80AC806B2D7A2D8D2D9C2D0E9415
S11302D0EC00202F30E024703F932F93212F30E047
S11302E028703F932F931F928F9388858F938F81CC
S11302F08F938E818F938D818F93AF92BF92CF9284
S1130300DF92FF92EF920E9492030FB6F894DEBF41
S11303100FBECDBFCECF8CB108958BB185FB88279E
S113032080F90895CF93C82F0E948D018823E1F3AB
S1130330CCB9CF91089510BC8FE189B988E18AB90D
S11303408EE880BD6BE871E082E991E00E9447038A
S113035008955058BB27AA270E94C1010C94A002FB
S11303600E94920238F00E94990220F039F49F3FD3
S113037019F426F40C948F020EF4E095E7FB0C9428
S11303808902E92F0E94B10258F3BA176207730772
S11303908407950720F079F4A6F50C94D3020EF4A3
S11303A0E0950B2EBA2FA02D0B01B90190010C0181
S11303B0CA01A0011124FF27591B99F0593F50F499
S11303C0503E68F11A16F040A22F232F342F4427F1
S11303D0585FF3CF469537952795A795F0405395E9
S11303E0C9F77EF41F16BA0B620B730B840BBAF0B9
S11303F09150A1F0FF0FBB1F661F771F881FC2F724
S11304000EC0BA0F621F731F841F48F48795779537
S11304106795B795F7959E3F08F0B0CF9395880FF1
S113042008F09927EE0F9795879508950E941D026D
S11304306894B1110C94D40208950E94B90288F012
S11304409F5798F0B92F9927B751B0F0E1F0660F94
S1130450771F881F991F1AF0BA95C9F714C0B130D5
S113046091F00E94D302B1E008950C94D302672F57
S1130470782F8827B85F39F0B93FCCF38695779504
S11304806795B395D9F73EF49095809570956195ED
S11304907F4F8F4F9F4F0895E89409C097FB3EF418
S11304A090958095709561957F4F8F4F9F4F9923BD
S11304B0A9F0F92F96E9BB279395F695879577953B
S11304C06795B795F111F8CFFAF4BB0F11F460FFFB
S11304D01BC06F5F7F4F8F4F9F4F16C0882311F053
S11304E096E911C0772321F09EE8872F762F05C067
S11304F0662371F096E8862F70E060E02AF09A9502
S1130500660F771F881FDAF7880F9695879597F9F6
S1130510089597F99F6780E870E060E008959FEF81
S113052080EC089500240A94161617061806090686
S1130530089500240A941216130614060506089555
S1130540092E0394000C11F4882352F0BB0F40F4DD
S1130550BF2B11F460FF04C06F5F7F4F8F4F9F4F1D
S1130560089557FD9058440F551F59F05F3F71F09F
S11305704795880F97FB991F61F09F3F79F0879506
S11305800895121613061406551FF2CF4695F1DF8F
S113059008C0161617061806991FF1CF869571051F
S11305A0610508940895E894BB2766277727CB0153
S11305B097F908950E94ED020C94A0020E94920201
S11305C038F00E94990220F0952311F00C948902CE
S11305D00C948F0211240C94D4020E94B10270F383
S11305E0959FC1F3950F50E0551F629FF001729FD4
S11305F0BB27F00DB11D639FAA27F00DB11DAA1FE3
S1130600649F6627B00DA11D661F829F2227B00D2F
S1130610A11D621F739FB00DA11D621F839FA00DBA
S1130620611D221F749F3327A00D611D231F849F0A
S1130630600D211D822F762F6A2F11249F57504061
S11306409AF0F1F088234AF0EE0FFF1FBB1F661FDC
S1130650771F881F91505040A9F79E3F510580F0A5
S11306600C9489020C94D4025F3FE4F3983ED4F3D3
S1130670869577956795B795F795E7959F5FC1F749
S1130680FE2B880F911D9695879597F908950F93E2
S11306901F93CF93DF93009731F46115710519F41B
S11306A080E090E03AC08B01EC016EE070E081E004
S11306B090E00E948905FC01892B91F380E88383F3
S11306C00115110571F01387028781E883838091F6
S11306D0420290914302892B21F4F0934302E09368
S11306E042022097C9F0D187C087838182608383C7
S11306F08091440290914502892B71F4F093450254
S1130700E09344028091460290914702892B21F4A0
S1130710F0934702E0934602CF01DF91CF911F91FE
S11307200F910895A0E0B0E0E8E9F3E00C948D07A0
S1130730AE014B5F5F4FFA0161917191AF018091FE
S11307404402909145020E94A803E2E00C94A90798
S1130750ABE0B0E0EEEAF3E00C947D076C017B01C2
S11307608A01FC0117821682838181FFCCC1CE01EC
S113077001963C01F6019381F70193FD859193FF66
S113078081917F01882309F4BAC1853239F493FD3C
S1130790859193FF81917F01853229F4B60190E020
S11307A00E94E306E7CF912C212C312CFFE1F315B5
S11307B0D8F08B3279F038F4803279F08332A1F4B6
S11307C0232D20611DC08D3261F0803369F4232D07
S11307D0216016C0832D8260382EE32DE4603E2E06
S11307E02AC0F32DF8601DC037FC2DC020ED280F62
S11307F02A3040F08E32B9F436FC81C1232D2064B6
S1130800322E19C036FE06C08AE0989E200D1124AF
S1130810922E11C0EAE02E9E200D1124222EF32DDB
S1130820F0623F2E08C08C3621F4832D8068382E68
S113083002C0883641F4F70193FD859193FF8191BD
S11308407F018111B3CF982F9F7D9554933028F465
S11308500C5F1F4F9FE399830DC0833631F08337BC
S113086071F0833509F059C021C0F8018081898372
S11308700E5F1F4F88248394912C530113C02801C9
S1130880F2E04F0E511CF801A080B18036FE03C087
S1130890692D70E002C06FEF7FEFC5010E94D8069A
S11308A04C018201F32DFF773F2E16C0280122E070
S11308B0420E511CF801A080B18036FE03C0692DA0
S11308C070E002C06FEF7FEFC5010E94C6064C01C5
S11308D0F32DF0683F2E820133FC1BC0822D90E083
S11308E088169906B0F4B60180E290E00E94E3060F
S11308F02A94F4CFF50137FC859137FE81915F018D
S1130900B60190E00E94E30621102A9421E0821AA5
S113091091088114910471F7E8C0843611F0893686
S113092041F5F80137FE07C06081718182819381AE
S11309300C5F1F4F08C060817181072E000C880B6B
S1130940990B0E5F1F4FF32DFF763F2E97FF09C0C3
S113095090958095709561957F4F8F4F9F4FF0686C
S11309603F2E2AE030E0A3010E941F07882E86183C
S113097045C0853731F4232D2F7EB22E2AE030E096
S113098025C0932D997FB92E8F36C1F018F4883580
S113099079F0B5C0803719F0883721F0B0C0E92F5D
S11309A0E061BE2EB4FE0DC0FB2DF460BF2E09C065
S11309B034FE0AC0292F2660B22E06C028E030E09B
S11309C005C020E130E002C020E132E0F801B7FECA
S11309D007C060817181828193810C5F1F4F06C0C3
S11309E06081718180E090E00E5F1F4FA3010E943F
S11309F01F07882E8618FB2DFF773F2E36FE0DC06D
S1130A00232D2E7FA22E891458F434FE0BC032FC01
S1130A1009C0832D8E7EA82E05C0B82CA32C03C03C
S1130A20B82C01C0B92CA4FE0FC0FE01E80DF11DC5
S1130A308081803321F49A2D997EA92E09C0A2FECB
S1130A4006C0B394B39404C08A2D867809F0B39495
S1130A50A3FC11C0A0FE06C0B21488F4280C922C8A
S1130A609B180EC0B21460F4B60180E290E00E94BC
S1130A70E306B394F7CFB21418F42B1802C0982CE1
S1130A80212CA4FE10C0B60180E390E00E94E3068E
S1130A90A2FE17C0A1FC03C088E790E002C088E56D
S1130AA090E0B6010CC08A2D867859F0A1FE02C0F0
S1130AB08BE201C080E2A7FC8DE2B60190E00E94C7
S1130AC0E306891438F4B60180E390E00E94E3065B
S1130AD09A94F7CF8A94F301E80DF11D8081B60151
S1130AE090E00E94E3068110F5CF222009F442CE63
S1130AF0B60180E290E00E94E3062A94F6CFF60164
S1130B008681978102C08FEF9FEF2B96E2E10C94D0
S1130B1099070F931F93CF93DF93869F8001879F3D
S1130B20100D969F100D1124C8010E94A505EC011B
S1130B30009729F0A80160E070E00E94D106CE0180
S1130B40DF91CF911F910F9108950F931F93CF932E
S1130B50DF938230910510F482E090E0E0914A0244
S1130B60F0914B0220E030E0A0E0B0E0309719F1C2
S1130B70408151810281138148175907C8F08417B5
S1130B80950769F4109731F012960C931297139607
S1130B901C9327C000934A0210934B0222C02115D4
S1130BA0310519F04217530718F49A01BD01EF01FA
S1130BB0DF01F801DBCF21153105F9F0281B390BD2
S1130BC02430310580F48A819B816115710521F0FF
S1130BD0FB019383828304C090934B0280934A0267
S1130BE0FE01329644C0FE01E20FF31F81939193FC
S1130BF022503109398328833AC020914802309128
S1130C004902232B41F420910201309103013093D6
S1130C1049022093480220910001309101012115DD
S1130C20310541F42DB73EB74091040150910501BF
S1130C30241B350BE0914802F0914902E217F307B7
S1130C40A0F42E1B3F0B2817390778F0AC014E5F38
S1130C505F4F2417350748F04E0F5F1F509349022A
S1130C60409348028193919302C0E0E0F0E0CF0109
S1130C70DF91CF911F910F910895CF93DF93009748
S1130C8009F481C0FC01329713821282A0914A02B6
S1130C90B0914B02109781F420813181820F931F10
S1130CA020914802309149022817390751F5F093F1
S1130CB04902E093480267C0ED0120E030E0CE171E
S1130CC0DF0740F44A815B819E0141155105F1F033
S1130CD0EA01F5CFD383C28340815181840F951FEC
S1130CE0C817D90759F488819981840F951F0296F2
S1130CF0918380838A819B8193838283211531052B
S1130D0029F4F0934B02E0934A023DC0E901FB83CE
S1130D10EA8349915991C40FD51FEC17FD0761F47B
S1130D2080819181840F951F0296E90199838883BC
S1130D30828193819B838A83E0E0F0E012968D9117
S1130D409C911397009719F0FD01DC01F7CF8D9169
S1130D509C9111979D012E5F3F4F820F931F20910D
S1130D604802309149022817390769F4309729F469
S1130D7010924B0210924A0202C013821282B09364
S1130D804902A0934802DF91CF910895FC01059098
S1130D90615070400110D8F7809590958E0F9F1F79
S1130DA00895DC0101C06D9341505040E0F708956F
S1130DB0FC016150704001900110D8F78095909526
S1130DC08E0F9F1F08950F931F93CF93DF93FB0103
S1130DD0238121FD03C08FEF9FEF2CC022FF16C09B
S1130DE046815781248135814217530744F4A081F9
S1130DF0B1819D012F5F3F4F318320838C932681E6
S1130E0037812F5F3F4F3783268314C08B01EC015A
S1130E10FB010084F185E02D0995892BE1F6D801C9
S1130E2016968D919C911797019617969C938E9385
S1130E301697CE01DF91CF911F910F910895FA017A
S1130E40AA27283051F1203181F1E8946F936E7F05
S1130E506E5F7F4F8F4F9F4FAF4FB1E03ED0B4E0F6
S1130E603CD0670F781F891F9A1FA11D680F791F37
S1130E708A1F911DA11D6A0F711D811D911DA11D48
S1130E8020D009F468943F912AE0269F1124301958
S1130E90305D3193DEF6CF010895462F4770405DF3
S1130EA04193B3E00FD0C9F7F6CF462F4F70405DA2
S1130EB04A3318F0495D31FD4052419302D0A9F7FD
S1130EC0EACFB4E0A6959795879577956795BA95F7
S1130ED0C9F700976105710508959B01AC010A2EBD
S1130EE006945795479537952795BA95C9F7620F94
S1130EF0731F841F951FA01D08952F923F924F9238
S1130F005F926F927F928F929F92AF92BF92CF9295
S1130F10DF92EF92FF920F931F93CF93DF93CDB79E
S1130F20DEB7CA1BDB0B0FB6F894DEBF0FBECDBF16
S1130F3009942A88398848885F846E847D848C84E7
S1130F409B84AA84B984C884DF80EE80FD800C81F0
S1130F501B81AA81B981CE0FD11D0FB6F894DEBFD3
S10F0F600FBECDBFED010895F894FFCF43
S1130F6C00004C0220005374617274696E67205344
S1130F7C52414D20746573742E2E2E005772697471
S1130F8C65207068617365206572726F723A2065B2
S1130F9C78745F72616D5B2534645D203D2025306F
S1130FAC3258202873686F756C6420626520253074
S1130FBC3258290A0052657472696576616C207026
S1130FCC68617365206572726F723A206578745F1C
S1130FDC72616D5B2534645D203D202530325820D0
S1130FEC2873686F756C642062652025303258292B
S1130FFC0A005352414D207465737420636F6D70F5
S113100C6C657465642077697468200A25346420DF
S113101C6572726F727320696E20777269746520C1
S113102C706861736520616E64200A2534642065E0
S113103C72726F727320696E207265747269657650
S113104C616C2070686173650A0A004A583A20255D
S113105C6425252C202020204A593A202564252556
S113106C2C20202020534C3A20256425252C20208C
S113107C202053523A2025642525202020202C445E
S113108C69723A20256420202020627574313A203C
S113109C25642C20202020627574323A2025640AA1
S10510AC00003E
S9030000FC
