:100000000C9438000C9442000C9442000C94420072
:100010000C9442000C9442000C9442000C94420058
:100020000C9442000C9442000C9442000C94420048
:100030000C9442000C9442000C9442000C94420038
:100040000C9442000C9442000C9442000C94420028
:100050000C9442000C9442000C9442000C94420018
:100060000C9442000C9442000C9442000C94420008
:1000700011241FBECFEFD4E0DEBFCDBF0E944A00E7
:100080000C944F000C9400008FEF8ABB92E096B95D
:100090008BBBFFCFB89AC09A0E944400FFCFF89460
:0200A000FFCF90
:00000001FF
