:100000000C94B4010C94D1010C94D1010C94D10145
:100010000C94D1010C94D1010C94D1010C94D10118
:100020000C94D1010C94D1010C94D1010C94D10108
:100030000C94D1010C94D1010C94D1010C94D101F8
:100040000C94D1010C94D1010C94D1010C94D101E8
:100050000C94D1010C94D1010C94D1010C94D101D8
:100060000C94D1010C94D1010C94D1010C94D101C8
:10007000000000000000000000065F5F06000000B6
:100080000007070007070000147F7F147F7F14001C
:10009000242E6B6B3A120000466630180C66620024
:1000A000307A4F5D377A48000407030000000000F3
:1000B000001C3E63410000000041633E1C00000044
:1000C000082A3E1C1C3E2A0808083E3E080800007C
:1000D00000A0E06000000000080808080808000010
:1000E00000006060000000006030180C0603010092
:1000F0003E7F594D7F3E000042427F7F40400000DE
:10010000627359496F660000226349497F360000D7
:10011000181C16137F7F1000276745457D390000A6
:100120003C7E4B4979300000036371190F070000D2
:10013000367F49497F360000064F49693F1E00005F
:1001400000006C6C0000000000A0EC6C00000000DF
:10015000081C366341000000141414141414000029
:10016000004163361C080000020351590F060000CD
:100170003E7F415D5D1F1E007C7E13137E7C000070
:10018000417F7F49497F36001C3E63414163220025
:10019000417F7F41637F1C00417F7F495D41630058
:1001A000417F7F491D0103001C3E63415173720072
:1001B0007F7F08087F7F000000417F7F41000000B3
:1001C000307040417F3F0100417F7F081C77630012
:1001D000417F7F41406070007F7F060C067F7F007B
:1001E0007F7F060C187F7F001C3E6341633E1C002E
:1001F000417F7F49090F06001E3F21717F5E00008D
:10020000417F7F19396F460026674D597B320000C8
:1002100003417F7F410300007F7F40407F7F0000DC
:100220001F3F60603F1F00007F7F3018307F7F00DE
:1002300063771C081C776300074F78784F0700002E
:100240006773594D47637100007F7F414100000093
:100250000103060C183060000041417F7F00000060
:10026000080C0603060C0800808080808080808057
:100270000000030704000000207454543C78400040
:10028000413F7F44447C3800387C44446C28000063
:10029000307848493F7F4000387C54545C18000057
:1002A000487E7F490302000098BCA4A4F87C0400A7
:1002B000417F7F08047C780000447D7D4000000081
:1002C00040C484FD7D000000417F7F10386C4400F5
:1002D00000417F7F400000007C7C0C180C7C780083
:1002E0007C7C04047C780000387C44447C3800002A
:1002F00084FCF8A4243C1800183C24A4F8FC8400D6
:10030000447C78441C180000485C54547424000059
:1003100000043E7F442400003C7C40403C7C400084
:100320001C3C60603C1C00003C7C6030607C3C00FD
:10033000446C3810386C44009CBCA0A0FC7C0000CD
:100340004C64745C4C64000008083E774141000036
:1003500000000077770000004141773E0808000068
:10036000020301030203010011241FBECFEFD4E0FA
:10037000DEBFCDBF11E0A0E0B1E0EAEBFFE002C0DC
:1003800005900D92A23AB107D9F721E0A2EAB1E0B7
:1003900001C01D92AC3AB207E1F70E94EE010C9445
:1003A000DB070C940000B89AC09A87B387BB089506
:1003B000813021F486B3869581700895823029F4C6
:1003C00086B382FB882780F90895833029F486B3A9
:1003D00083FB882780F9089580E008950E94D30167
:1003E0000E9469030E945B030E9498020E943B02E4
:1003F000C6E0D1E083E00E94D801082F82E00E948D
:10040000D801182F81E00E94D8011F920F931F92EC
:100410001F931F928F93DF93CF930E94B9038DB7E1
:100420009EB708960FB6F8949EBF0FBE8DBFE2CF61
:100430000E94880280E090E00E945F0281E291E0E9
:100440000E94070382E090E00E945F028EE291E04A
:100450000E94070384E090E00E945F0283E391E042
:100460000E94070386E090E00E945F028DE391E026
:100470000E940703089583E491E00E94070360E06F
:1004800070E084E090E00E946B028CE491E00E94B6
:1004900029032FEF8FEF9CE2215080409040E1F73D
:1004A00000C000C00E9418020895982F9F70E0E0DD
:1004B000F0E1908382958F70805F808308958055EE
:1004C0008093001080E00E945502089580E090E043
:1004D0000E945F020895CF93C62F0E945F028C2F67
:1004E0000E945502CF910895CF93DF93EC0160E015
:1004F00070E00E946B0280E890E0E0E0F2E11082A0
:100500000197E9F7CE010E945F02DF91CF91089534
:10051000CF93DF93C0E0D0E0CE010E947402219619
:10052000C830D105C9F70E946602DF91CF910895C6
:10053000E0E0F0E18EEA808381EA80838AED8083C7
:1005400082E1808388EC808388EA80838FE38083E4
:1005500085ED808380E8808381E8808380E58083E7
:1005600089ED808381E2808380E2808382E08083E2
:100570008BED808380E380838DEA8083108284EA20
:10058000808386EA80838FEA80830E9488020895B0
:10059000805290E09C01220F331F220F331F220F45
:1005A000331F20593F4F880F991F880F991F880FBD
:1005B000991F88589F4FA0E0B2E1F90145915491ED
:1005C0004C932F5F3F4F28173907B9F70895805292
:1005D00090E09C01220F331F220F331F220F331F85
:1005E00020593F4F880F991F880F991F880F991F17
:1005F00088589F4FA0E0B2E1F90145915491409590
:100600004C932F5F3F4F28173907B1F70895EF92AA
:10061000FF920F931F93CF93DF938C017C01C0E077
:10062000D0E006C0F70181917F010E94C8022196A7
:10063000F80101900020E9F73197E01BF10BCE178C
:10064000DF0780F3DF91CF911F910F91FF90EF9023
:100650000895EF92FF920F931F93CF93DF938C0136
:100660007C01C0E0D0E006C0F70181917F010E94CB
:10067000E7022196F80101900020E9F73197E01B8D
:10068000F10BCE17DF0780F3DF91CF911F910F9110
:10069000FF90EF9008958CB108958BB185FB88276A
:1006A00080F90895CF93C82F0E944D038823E1F36A
:1006B000CCB9CF91089510BC8FE189B988E18AB98E
:1006C0008EE880BD6BE473E082E593E00E946E03E8
:1006D000089580E885BF80E280BF08950F931F933F
:1006E000CF93DF93009731F46115710519F480E021
:1006F00090E03AC08B01EC016EE070E081E090E0A8
:100700000E94B005FC01892B91F380E883830115D9
:10071000110571F01387028781E883838091A2011C
:100720009091A301892B21F4F093A301E093A201FE
:100730002097C9F0D187C0878381826083838091AD
:10074000A4019091A501892B71F4F093A501E09388
:10075000A4018091A6019091A701892B21F4F09327
:10076000A701E093A601CF01DF91CF911F910F91D7
:100770000895A0E0B0E0EFEBF3E00C94B407AE0115
:100780004B5F5F4FFA0161917191AF018091A401BC
:100790009091A5010E94CF03E2E00C94D007ABE05A
:1007A000B0E0E5EDF3E00C94A4076C017B018A0155
:1007B000FC0117821682838181FFCCC1CE01019694
:1007C0003C01F6019381F70193FD859193FF81919F
:1007D0007F01882309F4BAC1853239F493FD8591EC
:1007E00093FF81917F01853229F4B60190E00E9448
:1007F0000A07E7CF912C212C312CFFE1F315D8F01B
:100800008B3279F038F4803279F08332A1F4232DE1
:1008100020611DC08D3261F0803369F4232D216089
:1008200016C0832D8260382EE32DE4603E2E2AC050
:10083000F32DF8601DC037FC2DC020ED280F2A30A5
:1008400040F08E32B9F436FC81C1232D2064322E63
:1008500019C036FE06C08AE0989E200D1124922E03
:1008600011C0EAE02E9E200D1124222EF32DF062FD
:100870003F2E08C08C3621F4832D8068382E02C0AC
:10088000883641F4F70193FD859193FF81917F01B3
:100890008111B3CF982F9F7D9554933028F40C5F2E
:1008A0001F4F9FE399830DC0833631F0833771F07A
:1008B000833509F059C021C0F801808189830E5F1A
:1008C0001F4F88248394912C530113C02801F2E018
:1008D0004F0E511CF801A080B18036FE03C0692D77
:1008E00070E002C06FEF7FEFC5010E94FF064C0170
:1008F0008201F32DFF773F2E16C0280122E0420E21
:10090000511CF801A080B18036FE03C0692D70E053
:1009100002C06FEF7FEFC5010E94ED064C01F32D81
:10092000F0683F2E820133FC1BC0822D90E08816B8
:100930009906B0F4B60180E290E00E940A072A947A
:10094000F4CFF50137FC859137FE81915F01B60147
:1009500090E00E940A0721102A9421E0821A91084F
:100960008114910471F7E8C0843611F0893641F59D
:10097000F80137FE07C060817181828193810C5F2D
:100980001F4F08C060817181072E000C880B990BE6
:100990000E5F1F4FF32DFF763F2E97FF09C09095F6
:1009A0008095709561957F4F8F4F9F4FF0683F2ED8
:1009B0002AE030E0A3010E944607882E861845C031
:1009C000853731F4232D2F7EB22E2AE030E025C06A
:1009D000932D997FB92E8F36C1F018F4883579F0B0
:1009E000B5C0803719F0883721F0B0C0E92FE06139
:1009F000BE2EB4FE0DC0FB2DF460BF2E09C034FE28
:100A00000AC0292F2660B22E06C028E030E005C0BB
:100A100020E130E002C020E132E0F801B7FE07C07B
:100A200060817181828193810C5F1F4F06C060815C
:100A3000718180E090E00E5F1F4FA3010E94460786
:100A4000882E8618FB2DFF773F2E36FE0DC0232DF6
:100A50002E7FA22E891458F434FE0BC032FC09C03C
:100A6000832D8E7EA82E05C0B82CA32C03C0B82CD5
:100A700001C0B92CA4FE0FC0FE01E80DF11D80815C
:100A8000803321F49A2D997EA92E09C0A2FE06C0BA
:100A9000B394B39404C08A2D867809F0B394A3FC70
:100AA00011C0A0FE06C0B21488F4280C922C9B182A
:100AB0000EC0B21460F4B60180E290E00E940A0712
:100AC000B394F7CFB21418F42B1802C0982C212C31
:100AD000A4FE10C0B60180E390E00E940A07A2FEC7
:100AE00017C0A1FC03C088E790E002C088E590E051
:100AF000B6010CC08A2D867859F0A1FE02C08BE2A7
:100B000001C080E2A7FC8DE2B60190E00E940A07D6
:100B1000891438F4B60180E390E00E940A079A94A1
:100B2000F7CF8A94F301E80DF11D8081B60190E0C2
:100B30000E940A078110F5CF222009F442CEB601A7
:100B400080E290E00E940A072A94F6CFF60186819F
:100B5000978102C08FEF9FEF2B96E2E10C94C007C4
:100B60000F931F93CF93DF93869F8001879F100D74
:100B7000969F100D1124C8010E94CC05EC0100972E
:100B800029F0A80160E070E00E94F806CE01DF9134
:100B9000CF911F910F9108950F931F93CF93DF93E0
:100BA0008230910510F482E090E0E091AA01F0918A
:100BB000AB0120E030E0A0E0B0E0309719F14081D7
:100BC00051810281138148175907C8F0841795078E
:100BD00069F4109731F012960C93129713961C93A8
:100BE00027C00093AA011093AB0122C02115310543
:100BF00019F04217530718F49A01BD01EF01DF0104
:100C0000F801DBCF21153105F9F0281B390B243011
:100C1000310580F48A819B816115710521F0FB010A
:100C20009383828304C09093AB018093AA01FE0159
:100C3000329644C0FE01E20FF31F8193919322503C
:100C40003109398328833AC02091A8013091A90144
:100C5000232B41F420910201309103013093A9012B
:100C60002093A80120910001309101012115310547
:100C700041F42DB73EB74091040150910501241B6A
:100C8000350BE091A801F091A901E217F307A0F458
:100C90002E1B3F0B2817390778F0AC014E5F5F4FD2
:100CA0002417350748F04E0F5F1F5093A90140935A
:100CB000A8018193919302C0E0E0F0E0CF01DF91C1
:100CC000CF911F910F910895CF93DF93009709F46F
:100CD00081C0FC01329713821282A091AA01B091C7
:100CE000AB01109781F420813181820F931F2091F5
:100CF000A8013091A9012817390751F5F093A901EE
:100D0000E093A80167C0ED0120E030E0CE17DF07D7
:100D100040F44A815B819E0141155105F1F0EA01E1
:100D2000F5CFD383C28340815181840F951FC817AB
:100D3000D90759F488819981840F951F0296918370
:100D400080838A819B81938382832115310529F4D5
:100D5000F093AB01E093AA013DC0E901FB83EA8374
:100D600049915991C40FD51FEC17FD0761F480819B
:100D70009181840F951F0296E9019983888382816E
:100D800093819B838A83E0E0F0E012968D919C91A1
:100D90001397009719F0FD01DC01F7CF8D919C911D
:100DA00011979D012E5F3F4F820F931F2091A80145
:100DB0003091A9012817390769F4309729F4109266
:100DC000AB011092AA0102C013821282B093A90152
:100DD000A093A801DF91CF910895FC010590615087
:100DE00070400110D8F7809590958E0F9F1F089541
:100DF000DC0101C06D9341505040E0F70895FC01C3
:100E00006150704001900110D8F7809590958E0F39
:100E10009F1F08950F931F93CF93DF93FB012381AF
:100E200021FD03C08FEF9FEF2CC022FF16C046812B
:100E30005781248135814217530744F4A081B18141
:100E40009D012F5F3F4F318320838C932681378113
:100E50002F5F3F4F3783268314C08B01EC01FB01CA
:100E60000084F185E02D0995892BE1F6D8011696CD
:100E70008D919C911797019617969C938E93169738
:100E8000CE01DF91CF911F910F910895FA01AA270A
:100E9000283051F1203181F1E8946F936E7F6E5FBD
:100EA0007F4F8F4F9F4FAF4FB1E03ED0B4E03CD06B
:100EB000670F781F891F9A1FA11D680F791F8A1F4E
:100EC000911DA11D6A0F711D811D911DA11D20D0B5
:100ED00009F468943F912AE0269F11243019305D6F
:100EE0003193DEF6CF010895462F4770405D419360
:100EF000B3E00FD0C9F7F6CF462F4F70405D4A33AD
:100F000018F0495D31FD4052419302D0A9F7EACF74
:100F1000B4E0A6959795879577956795BA95C9F7A3
:100F200000976105710508959B01AC010A2E069496
:100F30005795479537952795BA95C9F7620F731F4F
:100F4000841F951FA01D08952F923F924F925F928C
:100F50006F927F928F929F92AF92BF92CF92DF92C9
:100F6000EF92FF920F931F93CF93DF93CDB7DEB72E
:100F7000CA1BDB0B0FB6F894DEBF0FBECDBF0994C2
:100F80002A88398848885F846E847D848C849B8419
:100F9000AA84B984C884DF80EE80FD800C811B8127
:100FA000AA81B981CE0FD11D0FB6F894DEBF0FBE56
:0A0FB000CDBFED010895F894FFCFC6
:100FBA000000AC01200042313A2025642C20202078
:100FCA0042323A20256420202042333A2025640AFE
:100FDA00002D2D2D20486F6D65202D2D2D00506C74
:100FEA006179004869676873636F72650041626F6F
:100FFA0075740057454C434F4D4521002A454E54C0
:10100A0045522047414D452A00504C4159207365AD
:10101A006C6563746564004849474853434F5245B9
:10102A002073656C65637465640041424F555420B2
:10103A0073656C6563746564004572726F722C2007
:10104A006E6F20737563682073656C656374696F6E
:02105A006E0026
:00000001FF
