S00F00004279676765726E2E7372656347
S11300000C94B4010C94D1010C94D1010C94D10141
S11300100C94D1010C94D1010C94D1010C94D10114
S11300200C94D1010C94D1010C94D1010C94D10104
S11300300C94D1010C94D1010C94D1010C94D101F4
S11300400C94D1010C94D1010C94D1010C94D101E4
S11300500C94D1010C94D1010C94D1010C94D101D4
S11300600C94D1010C94D1010C94D1010C94D101C4
S1130070000000000000000000065F5F06000000B2
S11300800007070007070000147F7F147F7F140018
S1130090242E6B6B3A120000466630180C66620020
S11300A0307A4F5D377A48000407030000000000EF
S11300B0001C3E63410000000041633E1C00000040
S11300C0082A3E1C1C3E2A0808083E3E0808000078
S11300D000A0E0600000000008080808080800000C
S11300E000006060000000006030180C060301008E
S11300F03E7F594D7F3E000042427F7F40400000DA
S1130100627359496F660000226349497F360000D3
S1130110181C16137F7F1000276745457D390000A2
S11301203C7E4B4979300000036371190F070000CE
S1130130367F49497F360000064F49693F1E00005B
S113014000006C6C0000000000A0EC6C00000000DB
S1130150081C366341000000141414141414000025
S1130160004163361C080000020351590F060000C9
S11301703E7F415D5D1F1E007C7E13137E7C00006C
S1130180417F7F49497F36001C3E63414163220021
S1130190417F7F41637F1C00417F7F495D41630054
S11301A0417F7F491D0103001C3E6341517372006E
S11301B07F7F08087F7F000000417F7F41000000AF
S11301C0307040417F3F0100417F7F081C7763000E
S11301D0417F7F41406070007F7F060C067F7F0077
S11301E07F7F060C187F7F001C3E6341633E1C002A
S11301F0417F7F49090F06001E3F21717F5E000089
S1130200417F7F19396F460026674D597B320000C4
S113021003417F7F410300007F7F40407F7F0000D8
S11302201F3F60603F1F00007F7F3018307F7F00DA
S113023063771C081C776300074F78784F0700002A
S11302406773594D47637100007F7F41410000008F
S11302500103060C183060000041417F7F0000005C
S1130260080C0603060C0800808080808080808053
S11302700000030704000000207454543C7840003C
S1130280413F7F44447C3800387C44446C2800005F
S1130290307848493F7F4000387C54545C18000053
S11302A0487E7F490302000098BCA4A4F87C0400A3
S11302B0417F7F08047C780000447D7D400000007D
S11302C040C484FD7D000000417F7F10386C4400F1
S11302D000417F7F400000007C7C0C180C7C78007F
S11302E07C7C04047C780000387C44447C38000026
S11302F084FCF8A4243C1800183C24A4F8FC8400D2
S1130300447C78441C180000485C54547424000055
S113031000043E7F442400003C7C40403C7C400080
S11303201C3C60603C1C00003C7C6030607C3C00F9
S1130330446C3810386C44009CBCA0A0FC7C0000C9
S11303404C64745C4C64000008083E774141000032
S113035000000077770000004141773E0808000064
S1130360020301030203010011241FBECFEFD4E0F6
S1130370DEBFCDBF12E0A0E0B1E0ECE6F1E102C0E7
S113038005900D92A43AB107D9F722E0A4EAB2E0AD
S113039001C01D92AE3AB207E1F70E94D3010C945A
S11303A0B4080C940000CF93DF93CDB7DEB72B973E
S11303B00FB6F894DEBF0FBECDBF0E9422020E948A
S11303C012040E9400040E942B030E94CE020E9489
S11303D0F60183E090E09A83898381E08B8385E54D
S11303E08C83CE0101960E940902FFCF80E490E045
S11303F00E945A0260E470E08FE090E00E9446029E
S113040086E091E09F938F930E9462040F900F9077
S113041008950F931F93CF93FC012281222371F03F
S11304208C01C0E0F801EC0FF11D838190E00E9483
S1130430A002CF5FF8018281C817A0F3CF911F916A
S11304400F910895B89A87B387BBC09A089588B36B
S113045088BB0895C49A08950E94270280EC0E94E4
S1130460E5030E942A020895CF93C82F0E94270211
S113047083E00E94E5038C2F0E94E5030E94E903B8
S1130480C82F0E942A028C2FCF910895CF93DF9317
S1130490D82FC62F0E94270282E00E94E5038D2FE9
S11304A00E94E5038C2F0E94E5030E942A02DF913B
S11304B0CF910895CF93C82F0E94DE030E942C028F
S11304C08EE00E943402807E803831F085E191E034
S11304D00E94780481E032C06C2F8FE00E944602B3
S11304E0C11105C089E491E00E9478040EC0C032B5
S11304F029F48AE691E00E9478040FC0C03429F4FC
S11305008AE891E00E94780410C0C03631F48DEA84
S113051091E00E94780480E011C0C03831F483ED8A
S113052091E00E94780480E009C0C03E31F482EF7B
S113053091E00E94780480E001C080E0CF910895AA
S1130540CF93C82F0E9427028C2F0E94E5030E949C
S11305502A02CF9108950E941B0380E090E00E943C
S1130560F20283E192E00E949A0382E090E00E940A
S1130570F20280E292E00E949A0384E090E00E94FA
S1130580F20285E292E00E949A0386E090E00E94E3
S1130590F2028FE292E00E949A03089585E392E0CA
S11305A00E949A0360E070E084E090E00E94FE0202
S11305B08EE392E00E94BC032FEF8FEF9CE2215068
S11305C080409040E1F700C000C00E94AB02089553
S11305D0982F9F70E0E0F0E1908382958F70805FA8
S11305E08083089580558093001080E00E94E80283
S11305F0089580E090E00E94F2020895CF93C62F00
S11306000E94F2028C2F0E94E802CF910895CF93AA
S1130610DF93EC0160E070E00E94FE0280E890E06D
S1130620E0E0F2E110820197E9F7CE010E94F202C4
S1130630DF91CF910895CF93DF93C0E0D0E0CE0156
S11306400E9407032196C830D105C9F70E94F90218
S1130650DF91CF910895E0E0F0E18EEA808381EAB2
S113066080838AED808382E1808388EC808388EABA
S113067080838FE3808385ED808380E8808381E8B5
S1130680808380E5808389ED808381E2808380E2BA
S1130690808382E080838BED808380E380838DEA96
S11306A08083108284EA808386EA80838FEA808351
S11306B00E941B030895805290E09C01220F331F77
S11306C0220F331F220F331F20593F4F880F991FCA
S11306D0880F991F880F991F88589F4FA0E0B2E197
S11306E0F901459154914C932F5F3F4F28173907D7
S11306F0B9F70895805290E09C01220F331F220F16
S1130700331F220F331F20593F4F880F991F880F23
S1130710991F880F991F88589F4FA0E0B2E1F901F3
S11307204591549140954C932F5F3F4F28173907BB
S1130730B1F70895EF92FF920F931F93CF93DF9336
S11307408C017C01C0E0D0E006C0F70181917F01FB
S11307500E945B032196F80101900020E9F731978C
S1130760E01BF10BCE17DF0780F3DF91CF911F91D0
S11307700F91FF90EF900895EF92FF920F931F93C4
S1130780CF93DF938C017C01C0E0D0E006C0F70179
S113079081917F010E947A032196F8010190002043
S11307A0E9F73197E01BF10BCE17DF0780F3DF91F8
S11307B0CF911F910F91FF90EF90089587B3806BB5
S11307C087BB81E58DB9C49A08958FB9779BFECF15
S11307D0089580E00E94E503779BFECF8FB10895D2
S11307E08CB108958BB185FB882780F90895CF9348
S11307F0C82F0E94F2038823E1F3CCB9CF91089566
S113080010BC8FE189B988E18AB98EE880BD60EFB8
S113081073E087EF93E00E94170484E992E00E945A
S11308207804089580E885BF80E280BF08950F931F
S11308301F93CF93DF93009731F46115710519F479
S113084080E090E03AC08B01EC016EE070E081E062
S113085090E00E948906FC01892B91F380E8838350
S11308600115110571F01387028781E88383809154
S1130870A4029091A502892B21F4F093A502E093A0
S1130880A4022097C9F0D187C087838182608383C3
S11308908091A6029091A702892B71F4F093A7028C
S11308A0E093A6028091A8029091A902892B21F4D9
S11308B0F093A902E093A802CF01DF91CF911F9199
S11308C00F910895A0E0B0E0E8E6F4E00C948D0800
S11308D0AE014B5F5F4FFA0161917191AF0180915D
S11308E0A6029091A7020E94A804E2E00C94A90831
S11308F00F931F93CF93DF93E091A602F091A70289
S1130900238121FF1BC08C01D0E0C0E0F80181915C
S11309108F016091A6027091A702DB011896ED91F8
S1130920FC911997882331F00995892B79F3DFEF2E
S1130930CFEFECCF8AE00995892B19F08FEF9FEF69
S113094002C08D2F9C2FDF91CF911F910F9108959D
S1130950ABE0B0E0EEEAF4E00C947D086C017B01BE
S11309608A01FC0117821682838181FFCCC1CE01EA
S113097001963C01F6019381F70193FD859193FF64
S113098081917F01882309F4BAC1853239F493FD3A
S1130990859193FF81917F01853229F4B60190E01E
S11309A00E94E307E7CF912C212C312CFFE1F315B2
S11309B0D8F08B3279F038F4803279F08332A1F4B4
S11309C0232D20611DC08D3261F0803369F4232D05
S11309D0216016C0832D8260382EE32DE4603E2E04
S11309E02AC0F32DF8601DC037FC2DC020ED280F60
S11309F02A3040F08E32B9F436FC81C1232D2064B4
S1130A00322E19C036FE06C08AE0989E200D1124AD
S1130A10922E11C0EAE02E9E200D1124222EF32DD9
S1130A20F0623F2E08C08C3621F4832D8068382E66
S1130A3002C0883641F4F70193FD859193FF8191BB
S1130A407F018111B3CF982F9F7D9554933028F463
S1130A500C5F1F4F9FE399830DC0833631F08337BA
S1130A6071F0833509F059C021C0F8018081898370
S1130A700E5F1F4F88248394912C530113C02801C7
S1130A80F2E04F0E511CF801A080B18036FE03C085
S1130A90692D70E002C06FEF7FEFC5010E94D80797
S1130AA04C018201F32DFF773F2E16C0280122E06E
S1130AB0420E511CF801A080B18036FE03C0692D9E
S1130AC070E002C06FEF7FEFC5010E94C6074C01C2
S1130AD0F32DF0683F2E820133FC1BC0822D90E081
S1130AE088169906B0F4B60180E290E00E94E3070C
S1130AF02A94F4CFF50137FC859137FE81915F018B
S1130B00B60190E00E94E30721102A9421E0821AA2
S1130B1091088114910471F7E8C0843611F0893684
S1130B2041F5F80137FE07C06081718182819381AC
S1130B300C5F1F4F08C060817181072E000C880B69
S1130B40990B0E5F1F4FF32DFF763F2E97FF09C0C1
S1130B5090958095709561957F4F8F4F9F4FF0686A
S1130B603F2E2AE030E0A3010E941F08882E861839
S1130B7045C0853731F4232D2F7EB22E2AE030E094
S1130B8025C0932D997FB92E8F36C1F018F488357E
S1130B9079F0B5C0803719F0883721F0B0C0E92F5B
S1130BA0E061BE2EB4FE0DC0FB2DF460BF2E09C063
S1130BB034FE0AC0292F2660B22E06C028E030E099
S1130BC005C020E130E002C020E132E0F801B7FEC8
S1130BD007C060817181828193810C5F1F4F06C0C1
S1130BE06081718180E090E00E5F1F4FA3010E943D
S1130BF01F08882E8618FB2DFF773F2E36FE0DC06A
S1130C00232D2E7FA22E891458F434FE0BC032FCFF
S1130C1009C0832D8E7EA82E05C0B82CA32C03C03A
S1130C20B82C01C0B92CA4FE0FC0FE01E80DF11DC3
S1130C308081803321F49A2D997EA92E09C0A2FEC9
S1130C4006C0B394B39404C08A2D867809F0B39493
S1130C50A3FC11C0A0FE06C0B21488F4280C922C88
S1130C609B180EC0B21460F4B60180E290E00E94BA
S1130C70E307B394F7CFB21418F42B1802C0982CDE
S1130C80212CA4FE10C0B60180E390E00E94E3078B
S1130C90A2FE17C0A1FC03C088E790E002C088E56B
S1130CA090E0B6010CC08A2D867859F0A1FE02C0EE
S1130CB08BE201C080E2A7FC8DE2B60190E00E94C5
S1130CC0E307891438F4B60180E390E00E94E30757
S1130CD09A94F7CF8A94F301E80DF11D8081B6014F
S1130CE090E00E94E3078110F5CF222009F442CE60
S1130CF0B60180E290E00E94E3072A94F6CFF60161
S1130D008681978102C08FEF9FEF2B96E2E10C94CE
S1130D1099080F931F93CF93DF93869F8001879F3A
S1130D20100D969F100D1124C8010E94A506EC0118
S1130D30009729F0A80160E070E00E94D107CE017D
S1130D40DF91CF911F910F9108950F931F93CF932C
S1130D50DF938230910510F482E090E0E091AC02E0
S1130D60F091AD0220E030E0A0E0B0E0309719F15E
S1130D70408151810281138148175907C8F08417B3
S1130D80950769F4109731F012960C931297139605
S1130D901C9327C00093AC021093AD0222C021150E
S1130DA0310519F04217530718F49A01BD01EF01F8
S1130DB0DF01F801DBCF21153105F9F0281B390BD0
S1130DC02430310580F48A819B816115710521F0FD
S1130DD0FB019383828304C09093AD028093AC02A1
S1130DE0FE01329644C0FE01E20FF31F81939193FA
S1130DF022503109398328833AC02091AA023091C4
S1130E00AB02232B41F42091020130910301309372
S1130E10AB022093AA022091000130910101211517
S1130E20310541F42DB73EB74091040150910501BD
S1130E30241B350BE091AA02F091AB02E217F307F1
S1130E40A0F42E1B3F0B2817390778F0AC014E5F36
S1130E505F4F2417350748F04E0F5F1F5093AB02C6
S1130E604093AA028193919302C0E0E0F0E0CF01A5
S1130E70DF91CF911F910F910895CF93DF93009746
S1130E8009F481C0FC01329713821282A091AC0252
S1130E90B091AD02109781F420813181820F931FAC
S1130EA02091AA023091AB022817390751F5F0932B
S1130EB0AB02E093AA0267C0ED0120E030E0CE1758
S1130EC0DF0740F44A815B819E0141155105F1F031
S1130ED0EA01F5CFD383C28340815181840F951FEA
S1130EE0C817D90759F488819981840F951F0296F0
S1130EF0918380838A819B81938382832115310529
S1130F0029F4F093AD02E093AC023DC0E901FB8308
S1130F10EA8349915991C40FD51FEC17FD0761F479
S1130F2080819181840F951F0296E90199838883BA
S1130F30828193819B838A83E0E0F0E012968D9115
S1130F409C911397009719F0FD01DC01F7CF8D9167
S1130F509C9111979D012E5F3F4F820F931F20910B
S1130F60AA023091AB022817390769F4309729F4A3
S1130F701092AD021092AC0202C013821282B0939E
S1130F80AB02A093AA02DF91CF910895FC010590D2
S1130F90615070400110D8F7809590958E0F9F1F77
S1130FA00895DC0101C06D9341505040E0F708956D
S1130FB0FC016150704001900110D8F78095909524
S1130FC08E0F9F1F08950F931F93CF93DF93FB0101
S1130FD0238121FD03C08FEF9FEF2CC022FF16C099
S1130FE046815781248135814217530744F4A081F7
S1130FF0B1819D012F5F3F4F318320838C932681E4
S113100037812F5F3F4F3783268314C08B01EC0158
S1131010FB010084F185E02D0995892BE1F6D801C7
S113102016968D919C911797019617969C938E9383
S11310301697CE01DF91CF911F910F910895FA0178
S1131040AA27283051F1203181F1E8946F936E7F03
S11310506E5F7F4F8F4F9F4FAF4FB1E03ED0B4E0F4
S11310603CD0670F781F891F9A1FA11D680F791F35
S11310708A1F911DA11D6A0F711D811D911DA11D46
S113108020D009F468943F912AE0269F1124301956
S1131090305D3193DEF6CF010895462F4770405DF1
S11310A04193B3E00FD0C9F7F6CF462F4F70405DA0
S11310B04A3318F0495D31FD4052419302D0A9F7FB
S11310C0EACFB4E0A6959795879577956795BA95F5
S11310D0C9F700976105710508959B01AC010A2EBB
S11310E006945795479537952795BA95C9F7620F92
S11310F0731F841F951FA01D08952F923F924F9236
S11311005F926F927F928F929F92AF92BF92CF9293
S1131110DF92EF92FF920F931F93CF93DF93CDB79C
S1131120DEB7CA1BDB0B0FB6F894DEBF0FBECDBF14
S113113009942A88398848885F846E847D848C84E5
S11311409B84AA84B984C884DF80EE80FD800C81EE
S11311501B81AA81B981CE0FD11D0FB6F894DEBFD1
S10F11600FBECDBFED010895F894FFCF41
S113116C0000AE0220003C43414E2069732072659E
S113117C6164793E003C4D435032353135206973FE
S113118C204E4F5420696E20636F6E6669677572CA
S113119C6174696F6E206D6F64652061667465722D
S11311AC207265736574213E003C4D4350323531D9
S11311BC3520697320696E2020206E6F726D616C0E
S11311CC2020206D6F64652E3E003C4D435032351B
S11311DC313520697320696E202020736C6565702D
S11311EC2020206D6F64652E3E003C4D43503235FB
S11311FC313520697320696E2020206C6F6F70620A
S113120C61636B2020206D6F64652E3E003C4D4362
S113121C503235313520697320696E2020206C6979
S113122C7374656E206F6E6C792020206D6F64650D
S113123C2E3E004D43503235313520697320696E92
S113124C202020636F6E6669672020206D6F6465B3
S113125C2E004D43503235313520697320696E2090
S113126C2020706F7765722075702020206D6F645C
S113127C652E002D2D2D20486F6D65202D2D2D00F4
S113128C506C6179004869676873636F72650041DB
S113129C626F75740057454C434F4D4521002A45E8
S11312AC4E5445522047414D452A00504C4159203B
S11312BC73656C6563746564004849474853434FD0
S11312CC52452073656C65637465640041424F55E7
S11312DC542073656C6563746564004572726F7237
S11312EC2C206E6F20737563682073656C65637452
S11312FC696F6E003C5541525420697320726561CC
S107130C64793E00BE
S9030000FC
