S00F00004279676765726E2E7372656347
S11300000C94B4010C94D1010C94D1010C94D10141
S11300100C94D1010C94D1010C94D1010C94D10114
S11300200C94D1010C94D1010C94D1010C94D10104
S11300300C94D1010C94D1010C94D1010C94D101F4
S11300400C94D1010C94D1010C94D1010C94D101E4
S11300500C94D1010C94D1010C94D1010C94D101D4
S11300600C94D1010C94D1010C94D1010C94D101C4
S1130070000000000000000000065F5F06000000B2
S11300800007070007070000147F7F147F7F140018
S1130090242E6B6B3A120000466630180C66620020
S11300A0307A4F5D377A48000407030000000000EF
S11300B0001C3E63410000000041633E1C00000040
S11300C0082A3E1C1C3E2A0808083E3E0808000078
S11300D000A0E0600000000008080808080800000C
S11300E000006060000000006030180C060301008E
S11300F03E7F594D7F3E000042427F7F40400000DA
S1130100627359496F660000226349497F360000D3
S1130110181C16137F7F1000276745457D390000A2
S11301203C7E4B4979300000036371190F070000CE
S1130130367F49497F360000064F49693F1E00005B
S113014000006C6C0000000000A0EC6C00000000DB
S1130150081C366341000000141414141414000025
S1130160004163361C080000020351590F060000C9
S11301703E7F415D5D1F1E007C7E13137E7C00006C
S1130180417F7F49497F36001C3E63414163220021
S1130190417F7F41637F1C00417F7F495D41630054
S11301A0417F7F491D0103001C3E6341517372006E
S11301B07F7F08087F7F000000417F7F41000000AF
S11301C0307040417F3F0100417F7F081C7763000E
S11301D0417F7F41406070007F7F060C067F7F0077
S11301E07F7F060C187F7F001C3E6341633E1C002A
S11301F0417F7F49090F06001E3F21717F5E000089
S1130200417F7F19396F460026674D597B320000C4
S113021003417F7F410300007F7F40407F7F0000D8
S11302201F3F60603F1F00007F7F3018307F7F00DA
S113023063771C081C776300074F78784F0700002A
S11302406773594D47637100007F7F41410000008F
S11302500103060C183060000041417F7F0000005C
S1130260080C0603060C0800808080808080808053
S11302700000030704000000207454543C7840003C
S1130280413F7F44447C3800387C44446C2800005F
S1130290307848493F7F4000387C54545C18000053
S11302A0487E7F490302000098BCA4A4F87C0400A3
S11302B0417F7F08047C780000447D7D400000007D
S11302C040C484FD7D000000417F7F10386C4400F1
S11302D000417F7F400000007C7C0C180C7C78007F
S11302E07C7C04047C780000387C44447C38000026
S11302F084FCF8A4243C1800183C24A4F8FC8400D2
S1130300447C78441C180000485C54547424000055
S113031000043E7F442400003C7C40403C7C400080
S11303201C3C60603C1C00003C7C6030607C3C00F9
S1130330446C3810386C44009CBCA0A0FC7C0000C9
S11303404C64745C4C64000008083E774141000032
S113035000000077770000004141773E0808000064
S1130360020301030203010011241FBECFEFD4E0F6
S1130370DEBFCDBF13E0A0E0B1E0EAE2F1E102C0EC
S113038005900D92AE30B107D9F723E0AEE0B3E0AB
S113039001C01D92A831B207E1F70E94D3010C9469
S11303A093080C9400000E94F9010E94F1030E943A
S11303B0DF030E940A030E94AD020E94E001FFCF06
S11303C080E490E00E94350263E070E08BE290E00C
S11303D00E9421026CE170E08BE290E00E94210215
S11303E086E091E09F938F930E9441040F900F90B9
S11303F00895B89AC09AB998C198BA98C298BA9808
S1130400C298089588B388BB0895C49A08950E9439
S1130410020280EC0E94C4030E9405020895CF9357
S1130420C82F0E94020283E00E94C4038C2F0E9402
S1130430C4030E94C803C82F0E9405028C2FCF91C9
S11304400895CF93DF93D82FC62F0E94020282E033
S11304500E94C4038D2F0E94C4038C2F0E94C403E6
S11304600E940502DF91CF910895CF93DF93D82F97
S11304700E94BD030E9407028EE00E940F02807E4C
S1130480803831F088E591E00E94570481E03FC054
S11304906D2F8FE00E9421028EE00E940F02C82F70
S11304A0C07ECD1731F08CE891E00E94570481E0C2
S11304B02EC0C11105C083EB91E00E9457040EC009
S11304C0C03229F484ED91E00E9457040FC0C03477
S11304D029F484EF91E00E94570410C0C03631F42F
S11304E087E192E00E94570480E011C0C03831F4E3
S11304F08DE392E00E94570480E009C0C03E31F4CD
S11305008CE592E00E94570480E001C080E0DF9116
S1130510CF9108950E94FA0280E090E00E94D102F7
S11305208DE792E00E94790382E090E00E94D1027C
S11305308AE892E00E94790384E090E00E94D1026C
S11305408FE892E00E94790386E090E00E94D10255
S113055089E992E00E94790308958FE992E00E946C
S1130560790360E070E084E090E00E94DD0288EAB4
S113057092E00E949B032FEF8FEF9CE2215080407A
S11305809040E1F700C000C00E948A020895982FAD
S11305909F70E0E0F0E1908382958F70805F8083AC
S11305A0089580558093001080E00E94C70208954A
S11305B080E090E00E94D1020895CF93C62F0E945C
S11305C0D1028C2F0E94C702CF910895CF93DF935D
S11305D0EC0160E070E00E94DD0280E890E0E0E081
S11305E0F2E110820197E9F7CE010E94D102DF9176
S11305F0CF910895CF93DF93C0E0D0E0CE010E9465
S1130600E6022196C830D105C9F70E94D802DF91CD
S1130610CF910895E0E0F0E18EEA808381EA80835F
S11306208AED808382E1808388EC808388EA8083FA
S11306308FE3808385ED808380E8808381E88083F5
S113064080E5808389ED808381E2808380E28083FA
S113065082E080838BED808380E380838DEA8083D6
S1130660108284EA808386EA80838FEA80830E94F2
S1130670FA020895805290E09C01220F331F220F4A
S1130680331F220F331F20593F4F880F991F880FA4
S1130690991F880F991F88589F4FA0E0B2E1F90174
S11306A0459154914C932F5F3F4F28173907B9F761
S11306B00895805290E09C01220F331F220F331FB4
S11306C0220F331F20593F4F880F991F880F991FFE
S11306D0880F991F88589F4FA0E0B2E1F901459116
S11306E0549140954C932F5F3F4F28173907B1F72A
S11306F00895EF92FF920F931F93CF93DF938C0192
S11307007C01C0E0D0E006C0F70181917F010E9426
S11307103A032196F80101900020E9F73197E01B94
S1130720F10BCE17DF0780F3DF91CF911F910F916B
S1130730FF90EF900895EF92FF920F931F93CF9342
S1130740DF938C017C01C0E0D0E006C0F701819109
S11307507F010E9459032196F80101900020E9F7D6
S11307603197E01BF10BCE17DF0780F3DF91CF91B8
S11307701F910F91FF90EF90089587B3806B87BB13
S113078081E58DB9C49A08958FB9779BFECF0895FA
S113079080E00E94C403779BFECF8FB108958CB193
S11307A008958BB185FB882780F90895CF93C82FCE
S11307B00E94D1038823E1F3CCB9CF91089510BCF2
S11307C08FE189B988E18AB98EE880BD6FEC73E066
S11307D086ED93E00E94F6038EEF92E00E945704A8
S11307E0089580E885BF80E280BF08950F931F932A
S11307F0CF93DF93009731F46115710519F480E00C
S113080090E03AC08B01EC016EE070E081E090E092
S11308100E946806FC01892B91F380E8838301150B
S1130820110571F01387028781E8838380910E0399
S113083090910F03892B21F4F0930F03E0930E039F
S11308402097C9F0D187C087838182608383809198
S1130850100390911103892B71F4F0931103E09329
S113086010038091120390911303892B21F4F093C8
S11308701303E0931203CF01DF91CF911F910F91E6
S11308800895A0E0B0E0E7E4F4E00C946C08AE0155
S11308904B5F5F4FFA0161917191AF018091100339
S11308A0909111030E948704E2E00C9488080F934E
S11308B01F93CF93DF93E0911003F09111032381F1
S11308C021FF1BC08C01D0E0C0E0F80181918F01B1
S11308D06091100370911103DB011896ED91FC9166
S11308E01997882331F00995892B79F3DFEFCFEF3E
S11308F0ECCF8AE00995892B19F08FEF9FEF02C0A6
S11309008D2F9C2FDF91CF911F910F910895ABE014
S1130910B0E0EDE8F4E00C945C086C017B018A0122
S1130920FC0117821682838181FFCCC1CE0101961E
S11309303C01F6019381F70193FD859193FF819129
S11309407F01882309F4BAC1853239F493FD859176
S113095093FF81917F01853229F4B60190E00E94D2
S1130960C207E7CF912C212C312CFFE1F315D8F0ED
S11309708B3279F038F4803279F08332A1F4232D6C
S113098020611DC08D3261F0803369F4232D216014
S113099016C0832D8260382EE32DE4603E2E2AC0DB
S11309A0F32DF8601DC037FC2DC020ED280F2A3030
S11309B040F08E32B9F436FC81C1232D2064322EEE
S11309C019C036FE06C08AE0989E200D1124922E8E
S11309D011C0EAE02E9E200D1124222EF32DF06288
S11309E03F2E08C08C3621F4832D8068382E02C037
S11309F0883641F4F70193FD859193FF81917F013E
S1130A008111B3CF982F9F7D9554933028F40C5FB8
S1130A101F4F9FE399830DC0833631F0833771F004
S1130A20833509F059C021C0F801808189830E5FA4
S1130A301F4F88248394912C530113C02801F2E0A2
S1130A404F0E511CF801A080B18036FE03C0692D01
S1130A5070E002C06FEF7FEFC5010E94B7074C0141
S1130A608201F32DFF773F2E16C0280122E0420EAB
S1130A70511CF801A080B18036FE03C0692D70E0DE
S1130A8002C06FEF7FEFC5010E94A5074C01F32D53
S1130A90F0683F2E820133FC1BC0822D90E0881643
S1130AA09906B0F4B60180E290E00E94C2072A944D
S1130AB0F4CFF50137FC859137FE81915F01B601D2
S1130AC090E00E94C20721102A9421E0821A910822
S1130AD08114910471F7E8C0843611F0893641F528
S1130AE0F80137FE07C060817181828193810C5FB8
S1130AF01F4F08C060817181072E000C880B990B71
S1130B000E5F1F4FF32DFF763F2E97FF09C0909580
S1130B108095709561957F4F8F4F9F4FF0683F2E62
S1130B202AE030E0A3010E94FE07882E861845C003
S1130B30853731F4232D2F7EB22E2AE030E025C0F4
S1130B40932D997FB92E8F36C1F018F4883579F03A
S1130B50B5C0803719F0883721F0B0C0E92FE061C3
S1130B60BE2EB4FE0DC0FB2DF460BF2E09C034FEB2
S1130B700AC0292F2660B22E06C028E030E005C046
S1130B8020E130E002C020E132E0F801B7FE07C006
S1130B9060817181828193810C5F1F4F06C06081E7
S1130BA0718180E090E00E5F1F4FA3010E94FE0759
S1130BB0882E8618FB2DFF773F2E36FE0DC0232D81
S1130BC02E7FA22E891458F434FE0BC032FC09C0C7
S1130BD0832D8E7EA82E05C0B82CA32C03C0B82C60
S1130BE001C0B92CA4FE0FC0FE01E80DF11D8081E7
S1130BF0803321F49A2D997EA92E09C0A2FE06C045
S1130C00B394B39404C08A2D867809F0B394A3FCFA
S1130C1011C0A0FE06C0B21488F4280C922C9B18B4
S1130C200EC0B21460F4B60180E290E00E94C207E4
S1130C30B394F7CFB21418F42B1802C0982C212CBB
S1130C40A4FE10C0B60180E390E00E94C207A2FE99
S1130C5017C0A1FC03C088E790E002C088E590E0DB
S1130C60B6010CC08A2D867859F0A1FE02C08BE231
S1130C7001C080E2A7FC8DE2B60190E00E94C207A9
S1130C80891438F4B60180E390E00E94C2079A9474
S1130C90F7CF8A94F301E80DF11D8081B60190E04D
S1130CA00E94C2078110F5CF222009F442CEB6017A
S1130CB080E290E00E94C2072A94F6CFF601868172
S1130CC0978102C08FEF9FEF2B96E2E10C94780896
S1130CD00F931F93CF93DF93869F8001879F100DFF
S1130CE0969F100D1124C8010E948406EC01009700
S1130CF029F0A80160E070E00E94B007CE01DF9106
S1130D00CF911F910F9108950F931F93CF93DF936A
S1130D108230910510F482E090E0E0911603F091A6
S1130D20170320E030E0A0E0B0E0309719F14081F3
S1130D3051810281138148175907C8F08417950718
S1130D4069F4109731F012960C93129713961C9332
S1130D5027C0009316031093170322C021153105F1
S1130D6019F04217530718F49A01BD01EF01DF018E
S1130D70F801DBCF21153105F9F0281B390B24309C
S1130D80310580F48A819B816115710521F0FB0195
S1130D909383828304C09093170380931603FE0108
S1130DA0329644C0FE01E20FF31F819391932250C7
S1130DB03109398328833AC02091140330911503F3
S1130DC0232B41F420910201309103013093150348
S1130DD02093140320910001309101012115310564
S1130DE041F42DB73EB74091040150910501241BF5
S1130DF0350BE0911403F0911503E217F307A0F407
S1130E002E1B3F0B2817390778F0AC014E5F5F4F5C
S1130E102417350748F04E0F5F1F50931503409376
S1130E2014038193919302C0E0E0F0E0CF01DF91DD
S1130E30CF911F910F910895CF93DF93009709F4F9
S1130E4081C0FC01329713821282A0911603B091E3
S1130E501703109781F420813181820F931F209111
S1130E601403309115032817390751F5F09315032E
S1130E70E093140367C0ED0120E030E0CE17DF07F4
S1130E8040F44A815B819E0141155105F1F0EA016C
S1130E90F5CFD383C28340815181840F951FC81736
S1130EA0D90759F488819981840F951F02969183FB
S1130EB080838A819B81938382832115310529F460
S1130EC0F0931703E09316033DC0E901FB83EA8323
S1130ED049915991C40FD51FEC17FD0761F4808126
S1130EE09181840F951F0296E901998388838281F9
S1130EF093819B838A83E0E0F0E012968D919C912C
S1130F001397009719F0FD01DC01F7CF8D919C91A7
S1130F1011979D012E5F3F4F820F931F2091140361
S1130F20309115032817390769F4309729F4109282
S1130F3017031092160302C013821282B093150392
S1130F40A0931403DF91CF910895FC0105906150A3
S1130F5070400110D8F7809590958E0F9F1F0895CB
S1130F60DC0101C06D9341505040E0F70895FC014D
S1130F706150704001900110D8F7809590958E0FC4
S1130F809F1F08950F931F93CF93DF93FB0123813A
S1130F9021FD03C08FEF9FEF2CC022FF16C04681B6
S1130FA05781248135814217530744F4A081B181CC
S1130FB09D012F5F3F4F318320838C93268137819E
S1130FC02F5F3F4F3783268314C08B01EC01FB0155
S1130FD00084F185E02D0995892BE1F6D801169658
S1130FE08D919C911797019617969C938E931697C3
S1130FF0CE01DF91CF911F910F910895FA01AA2795
S1131000283051F1203181F1E8946F936E7F6E5F47
S11310107F4F8F4F9F4FAF4FB1E03ED0B4E03CD0F5
S1131020670F781F891F9A1FA11D680F791F8A1FD8
S1131030911DA11D6A0F711D811D911DA11D20D03F
S113104009F468943F912AE0269F11243019305DF9
S11310503193DEF6CF010895462F4770405D4193EA
S1131060B3E00FD0C9F7F6CF462F4F70405D4A3337
S113107018F0495D31FD4052419302D0A9F7EACFFF
S1131080B4E0A6959795879577956795BA95C9F72E
S113109000976105710508959B01AC010A2E069421
S11310A05795479537952795BA95C9F7620F731FDA
S11310B0841F951FA01D08952F923F924F925F9217
S11310C06F927F928F929F92AF92BF92CF92DF9254
S11310D0EF92FF920F931F93CF93DF93CDB7DEB7B9
S11310E0CA1BDB0B0FB6F894DEBF0FBECDBF09944D
S11310F02A88398848885F846E847D848C849B84A4
S1131100AA84B984C884DF80EE80FD800C811B81B1
S1131110AA81B981CE0FD11D0FB6F894DEBF0FBEE0
S10D1120CDBFED010895F894FFCF50
S113112A0000180320003C43414E20697320726575
S113113A6164793E005472616E736D697474206ED1
S113114A6F74207265616479004D657373616765B4
S113115A20686173206265656E207472616E736DB6
S113116A6974746564004D6573736167652072659B
S113117A63656976656421003C4D435032353135E7
S113118A206973204E4F5420696E20636F6E66691E
S113119A6775726174696F6E206D6F64652061662C
S11311AA746572207265736574213E003C4D435028
S11311BA32353135206973204E4F5420696E2074BC
S11311CA68652073656C6563746564206D6F646516
S11311DA213E003C4D435032353135206973206934
S11311EA6E2020206E6F726D616C2020206D6F64FA
S11311FA652E3E003C4D435032353135206973200B
S113120A696E202020736C6565702020206D6F64E0
S113121A652E3E003C4D43503235313520697320EA
S113122A696E2020206C6F6F706261636B202020CE
S113123A6D6F64652E3E003C4D4350323531352086
S113124A697320696E2020206C697374656E206F3F
S113125A6E6C792020206D6F64652E3E004D4350DC
S113126A3235313520697320696E202020636F6E10
S113127A6669672020206D6F64652E004D435032E5
S113128A35313520697320696E202020706F7765A7
S113129A722075702020206D6F64652E002D2D2D0F
S11312AA20486F6D65202D2D2D00506C6179004802
S11312BA69676873636F72650041626F757400577A
S11312CA454C434F4D4521002A454E54455220472B
S11312DA414D452A00504C41592073656C6563742D
S11312EA6564004849474853434F52452073656C27
S11312FA65637465640041424F55542073656C6597
S113130A63746564004572726F722C206E6F207369
S113131A7563682073656C656374696F6E003C5508
S111132A4152542069732072656164793E005B
S9030000FC
