S00D00004E6F6465322E737265635F
S113000071C000008EC000008CC000008AC00000D7
S113001088C0000086C0000084C0000082C00000C8
S113002080C000007EC000007CC000007AC00000D8
S113003078C0000076C0000074C0000072C00000E8
S113004070C000006EC000006CC000006AC00000F8
S113005068C0000066C0000064C0000062C0000008
S113006060C000005EC000005CC000005AC0000018
S113007058C0000056C0000054C0000052C0000028
S113008050C000004EC000004CC000004AC0000038
S113009048C0000046C0000044C0000042C0000048
S11300A040C000003EC000003CC000003AC0000058
S11300B038C0000036C0000034C0000032C0000068
S11300C030C000002EC000002CC000002AC0000078
S11300D028C0000026C0000024C0000022C0000088
S11300E020C0000011241FBECFEFD1E2DEBFCDBF80
S11300F000E00CBF12E0A0E0B2E0E2E0F5E000E0D6
S11301000BBF02C007900D92AC31B107D9F722E0C2
S1130110ACE1B2E001C01D92A632B207E1F702D011
S1130120EEC16ECF0DD0C6E0D2E08C2F23D0FDCF30
S1130130E0ECF0E080818823ECF78091C60008951C
S11301401092C5008FE18093C40088E18093C100C0
S11301508EE08093C20068E970E08AEB90E013D0EF
S11301608BE092E05AC008958091C00085FB8827F7
S113017080F90895CF93C82FF7DF8823E9F3C0935C
S1130180C600CF9108950F931F93CF93DF930097E9
S113019031F46115710519F480E090E039C08B01E8
S11301A0EC016EE070E081E090E067D0FC01892B07
S11301B099F380E883830115110571F01387028791
S11301C081E8838380911C0290911D02892B21F484
S11301D0F0931D02E0931C022097C9F0D187C087D9
S11301E083818260838380911E0290911F02892BF8
S11301F071F4F0931F02E0931E028091200290910B
S11302002102892B21F4F0932102E0932002CF01F3
S1130210DF91CF911F910F9108950F931F93CF9367
S1130220DF93E0911E02F0911F02238121FF1BC086
S11302308C01D0E0C0E0F80181918F0160911E0231
S113024070911F02DB011896ED91FC911997882398
S113025031F01995892B79F3DFEFCFEFECCF8AE0FA
S11302601995892B19F08FEF9FEF02C08D2F9C2FCA
S1130270DF91CF911F910F9108950F931F93CF9307
S1130280DF93869F8001879F100D969F100D112488
S1130290C8010DD0EC01009721F0A80160E070E0E6
S11302A027D1CE01DF91CF911F910F9108950F9324
S11302B01F93CF93DF938230910510F482E090E096
S11302C0E0912402F091250220E030E0A0E0B0E0CB
S11302D0309719F1408151810281138148175907E0
S11302E0C8F08417950769F4109731F012960C93AF
S11302F0129713961C9327C000932402109325028F
S113030022C02115310519F04217530718F49A0138
S1130310BD01EF01DF01F801DBCF21153105F9F053
S1130320281B390B2430310580F48A819B816115A7
S1130330710521F0FB019383828304C0909325020D
S113034080932402FE01329644C0FE01E20FF31FA3
S11303508193919322503109398328833AC02091A3
S1130360220230912302232B41F420910202309186
S11303700302309323022093220220910002309141
S113038001022115310541F42DB73EB74091040215
S113039050910502241B350BE0912202F0912302B7
S11303A0E217F307A0F42E1B3F0B2817390778F048
S11303B0AC014E5F5F4F2417350748F04E0F5F1FA7
S11303C050932302409322028193919302C0E0E070
S11303D0F0E0CF01DF91CF911F910F910895CF935A
S11303E0DF93009709F481C0FC01329713821282D3
S11303F0A0912402B0912502109781F420813181CB
S1130400820F931F2091220230912302281739076B
S113041051F5F0932302E093220267C0ED0120E03E
S113042030E0CE17DF0740F44A815B819E0141151D
S11304305105F1F0EA01F5CFD383C28340815181A4
S1130440840F951FC817D90759F488819981840F9F
S1130450951F0296918380838A819B8193838283F3
S11304602115310529F4F0932502E09324023DC0BF
S1130470E901FB83EA8349915991C40FD51FEC1715
S1130480FD0761F480819181840F951F0296E90133
S113049099838883828193819B838A83E0E0F0E05F
S11304A012968D919C911397009719F0FD01DC0130
S11304B0F7CF8D919C9111979D012E5F3F4F820F35
S11304C0931F20912202309123022817390769F4DF
S11304D0309729F4109225021092240202C013824C
S11304E01282B0932302A0932202DF91CF91089548
S11304F0DC0101C06D9341505040E0F70895F89439
S1050500FFCF27
S11305020000260220003132330A003C5553415286
S10F0512542069732072656164793E0016
S9030000FC
