:1000000071C000008FC000008DC000008BC00000D8
:1000100089C0000087C0000085C0000083C00000C8
:1000200081C000007FC000007DC000007BC00000D8
:1000300079C0000077C0000075C0000073C00000E8
:1000400071C000006FC000006DC000006BC00000F8
:1000500069C0000067C0000065C0000063C0000008
:1000600061C000005FC000005DC000005BC0000018
:1000700059C0000057C0000055C0000053C0000028
:1000800051C000004FC000004DC000004BC0000038
:1000900049C0000047C0000045C0000043C0000048
:1000A00041C000003FC000003DC000003BC0000058
:1000B00039C0000037C0000035C0000033C0000068
:1000C00031C000002FC000002DC000002BC0000078
:1000D00029C0000027C0000025C0000023C0000088
:1000E00021C0000011241FBECFEFD1E2DEBFCDBF83
:1000F00000E00CBF12E0A0E0B2E0ECE2F2E100E0D0
:100100000BBF02C007900D92A436B107D9F722E0C9
:10011000A4E6B2E001C01D92AE36B207E1F703D00B
:100120000C9414096DCFCF93DF93CDB7DEB72B9727
:100130000FB6F894DEBF0FBECDBFBCD178D1CE01D3
:1001400001960BD089819A810A97C9F76C8170E07A
:1001500080E090E0D4D272D1F2CF7F928F929F92C2
:10016000AF92BF92CF92DF92EF92FF920F931F93C5
:10017000CF93DF93CDB7DEB763970FB6F894DEBFAA
:100180000FBECDBF4C018CE290E07FD080FD06C059
:100190008BE0D4011D928A95E9F75EC0FE0131968D
:1001A0008BE0DF011D928A95E9F781E690E06DD042
:1001B0005C0182E690E069D0BB24AA0CBB1CAA0CAF
:1001C000BB1CAA0CBB1C9595879595958795959515
:1001D00087959595879595958795A80EB11C85E689
:1001E00090E053D08F70782EB8E0B81718F4689468
:1001F000772473F888E0E2E1F2E0DE011C960190DA
:100200000D928A95E1F77720A9F08E01045F1F4FC8
:100210007E01E4E0EE0EF11C6801C70CD11CD80190
:100220008D918D0190E031D0F70181937F010C1504
:100230001D05A9F740E050E061E070E08CE290E03D
:1002400031D0BA82A9827B828BE0FE013196D40143
:1002500001900D928A95E1F7C40163960FB6F89468
:10026000DEBF0FBECDBFDF91CF911F910F91FF90E9
:10027000EF90DF90CF90BF90AF909F908F907F9046
:1002800008952F9808952F9A0895CF93C82FF9DFD6
:1002900083E0FCD08C2FFAD0FED0C82FF4DF8C2F57
:1002A000CF9108951F93CF93DF93182FD62FC42F8C
:1002B000E8DF85E0EBD0812FE9D08D2FE7D08C2FC0
:1002C000E5D0E1DFDF91CF911F910895CF92DF92CA
:1002D000EF92FF92CF93DF936B017C01E1E8F0E0B6
:1002E00080818460808380818D7F808380818E7F08
:1002F00080836091060270910702809108029091BC
:100300000902FDD1A7019601B0D2C8D1C62FD72FBF
:10031000862F9D2F909387008093860080910902FD
:100320008F93809108028F93809107028F93809121
:1003300006028F938AE192E09F938F9343D3DF93DA
:10034000CF9384E292E09F938F933CD38DB79EB777
:100350000A960FB6F8949EBF0FBE8DBFDF91CF9166
:10036000FF90EF90DF90CF900895E1E8F0E080817A
:1003700080618083808188608083E0E8F0E0808114
:100380008260808380818E7F80838081806880838B
:1003900080818F7B8083259A2D986AE077ED83EAB0
:1003A0009CE394CF08950F931F93CF93DF9320E0A6
:1003B00030E04EEF52E40AD121E539E44DE15AE351
:1003C00054D22AEF3DEE4BE65AE398D0C62FD72FF2
:1003D000182F092F60910602709107028091080280
:1003E000909109028CD12C2F3D2F412F502F3DD2BF
:1003F00055D1862F972F90938900809388007F9303
:100400006F930F931F93DF93CF9385E392E09F93B6
:100410008F93D8D28DB79EB708960FB6F8949EBF2B
:100420000FBE8DBFDF91CF911F910F9108959DDF7A
:1004300060E070E08FEF92E4B6CF0895CF92DF9244
:10044000EF92FF926B017C0120E030E04FE753E434
:1004500008D2181634F460E070E08FE793E4A3DF6D
:1004600010C020E030E0A901C701B601ABD088235D
:100470002CF460E070E0CB0196DF03C0C701B60149
:1004800092DFFF90EF90DF90CF9008958EBD0DB476
:1004900007FEFDCF089580E0F9DF0DB407FEFDCF24
:1004A0008EB50895E0ECF0E080818823ECF7809130
:1004B000C60008951092C50087E68093C40088E1C5
:1004C0008093C1008EE08093C20062E572E084E711
:1004D00092E02ED283E592E088C208958091C00018
:1004E00085FB882780F90895CF93C82FF7DF8823ED
:1004F000E9F3C093C600CF9108955058BB27AA27AF
:100500000ED075C166D130F06BD120F031F49F3F31
:1005100011F41EF45BC10EF4E095E7FB51C1E92F25
:1005200077D180F3BA17620773078407950718F02D
:1005300071F49EF58FC10EF4E0950B2EBA2FA02D0D
:100540000B01B90190010C01CA01A0011124FF2780
:10055000591B99F0593F50F4503E68F11A16F0407B
:10056000A22F232F342F4427585FF3CF469537957A
:100570002795A795F0405395C9F77EF41F16BA0B3F
:10058000620B730B840BBAF09150A1F0FF0FBB1FED
:10059000661F771F881FC2F70EC0BA0F621F731F36
:1005A000841F48F4879577956795B795F7959E3F93
:1005B00008F0B3CF9395880F08F09927EE0F979521
:1005C00087950895D9D008F481E008950CD00FC123
:1005D00007D140F0FED030F021F45F3F19F0F0C0B9
:1005E000511139C1F3C014D198F39923C9F355239C
:1005F000B1F3951B550BBB27AA2762177307840716
:1006000038F09F5F5F4F220F331F441FAA1FA9F3CB
:1006100033D00E2E3AF0E0E830D091505040E695BD
:10062000001CCAF729D0FE2F27D0660F771F881F1E
:10063000BB1F261737074807AB07B0E809F0BB0B0D
:10064000802DBF01FF2793585F4F2AF09E3F510531
:1006500068F0B6C000C15F3FECF3983EDCF38695CE
:1006600077956795B795F7959F5FC9F7880F911DA7
:100670009695879597F90895E1E0660F771F881F93
:10068000BB1F621773078407BA0720F0621B730B46
:10069000840BBA0BEE1F88F7E095089504D0689498
:1006A000B111D9C00895BCD088F09F5790F0B92FF0
:1006B0009927B751A0F0D1F0660F771F881F991FB7
:1006C0001AF0BA95C9F712C0B13081F0C3D0B1E0C9
:1006D0000895C0C0672F782F8827B85F39F0B93FD9
:1006E000CCF3869577956795B395D9F73EF49095B9
:1006F0008095709561957F4F8F4F9F4F0895E89437
:1007000009C097FB3EF490958095709561957F4F59
:100710008F4F9F4F9923A9F0F92F96E9BB27939507
:10072000F695879577956795B795F111F8CFFAF417
:10073000BB0F11F460FF1BC06F5F7F4F8F4F9F4F48
:1007400016C0882311F096E911C0772321F09EE8A6
:10075000872F762F05C0662371F096E8862F70E00C
:1007600060E02AF09A95660F771F881FDAF7880FE6
:100770009695879597F90895990F0008550FAA0B3C
:10078000E0E8FEEF16161706E807F907C0F01216A4
:100790001306E407F50798F0621B730B840B950BA7
:1007A00039F40A2661F0232B242B252B21F40895FC
:1007B0000A2609F4A140A6958FEF811D811D089599
:1007C00097F99F6780E870E060E008959FEF80EC04
:1007D000089500240A9416161706180609060895A7
:1007E00000240A9412161306140605060895092E0D
:1007F0000394000C11F4882352F0BB0F40F4BF2B7C
:1008000011F460FF04C06F5F7F4F8F4F9F4F0895BB
:1008100057FD9058440F551F59F05F3F71F04795B1
:10082000880F97FB991F61F09F3F79F08795089596
:10083000121613061406551FF2CF4695F1DF08C0B5
:10084000161617061806991FF1CF869571056105D2
:1008500008940895E894BB2766277727CB0197F97A
:1008600008958ADF08F48FEF08950BD0C0CFB1DF71
:1008700028F0B6DF18F0952309F0A2CFA7CF1124F6
:10088000EACFC6DFA0F3959FD1F3950F50E0551F37
:10089000629FF001729FBB27F00DB11D639FAA27D5
:1008A000F00DB11DAA1F649F6627B00DA11D661F24
:1008B000829F2227B00DA11D621F739FB00DA11D45
:1008C000621F839FA00D611D221F749F3327A00DFF
:1008D000611D231F849F600D211D822F762F6A2F9B
:1008E00011249F5750408AF0E1F088234AF0EE0F20
:1008F000FF1FBB1F661F771F881F91505040A9F72D
:100900009E3F510570F05CCFA6CF5F3FECF3983E61
:10091000DCF3869577956795B795F795E7959F5F93
:10092000C1F7FE2B880F911D9695879597F908952D
:100930000F931F93CF93DF93009731F461157105E7
:1009400019F480E090E039C08B01EC016EE070E0BA
:1009500081E090E077D2FC01892B99F380E88383D2
:100960000115110571F01387028781E88383809157
:10097000640290916502892B21F4F0936502E09363
:1009800064022097C9F0D187C08783818260838306
:100990008091660290916702892B71F4F09367024F
:1009A000E09366028091680290916902892B21F49C
:1009B000F0936902E0936802CF01DF91CF911F911C
:1009C0000F910895CF93DF93CDB7DEB7AE014A5FA5
:1009D0005F4FFA0161917191AF0180916602909130
:1009E000670233D0DF91CF9108950F931F93CF9378
:1009F000DF93E0916602F0916702238121FF1BC023
:100A00008C01D0E0C0E0F80181918F016091660215
:100A100070916702DB011896ED91FC91199788237C
:100A200031F01995892B79F3DFEFCFEFECCF8AE026
:100A30001995892B19F08FEF9FEF02C08D2F9C2FF6
:100A4000DF91CF911F910F9108952F923F924F9276
:100A50005F926F927F928F929F92AF92BF92CF924E
:100A6000DF92EF92FF920F931F93CF93DF93CDB757
:100A7000DEB72B970FB6F894DEBF0FBECDBF6C016B
:100A80007B018A01FC0117821682838181FFBFC12D
:100A9000CE0101963C01F6019381F70193FD85910A
:100AA00093FF81917F01882309F4ADC1853239F428
:100AB00093FD859193FF81917F01853221F4B601E9
:100AC00090E018D3E8CF912C212C312CFFE1F315C5
:100AD000D8F08B3279F038F4803279F08332A1F497
:100AE000232D20611DC08D3261F0803369F4232DE8
:100AF000216016C0832D8260382EE32DE4603E2EE7
:100B00002AC0F32DF8601DC037FC2DC020ED280F42
:100B10002A3040F08E32B9F436FC75C1232D2064A2
:100B2000322E19C036FE06C08AE0989E200D112490
:100B3000922E11C0EAE02E9E200D1124222EF32DBC
:100B4000F0623F2E08C08C3621F4832D8068382E49
:100B500002C0883641F4F70193FD859193FF81919E
:100B60007F018111B3CF982F9F7D9554933028F446
:100B70000C5F1F4F9FE399830DC0833631F083379D
:100B800071F0833509F055C020C0F8018081898358
:100B90000E5F1F4F88248394912C530112C02801AB
:100BA000F2E04F0E511CF801A080B18036FE03C068
:100BB000692D70E002C06FEF7FEFC50190D24C014C
:100BC0008201F32DFF773F2E15C0280122E0420E4F
:100BD000511CF801A080B18036FE03C0692D70E081
:100BE00002C06FEF7FEFC50168D24C01F32DF068B2
:100BF0003F2E820133FC19C0822D90E088169906A1
:100C0000A0F4B60180E290E075D22A94F5CFF50108
:100C100037FC859137FE81915F01B60190E06AD281
:100C200021102A9421E0821A91088114910479F705
:100C3000E1C0843611F0893639F5F80137FE07C076
:100C400060817181828193810C5F1F4F08C0608138
:100C50007181072E000C880B990B0E5F1F4FF32D2F
:100C6000FF763F2E97FF09C090958095709561950E
:100C70007F4F8F4F9F4FF0683F2E2AE030E0A30157
:100C800075D2882E861844C0853731F4232D2F7EE7
:100C9000B22E2AE030E025C0932D997FB92E8F36F1
:100CA000C1F018F4883579F0AEC0803719F0883774
:100CB00021F0A9C0E92FE061BE2EB4FE0DC0FB2DCE
:100CC000F460BF2E09C034FE0AC0292F2660B22E60
:100CD00006C028E030E005C020E130E002C020E19D
:100CE00032E0F801B7FE07C0608171818281938193
:100CF0000C5F1F4F06C06081718180E090E00E5F45
:100D00001F4FA30133D2882E8618FB2DFF773F2E6D
:100D100036FE0DC0232D2E7FA22E891458F434FEEA
:100D20000BC032FC09C0832D8E7EA82E05C0B82CC6
:100D3000A32C03C0B82C01C0B92CA4FE0FC0FE0127
:100D4000E80DF11D8081803321F49A2D997EA92E22
:100D500009C0A2FE06C0B394B39404C08A2D86785D
:100D600009F0B394A3FC10C0A0FE06C0B21480F436
:100D7000280C922C9B180DC0B21458F4B60180E2D6
:100D800090E0B8D1B394F8CFB21418F42B1802C085
:100D9000982C212CA4FE0FC0B60180E390E0AAD1CC
:100DA000A2FE16C0A1FC03C088E790E002C088E55F
:100DB00090E0B6010CC08A2D867851F0A1FE02C0E9
:100DC0008BE201C080E2A7FC8DE2B60190E092D1F7
:100DD000891430F4B60180E390E08CD19A94F8CF76
:100DE0008A94F301E80DF11D8081B60190E082D173
:100DF0008110F6CF222009F44ECEB60180E290E0B9
:100E000079D12A94F7CFF6018681978102C08FEFBE
:100E10009FEF2B960FB6F894DEBF0FBECDBFDF91CC
:100E2000CF911F910F91FF90EF90DF90CF90BF90E7
:100E3000AF909F908F907F906F905F904F903F907A
:100E40002F9008950F931F93CF93DF93869F800178
:100E5000879F100D969F100D1124C8010DD0EC0135
:100E6000009721F0A80160E070E032D1CE01DF915F
:100E7000CF911F910F9108950F931F93CF93DF93FD
:100E80008230910510F482E090E0E0916C02F091E4
:100E90006D0220E030E0A0E0B0E0309719F1408131
:100EA00051810281138148175907C8F084179507AB
:100EB00069F4109731F012960C93129713961C93C5
:100EC00027C000936C0210936D0222C021153105DA
:100ED00019F04217530718F49A01BD01EF01DF0121
:100EE000F801DBCF21153105F9F0281B390B24302F
:100EF000310580F48A819B816115710521F0FB0128
:100F00009383828304C090936D0280936C02FE01F0
:100F1000329644C0FE01E20FF31F81939193225059
:100F20003109398328833AC020916A0230916B02DB
:100F3000232B41F4209102023091030230936B0283
:100F400020936A022091000230910102211531059F
:100F500041F42DB73EB74091040250910502241B85
:100F6000350BE0916A02F0916B02E217F307A0F4EF
:100F70002E1B3F0B2817390778F0AC014E5F5F4FEF
:100F80002417350748F04E0F5F1F50936B024093B4
:100F90006A028193919302C0E0E0F0E0CF01DF911B
:100FA000CF911F910F910895CF93DF93009709F48C
:100FB00081C0FC01329713821282A0916C02B09121
:100FC0006D02109781F420813181820F931F20914F
:100FD0006A0230916B022817390751F5F0936B02C2
:100FE000E0936A0267C0ED0120E030E0CE17DF0732
:100FF00040F44A815B819E0141155105F1F0EA01FF
:10100000F5CFD383C28340815181840F951FC817C8
:10101000D90759F488819981840F951F029691838D
:1010200080838A819B81938382832115310529F4F2
:10103000F0936D02E0936C023DC0E901FB83EA830B
:1010400049915991C40FD51FEC17FD0761F48081B8
:101050009181840F951F0296E9019983888382818B
:1010600093819B838A83E0E0F0E012968D919C91BE
:101070001397009719F0FD01DC01F7CF8D919C913A
:1010800011979D012E5F3F4F820F931F20916A029F
:1010900030916B022817390769F4309729F41092C0
:1010A0006D0210926C0202C013821282B0936B0226
:1010B000A0936A02DF91CF910895FC0105906150E1
:1010C00070400110D8F7809590958E0F9F1F08955E
:1010D000DC0101C06D9341505040E0F70895FC01E0
:1010E0006150704001900110D8F7809590958E0F57
:1010F0009F1F08950F931F93CF93DF93FB012381CD
:1011000021FD03C08FEF9FEF2CC022FF16C0468148
:101110005781248135814217530744F4A081B1815E
:101120009D012F5F3F4F318320838C932681378130
:101130002F5F3F4F3783268314C08B01EC01FB01E7
:101140000084F185E02D1995892BE1F6D8011696DA
:101150008D919C911797019617969C938E93169755
:10116000CE01DF91CF911F910F910895FA01AA2727
:10117000283051F1203181F1E8946F936E7F6E5FDA
:101180007F4F8F4F9F4FAF4FB1E03ED0B4E03CD088
:10119000670F781F891F9A1FA11D680F791F8A1F6B
:1011A000911DA11D6A0F711D811D911DA11D20D0D2
:1011B00009F468943F912AE0269F11243019305D8C
:1011C0003193DEF6CF010895462F4770405D41937D
:1011D000B3E00FD0C9F7F6CF462F4F70405D4A33CA
:1011E00018F0495D31FD4052419302D0A9F7EACF92
:1011F000B4E0A6959795879577956795BA95C9F7C1
:1012000000976105710508959B01AC010A2E0694B3
:101210005795479537952795BA95C9F7620F731F6C
:0C122000841F951FA01D0895F894FFCFB7
:10122C0000006E02200024F40000363738393A3BB7
:10123C003C3D666768696A6B6C6D667265713A20D5
:10124C0025640A00706572696F645F63616C633A50
:10125C002025640A0070756C73655F776964746827
:10126C003A20252E32660A204F435231413A20252E
:10127C00640A003C555341525420697320726561D5
:04128C0064793E0043
:00000001FF
