:10000000C2C00000E0C00000DEC000005BC3000012
:10001000DAC00000D8C00000D6C00000D4C0000084
:10002000D2C00000D0C00000CEC00000CCC0000094
:10003000CAC00000C8C00000C6C0000019C300004C
:10004000C2C00000C0C00000BEC00000BCC00000B4
:1000500005C30000B8C00000B6C00000D6C2000052
:10006000B2C00000B0C00000AEC00000ACC00000D4
:10007000AAC00000A8C00000A6C00000A4C00000E4
:10008000A2C00000A0C000009EC000009CC00000F4
:100090009AC0000098C0000096C000005FC7000032
:1000A00092C0000090C000008EC000008CC0000014
:1000B0008AC0000088C0000086C0000084C0000024
:1000C00082C0000080C000007EC000007CC0000034
:1000D0007AC0000078C0000076C0000074C0000044
:1000E00072C00000CC071E081E081E081E081E084D
:1000F0001E081E08CC071E081E081E081E081E0823
:100100001E081E08CE071E081E081E081E081E0810
:100110001E081E081E081E081E081E081E081E08AF
:100120001E081E08CE071E081E081E081E081E08F0
:100130001E081E081E081E081E081E081E081E088F
:100140001E081E081A081E081E081E081E081E0883
:100150001E081E08F7071E081E081E081E081E0897
:100160001E081E081E081E081E081E081E081E085F
:100170001E081E08EB071E081E081E081E081E0883
:100180001E081E08090811241FBECFEFD1E2DEBFF2
:10019000CDBF00E00CBF15E0A0E0B2E0E0E0FEE182
:1001A00000E00BBF02C007900D92AA3DB107D9F73E
:1001B00026E0AAEDB5E001C01D92A730B207E1F735
:1001C000CCD00C94FE0E1CCFFF920F931F93CF93B5
:1001D000DF93CDB7DEB766970FB6F894DEBF0FBEDC
:1001E000CDBFCE01019670D109811A81FC8080912A
:1001F000DA05811117C08FE192E00E94DF0A013019
:10020000110531F429E4F21203C081E08093DA058C
:100210008FEF90E7A2E081509040A040E1F700C04E
:1002200000008FC0813041F582E392E00E94DF0A36
:10023000CE010C962BE0FC0111922A95E9F722E001
:1002400030E03D872C8721E02E8722E52F87D1D013
:10025000FFEF21EE84E0F15020408040E1F700C044
:1002600000000530110509F06CC093E5F91269C072
:1002700082E08093DA0565C08230A1F585E492E0E2
:100280000E94DF0A0A30110511F56F2D70E080E041
:1002900090E00E946109DCD5B5D1882331F056D5B4
:1002A000182F57D5612FDAD3AAD18A85813079F4F6
:1002B0008BE592E00E94DF0AF9D5AFEFB0E7E2E00C
:1002C000A150B040E040E1F700C00000F1D56FD090
:1002D000892BB9F184E792E00E94DF0A83E08093E2
:1002E000DA052FC0833039F588E892E00E94DF0AF2
:1002F000FE013C968BE0DF011D928A95E9F783E0D1
:1003000090E09D878C8781E08E8787E48F870AE065
:1003100010E0CE010C966DD0BFEFE3ECF9E0B150E8
:10032000E040F040E1F700C000000150110989F7FA
:100330001092DA0506C08FE992E00E94DF0A10925F
:10034000DA0566960FB6F894DEBF0FBECDBFDF911B
:10035000CF911F910F91FF9008958ED60CD0A0D50C
:1003600080E02ED06BD5C2D525D38DEA92E00E94D5
:10037000DF0A2ADFFECF87ED92E00E94DF0AECE77A
:10038000F0E0808181648083EAE7F0E0808180682A
:1003900080830895EAE7F0E0808180648083808133
:1003A00086FDFDCF80917800909179000895F2DF6D
:1003B00021E030E0889710F020E030E0C901089596
:1003C000CF93C82F89EE92E09F938F930E94CC0A1F
:1003D0008C2F0CD24FEF63E08BE2A5D260E08CE271
:1003E000F6D14FEF68E080E39ED20F900F90CF914F
:1003F0000895AF92BF92CF92DF92EF92FF920F9348
:100400001F93CF93DF93CDB7DEB728970FB6F8943D
:10041000DEBF0FBECDBF6C014FEF68E080E383D23B
:1004200040E06CE18CE27FD2F60140814295440FBE
:10043000407E60EE82E377D2F6016081718176952D
:100440006795769567957695679581E3C0D1F601B6
:10045000628185E3BCD188E0EFE0F2E0DE01119635
:1004600001900D928A95E1F7F60182818823C9F007
:100470007601F3E0EF0EF11C8E010F5F1F4FA12CF0
:10048000B12CF70161917F01F80181918F019FD11A
:10049000FFEFAF1ABF0AF601828190E0A816B906F5
:1004A00084F381E838D228960FB6F894DEBF0FBEE9
:1004B000CDBFDF91CF911F910F91FF90EF90DF9013
:1004C000CF90BF90AF9008957F928F929F92AF92FE
:1004D000BF92CF92DF92EF92FF920F931F93CF9331
:1004E000DF93CDB7DEB763970FB6F894DEBF0FBECC
:1004F000CDBF4C018CE25ED180FD06C08BE0D40103
:100500001D928A95E9F750C0FE0131968BE0DF011C
:100510001D928A95E9F781E64DD1A82E82E64AD14F
:10052000B12CAA0CBB1CAA0CBB1CAA0CBB1C829530
:1005300086958770A80EB11C85E63CD18F70782E09
:10054000B8E0B81718F46894772473F888E0E7E106
:10055000F2E0DE011C9601900D928A95E1F777207A
:10056000A1F08E01045F1F4F7E01E4E0EE0EF11C4E
:100570006801C70CD11CD8018D918D011BD1F701E9
:1005800081937F010C151D05B1F740E061E08CE21D
:10059000CAD1BA82A9827B828BE0FE013196D40156
:1005A00001900D928A95E1F7C40163960FB6F89415
:1005B000DEBF0FBECDBFDF91CF911F910F91FF9096
:1005C000EF90DF90CF90BF90AF909F908F907F90F3
:1005D0000895089591C40895CF93DF9300D0CDB7C7
:1005E000DEB790E599831A828B8363E0CE01019692
:1005F00093D40F900F900F90DF91CF9108951092A8
:10060000DB0508958091DB0508951F920F920FB6C8
:100610000F9211240BB60F922F933F934F935F933A
:100620006F937F938F939F93AF93BF93EF93FF93BA
:1006300088EF92E0C4D7FF91EF91BF91AF919F9166
:100640008F917F916F915F914F913F912F910F907B
:100650000BBE0F900FBE0F901F9018951F920F9218
:100660000FB60F9211240F900FBE0F901F90189588
:100670001F920F920FB60F9211240BB60F922F9369
:100680003F934F935F936F937F938F939F93AF931A
:10069000BF93EF93FF9314D281E08093DB05FF912A
:1006A000EF91BF91AF919F918F917F916F915F91EA
:1006B0004F913F912F910F900BBE0F900FBE0F9057
:1006C0001F9018951F920F920FB60F9211240BB620
:1006D0000F920F931F932F933F934F935F936F93BB
:1006E0007F938F939F93AF93BF93EF93FF93CF939A
:1006F000DF93CDB7DEB72B97DEBFCDBF87E093E0AA
:100700005ED7CE010196E0DE1D810A8562DF898118
:100710009A810A9731F58E811F928F931F921F93B2
:100720008C811F928F9382E193E09F938F9334D7B4
:10073000612F70E080E090E0C4D58AD30FB6F894C2
:10074000DEBF0FBECDBF013079F4B0D39FEF20E7FD
:1007500082E0915020408040E1F700C00000A8D323
:1007600003C085E293E02BD72B960FB6F894DEBF3B
:100770000FBECDBFDF91CF91FF91EF91BF91AF91B0
:100780009F918F917F916F915F914F913F912F91A9
:100790001F910F910F900BBE0F900FBE0F901F90E7
:1007A00018952F9808952F9A0895FBDF80EC8BD32E
:1007B000FACF0895CF93C82FF4DF83E084D38C2F32
:1007C00082D386D3C82FEFDF8C2FCF910895CF939C
:1007D000DF93D82FC62FE5DF82E075D38D2F73D33B
:1007E0008C2F71D3E0DFDF91CF9108950F931F938A
:1007F000CF93DF9300D000D0CDB7DEB7182F5AD3F8
:100800008D819E81883E934050F48D819E8101961A
:100810009E838D838D819E81883E9340B0F3C5DF9A
:100820008B819C81883E934050F48B819C81019602
:100830009C838B838B819C81883E9340B0F38EE0B8
:10084000B9DF082F89819A81883E934050F48981CD
:100850009A8101969A83898389819A81883E9340FF
:10086000B0F31F920F938EE593E09F938F9394D6EE
:10087000007E0F900F900F900F90003829F08BE6BC
:1008800093E09DD601E03BC0612F8FE0A0DF8EE0BA
:1008900091DF082F007E011729F08FE993E08FD6B2
:1008A00001E02DC0011104C086EC93E088D627C07A
:1008B000003229F483EE93E082D600E020C00034B9
:1008C00029F48FEF93E07BD600E019C0003629F4BD
:1008D0008EE194E074D600E012C0003829F480E480
:1008E00094E06DD600E00BC0003E29F48BE594E067
:1008F00066D600E004C088E794E061D600E0802F6F
:1009000026960FB6F894DEBF0FBECDBFDF91CF9114
:100910001F910F910895CF93C82F43DF8C2FD3D20F
:1009200042DFCF9108951F93CF93DF93182FD62FD7
:10093000C42F37DF85E0C7D2812FC5D28D2FC3D218
:100940008C2FC1D230DFDF91CF911F910895E2E06B
:10095000F1E080818064808380818F7D80838081CD
:10096000877F808387EC90E00197F1F700C000005B
:10097000A6E0B1E02C9180818860808387EC90E0D4
:100980000197F1F700C000008C91908190629083F4
:1009900090E0922B0895E2E0F1E080818F7B8083EC
:1009A00087EE93E00197F1F700C00000808180643A
:1009B000808308950FDEE1E0F1E080818061808333
:1009C000A2E0B1E08C9180618C9380818260808311
:1009D0008081806280838081886080838081806460
:1009E00080838081826080838C9182608C938C91E3
:1009F00080648C938C9180628C931092070189E9BA
:100A000094E0DDD58BEA94E0DAD5C5DF86EB94E09F
:100A1000D6D59DDF9F938F9389EC94E09F938F931E
:100A2000BBD50F900F900F900F900895813051F02B
:100A300018F0823069F00895E2E0F1E080818D7F66
:100A400080830895E2E0F1E08081826080830895F0
:100A5000E2E0F1E080818D7F80830895CF93C62FFF
:100A6000813039F018F0823039F008C080E0DEDFE4
:100A700005C081E0DBDF02C082E0D8DF8C2FACDD77
:100A8000CF91089564DF99230CF44F96959587953F
:100A9000959587959595879595958795959587953E
:100AA0008093EF059093F0059F938F9381EE94E0F0
:100AB0009F938F9371D50F900F900F900F90089583
:100AC0004F925F926F927F928F929F92AF92BF925E
:100AD000CF92DF92EF92FF92D5DF8091ED0590915A
:100AE000EE052091EF053091F005821B930B90935A
:100AF000F4058093F3059F938F938CE795E09F9384
:100B00008F934AD56091F3057091F405CB01099656
:100B10000F900F900F900F90439748F41092E805B4
:100B20001092E9051092EA051092EB051DC0072E00
:100B3000000C880B990BC7D32AE037ED43EA5CE33E
:100B400076D49B01AC016091E8057091E905809134
:100B5000EA059091EB05B4D26093E8057093E9053E
:100B60008093EA059093EB056091E8057091E905A3
:100B70008091EA059091EB0573D37F936F938CE09E
:100B800095E09F938F9308D56091F3057091F405DC
:100B90008091F1059091F205681B790B072E000CEE
:100BA000880B990B90D32AE037ED43EA5CE3F0D24F
:100BB0006093E4057093E5058093E6059093E7055F
:100BC0004FD37F936F938AE195E09F938F93E4D403
:100BD0006091F3057091F405072E000C880B990BBA
:100BE00072D3209106023091070240910802509181
:100BF00009021DD46B017C012091E8053091E905C3
:100C00004091EA055091EB056091E0057091E10596
:100C10008091E2059091E3050AD44B015C0120919B
:100C2000E4053091E5054091E6055091E7056091B6
:100C3000DC057091DD058091DE059091DF05F7D32D
:100C40002B013C01A5019401C701B60139D2A301D2
:100C5000920136D20AD36093EC05C301B20100D3EE
:100C60007F936F93C501B401FBD27F936F93C7014C
:100C7000B601F6D27F936F938AE295E09F938F93AC
:100C80008BD48091EC051F928F938DE595E09F9317
:100C90008F9382D48091EC052DB73EB72C5E3F4FE9
:100CA0000FB6F8943EBF0FBE2DBF893C20F088ECF4
:100CB0008093EC050FC0823368F48091F305909126
:100CC000F4050996439718F41092EC0503C082E3EB
:100CD0008093EC058091F3059091F40518161906A0
:100CE0001CF41092FC0505C099231CF421E020930C
:100CF000FC059093F2058093F1058091EC051F921D
:100D00008F9388E695E09F938F9346D48091F20568
:100D10008F938091F1058F9383E795E09F938F9355
:100D20003BD48DB79EB708960FB6F8949EBF0FBE02
:100D30008DBFFF90EF90DF90CF90BF90AF909F90CE
:100D40008F907F906F905F904F9008958091EC0509
:100D500008958091FC050895CF92DF92EF92FF9263
:100D60006B017C01E1E8F0E0808184608083808118
:100D70008D7F808380818E7F808360910A02709155
:100D80000B0280910C0290910D029BD2A70196015B
:100D90004ED366D27093870060938600FF90EF90E9
:100DA000DF90CF900895E1E8F0E08081806180835A
:100DB000808188608083E0E8F0E0808182608083C9
:100DC00080818E7F808380818068808380818F7B1B
:100DD0008083259A2D986AE077ED83EA9CE3BCCF67
:100DE0000895CF92DF92EF92FF9220E030E04EEF35
:100DF00052E4CED121E539E44DE15AE318D32AEF8C
:100E00003DEE4BE65AE35CD16B017C0160910A0236
:100E100070910B0280910C0290910D0252D29B01B5
:100E2000AC01C701B60103D31BD270938900609354
:100E30008800FF90EF90DF90CF90089587E895E0CD
:100E4000BED3B1DF60E070E08FEF92E4CACF0895C7
:100E5000CF92DF92EF92FF926B017C0120E030E0B5
:100E60004FE753E4E0D2181634F460E070E08FE707
:100E700093E4B7DF10C020E030E0A901C701B6015C
:100E800083D188232CF460E070E0CB01AADF03C09B
:100E9000C701B601A6DFFF90EF90DF90CF900895D5
:100EA0008BE995E08CD3529A5A9808955A980895F0
:100EB0005A9A089584B1876884B9239881E58CBDD6
:100EC000289A2F9A08958EBD0DB407FEFDCF089580
:100ED00080E0F9DF0DB407FEFDCF8EB5089587E001
:100EE0008093B10081E080937000089582EB95E0DB
:100EF00066D3F5DF78940895E8EBF0E08CE080832A
:100F000080831092B900ECEBF0E084E080839FEFE7
:100F10009093BB0080830895DC01ECEBF0E09081BE
:100F200090FDFDCF6093F7058C918093F80580FDCF
:100F30000CC0623050F0FD013196A9EFB5E081E0C0
:100F400091919D938F5F6813FBCF1092F60588EF08
:100F500080930E0285EA8093BC0008951F920F9241
:100F60000FB60F9211240BB60F922F933F938F93CE
:100F70009F93AF93BF93EF93FF93E091B9008E2FB0
:100F800090E0FC013897E135F10508F057C088275B
:100F9000EE58FF4F8F4FAEC21092F505E091F50568
:100FA0008091F705E81770F481E08E0F8093F505C6
:100FB000F0E0E850FA4F80818093BB0085E8809391
:100FC000BC0043C08091F60581608093F60584E9FA
:100FD0008093BC003AC0E091F50581E08E0F8093CC
:100FE000F5058091BB00F0E0E850FA4F8083209136
:100FF000F50530E08091F70590E001972817390753
:1010000024F485EC8093BC0020C085E88093BC006C
:101010001CC08091BB00E091F505F0E0E850FA4F6C
:1010200080838091F60581608093F60584E9809342
:10103000BC000BC085EA8093BC0007C08091B9005A
:1010400080930E0284E08093BC00FF91EF91BF91EA
:10105000AF919F918F913F912F910F900BBE0F9069
:101060000FBE0F901F901895E0ECF0E08081882370
:10107000ECF78091C60008951092C50080E180933E
:10108000C40088E18093C1008EE08093C20064E3D5
:1010900078E086E598E036D288EC95E090C2089535
:1010A0008091C00085FB882780F90895CF93C82FD1
:1010B000F7DF8823E9F3C093C600CF910895505815
:1010C000BB27AA270ED075C166D130F06BD120F0B6
:1010D00031F49F3F11F41EF45BC10EF4E095E7FB81
:1010E00051C1E92F77D180F3BA17620773078407DC
:1010F000950718F071F49EF58FC10EF4E0950B2E54
:10110000BA2FA02D0B01B90190010C01CA01A00159
:101110001124FF27591B99F0593F50F4503E68F1B4
:101120001A16F040A22F232F342F4427585FF3CFF5
:10113000469537952795A795F0405395C9F77EF4C6
:101140001F16BA0B620B730B840BBAF09150A1F00F
:10115000FF0FBB1F661F771F881FC2F70EC0BA0F95
:10116000621F731F841F48F4879577956795B7951D
:10117000F7959E3F08F0B3CF9395880F08F0992715
:10118000EE0F979587950895D9D008F481E00895DA
:101190000CD00FC107D140F0FED030F021F45F3FFA
:1011A00019F0F0C0511139C1F3C014D198F399234B
:1011B000C9F35523B1F3951B550BBB27AA2762171B
:1011C0007307840738F09F5F5F4F220F331F441F60
:1011D000AA1FA9F333D00E2E3AF0E0E830D0915098
:1011E0005040E695001CCAF729D0FE2F27D0660F85
:1011F000771F881FBB1F261737074807AB07B0E8C4
:1012000009F0BB0B802DBF01FF2793585F4F2AF0D9
:101210009E3F510568F0B6C000C15F3FECF3983EB9
:10122000DCF3869577956795B795F7959F5FC9F736
:10123000880F911D9695879597F90895E1E0660FBF
:10124000771F881FBB1F621773078407BA0720F038
:10125000621B730B840BBA0BEE1F88F7E0950895A1
:1012600004D06894B111D9C00895BCD088F09F57BC
:1012700090F0B92F9927B751A0F0D1F0660F771FE2
:10128000881F991F1AF0BA95C9F712C0B13081F0C2
:10129000C3D0B1E00895C0C0672F782F8827B85F0A
:1012A00039F0B93FCCF3869577956795B395D9F723
:1012B0003EF490958095709561957F4F8F4F9F4F2D
:1012C0000895E89409C097FB3EF490958095709539
:1012D00061957F4F8F4F9F4F9923A9F0F92F96E982
:1012E000BB279395F695879577956795B795F111F7
:1012F000F8CFFAF4BB0F11F460FF1BC06F5F7F4F94
:101300008F4F9F4F16C0882311F096E911C07723A5
:1013100021F09EE8872F762F05C0662371F096E8AE
:10132000862F70E060E02AF09A95660F771F881F7D
:10133000DAF7880F9695879597F90895990F000821
:10134000550FAA0BE0E8FEEF16161706E807F90797
:10135000C0F012161306E407F50798F0621B730B32
:10136000840B950B39F40A2661F0232B242B252BB3
:1013700021F408950A2609F4A140A6958FEF811D56
:10138000811D089597F99F6780E870E060E00895F7
:101390009FEF80EC089500240A941616170618068D
:1013A0000906089500240A94121613061406050669
:1013B0000895092E0394000C11F4882352F0BB0FFA
:1013C00040F4BF2B11F460FF04C06F5F7F4F8F4F5D
:1013D0009F4F089557FD9058440F551F59F05F3F98
:1013E00071F04795880F97FB991F61F09F3F79F047
:1013F00087950895121613061406551FF2CF4695C9
:10140000F1DF08C0161617061806991FF1CF86954A
:101410007105610508940895E894BB27662777272E
:10142000CB0197F908958ADF08F48FEF08950BD068
:10143000C0CFB1DF28F0B6DF18F0952309F0A2CFB6
:10144000A7CF1124EACFC6DFA0F3959FD1F3950F64
:1014500050E0551F629FF001729FBB27F00DB11D38
:10146000639FAA27F00DB11DAA1F649F6627B00DC8
:10147000A11D661F829F2227B00DA11D621F739FB1
:10148000B00DA11D621F839FA00D611D221F749FBF
:101490003327A00D611D231F849F600D211D822F06
:1014A000762F6A2F11249F5750408AF0E1F088234D
:1014B0004AF0EE0FFF1FBB1F661F771F881F91505A
:1014C0005040A9F79E3F510570F05CCFA6CF5F3F1B
:1014D000ECF3983EDCF3869577956795B795F7958D
:1014E000E7959F5FC1F7FE2B880F911D9695879515
:1014F00097F90895EE0FFF1F881F8BBF0790F69195
:10150000E02D19940F931F93CF93DF93009731F43D
:101510006115710519F480E090E039C08B01EC0190
:101520006EE070E081E090E077D2FC01892B99F3C6
:1015300080E883830115110571F01387028781E824
:1015400083838091FD059091FE05892B21F4F09312
:10155000FE05E093FD052097C9F0D187C087838100
:10156000826083838091FF0590910006892B71F43E
:10157000F0930006E093FF0580910106909102062A
:10158000892B21F4F0930206E0930106CF01DF914D
:10159000CF911F910F910895CF93DF93CDB7DEB711
:1015A000AE014A5F5F4FFA0161917191AF01809185
:1015B000FF059091000633D0DF91CF9108950F93EE
:1015C0001F93CF93DF93E091FF05F09100062381F5
:1015D00021FF1BC08C01D0E0C0E0F80181918F0198
:1015E0006091FF0570910006DB011896ED91FC916A
:1015F0001997882331F01995892B79F3DFEFCFEF15
:10160000ECCF8AE01995892B19F08FEF9FEF02C07C
:101610008D2F9C2FDF91CF911F910F9108952F92C5
:101620003F924F925F926F927F928F929F92AF9272
:10163000BF92CF92DF92EF92FF920F931F93CF93BF
:10164000DF93CDB7DEB72B970FB6F894DEBF0FBE92
:10165000CDBF6C017B018A01FC0117821682838158
:1016600081FFBFC1CE0101963C01F6019381F701D4
:1016700093FD859193FF81917F01882309F4ADC18A
:10168000853239F493FD859193FF81917F018532F5
:1016900021F4B60190E018D3E8CF912C212C312C05
:1016A000FFE1F315D8F08B3279F038F4803279F01D
:1016B0008332A1F4232D20611DC08D3261F080336F
:1016C00069F4232D216016C0832D8260382EE32D0E
:1016D000E4603E2E2AC0F32DF8601DC037FC2DC0FB
:1016E00020ED280F2A3040F08E32B9F436FC75C157
:1016F000232D2064322E19C036FE06C08AE0989E43
:10170000200D1124922E11C0EAE02E9E200D1124EE
:10171000222EF32DF0623F2E08C08C3621F4832D4B
:101720008068382E02C0883641F4F70193FD859118
:1017300093FF81917F018111B3CF982F9F7D9554A5
:10174000933028F40C5F1F4F9FE399830DC08336BD
:1017500031F0833771F0833509F055C020C0F801AE
:10176000808189830E5F1F4F88248394912C5301BD
:1017700012C02801F2E04F0E511CF801A080B18088
:1017800036FE03C0692D70E002C06FEF7FEFC50128
:1017900090D24C018201F32DFF773F2E15C0280116
:1017A00022E0420E511CF801A080B18036FE03C039
:1017B000692D70E002C06FEF7FEFC50168D24C0168
:1017C000F32DF0683F2E820133FC19C0822D90E08A
:1017D00088169906A0F4B60180E290E075D22A94AA
:1017E000F5CFF50137FC859137FE81915F01B60198
:1017F00090E06AD221102A9421E0821A9108811483
:10180000910479F7E1C0843611F0893639F5F80191
:1018100037FE07C060817181828193810C5F1F4F09
:1018200008C060817181072E000C880B990B0E5F38
:101830001F4FF32DFF763F2E97FF09C0909580959F
:10184000709561957F4F8F4F9F4FF0683F2E2AE034
:1018500030E0A30175D2882E861844C0853731F454
:10186000232D2F7EB22E2AE030E025C0932D997FC4
:10187000B92E8F36C1F018F4883579F0AEC08037B4
:1018800019F0883721F0A9C0E92FE061BE2EB4FE1F
:101890000DC0FB2DF460BF2E09C034FE0AC0292FF5
:1018A0002660B22E06C028E030E005C020E130E01E
:1018B00002C020E132E0F801B7FE07C0608171810B
:1018C000828193810C5F1F4F06C06081718180E02F
:1018D00090E00E5F1F4FA30133D2882E8618FB2D98
:1018E000FF773F2E36FE0DC0232D2E7FA22E8914AA
:1018F00058F434FE0BC032FC09C0832D8E7EA82E16
:1019000005C0B82CA32C03C0B82C01C0B92CA4FE70
:101910000FC0FE01E80DF11D8081803321F49A2D66
:10192000997EA92E09C0A2FE06C0B394B39404C048
:101930008A2D867809F0B394A3FC10C0A0FE06C0DF
:10194000B21480F4280C922C9B180DC0B21458F4D9
:10195000B60180E290E0B8D1B394F8CFB21418F495
:101960002B1802C0982C212CA4FE0FC0B60180E3D6
:1019700090E0AAD1A2FE16C0A1FC03C088E790E0C7
:1019800002C088E590E0B6010CC08A2D867851F03F
:10199000A1FE02C08BE201C080E2A7FC8DE2B6018D
:1019A00090E092D1891430F4B60180E390E08CD1BC
:1019B0009A94F8CF8A94F301E80DF11D8081B60165
:1019C00090E082D18110F6CF222009F44ECEB601EC
:1019D00080E290E079D12A94F7CFF6018681978151
:1019E00002C08FEF9FEF2B960FB6F894DEBF0FBEAD
:1019F000CDBFDF91CF911F910F91FF90EF90DF90BE
:101A0000CF90BF90AF909F908F907F906F905F909E
:101A10004F903F902F9008950F931F93CF93DF9394
:101A2000869F8001879F100D969F100D1124C8017D
:101A30000DD0EC01009721F0A80160E070E032D1F8
:101A4000CE01DF91CF911F910F9108950F931F93B6
:101A5000CF93DF938230910510F482E090E0E09123
:101A60000506F091060620E030E0A0E0B0E03097F7
:101A700019F1408151810281138148175907C8F03B
:101A80008417950769F4109731F012960C9312970A
:101A900013961C9327C0009305061093060622C0D8
:101AA0002115310519F04217530718F49A01BD01A9
:101AB000EF01DF01F801DBCF21153105F9F0281B1B
:101AC000390B2430310580F48A819B8161157105C1
:101AD00021F0FB019383828304C0909306068093D8
:101AE0000506FE01329644C0FE01E20FF31F81930A
:101AF000919322503109398328833AC020910306FB
:101B000030910406232B41F420910202309103020C
:101B100030930406209303062091000230910102C5
:101B20002115310541F42DB73EB740910402509183
:101B30000502241B350BE0910306F0910406E21721
:101B4000F307A0F42E1B3F0B2817390778F0AC01E0
:101B50004E5F5F4F2417350748F04E0F5F1F5093BD
:101B60000406409303068193919302C0E0E0F0E005
:101B7000CF01DF91CF911F910F910895CF93DF9304
:101B8000009709F481C0FC01329713821282A09160
:101B90000506B0910606109781F420813181820FED
:101BA000931F20910306309104062817390751F539
:101BB000F0930406E093030667C0ED0120E030E0F7
:101BC000CE17DF0740F44A815B819E014115510524
:101BD000F1F0EA01F5CFD383C28340815181840FB4
:101BE000951FC817D90759F488819981840F951FCB
:101BF0000296918380838A819B81938382832115BE
:101C0000310529F4F0930606E09305063DC0E9018D
:101C1000FB83EA8349915991C40FD51FEC17FD0747
:101C200061F480819181840F951F0296E901998367
:101C30008883828193819B838A83E0E0F0E012961F
:101C40008D919C911397009719F0FD01DC01F7CF5E
:101C50008D919C9111979D012E5F3F4F820F931F95
:101C600020910306309104062817390769F430974C
:101C700029F4109206061092050602C01382128201
:101C8000B0930406A0930306DF91CF910895FC0161
:101C90000590615070400110D8F7809590958E0F97
:101CA0009F1F0895DC0101C06D9341505040E0F743
:101CB0000895FC016150704001900110D8F78095A3
:101CC00090958E0F9F1F08950F931F93CF93DF93CF
:101CD000FB01238121FD03C08FEF9FEF2CC022FF6A
:101CE00016C046815781248135814217530744F439
:101CF000A081B1819D012F5F3F4F318320838C9361
:101D0000268137812F5F3F4F3783268314C08B0195
:101D1000EC01FB010084F185E02D1995892BE1F69A
:101D2000D80116968D919C911797019617969C93C2
:101D30008E931697CE01DF91CF911F910F91089549
:101D4000FA01AA27283051F1203181F1E8946F93EC
:101D50006E7F6E5F7F4F8F4F9F4FAF4FB1E03ED092
:101D6000B4E03CD0670F781F891F9A1FA11D680F30
:101D7000791F8A1F911DA11D6A0F711D811D911D63
:101D8000A11D20D009F468943F912AE0269F1124D8
:101D90003019305D3193DEF6CF010895462F47703C
:101DA000405D4193B3E00FD0C9F7F6CF462F4F7097
:101DB000405D4A3318F0495D31FD4052419302D0F5
:101DC000A9F7EACFB4E0A69597958795779567959B
:101DD000BA95C9F700976105710508959B01AC019B
:101DE0000A2E06945795479537952795BA95C9F7C2
:101DF000620F731F841F951FA01D0895F894FFCFD5
:101E00000000070620000000004024F40000F8361F
:101E10003738393A3B3C3D666768696A6B6C6D4E92
:101E20006F646520323A2049444C452073746174D4
:101E300065004E6F646520323A20494E4954207344
:101E400074617465004E6F646520323A2052554EBD
:101E50004E494E47207374617465004D616B696E25
:101E600067206120536F6C656E6F69642050756CDC
:101E70007365210042616C6C2064657465637465F0
:101E800064212052495021004E6F64653220537402
:101E90006174653A2047414D455F4F5645520053A6
:101EA000746174653A204F5448455253000A2A2AF7
:101EB0002A2A46696E69736865642073657474695B
:101EC0006E672075702041746D65676132353630FC
:101ED000212A2A2A2A0A003C41444320496E697477
:101EE00069616C697A65643E003C43414E206973C8
:101EF0002072656164793E003C536F6C656E6F695A
:101F0000642049525148003C43414E2049525148B7
:101F10003E0052656365697665642025642025640A
:101F20002025640A003C4552524F523E204E6F20FD
:101F30006D65737361676520776173207265636592
:101F400069766564203C534F555243453E204341DA
:101F50004E204952512048616E646C6572004341C5
:101F60004E535441543A2025640A003C4D435032AC
:101F7000353135206973204E4F5420696E20636FD0
:101F80006E66696775726174696F6E206D6F6465E6
:101F9000206166746572207265736574213E003C31
:101FA0004D435032353135206973204E4F542069EE
:101FB0006E207468652073656C6563746564206D5C
:101FC0006F6465213E003C4D435032353135206908
:101FD0007320696E204E4F524D414C206D6F6465E9
:101FE0002E3E003C4D435032353135206973206917
:101FF0006E20534C454550206D6F64652E3E003C6D
:102000004D43503235313520697320696E204C4F75
:102010004F504241434B206D6F64652E3E003C4D56
:1020200043503235313520697320696E204C495355
:1020300054454E204F4E4C59206D6F64652E3E0026
:102040004D43503235313520697320696E20434F3E
:102050004E464947206D6F64652E004D4350323522
:10206000313520697320696E20504F5745522055F5
:1020700050206D6F64652E004D4350323531352050
:10208000697320696E204E4F4E4520444546494EA7
:102090004544206D6F64652E000A3C546573746975
:1020A0006E67206D6F746F72213E002E2E2E2E2EC5
:1020B0002E2E2E2E2E003C4D6F746F722043616CBD
:1020C000696272617465643E003E456E636F64656B
:1020D0007220726573657420746F3A2025643E0A1D
:1020E0000043757272656E7420706F736974696FE6
:1020F0006E3A2025640A0054617267657420706F1F
:10210000736974696F6E3A2025640A00496E7465BC
:102110006772616C3A2025640A00446572697661D1
:10212000746976653A2025640A006B702A657272BC
:102130006F723A2025642C20206B692A696E7465C1
:1021400067616C3A2025642C20206B642A646572D8
:10215000697661746976653A2025640A0073706552
:1021600065643A2025640A0053706565643A202549
:10217000640A0050726576696F7573204572726FDC
:10218000723A2025640A003C536572766F20496ECE
:10219000697469616C697A65643E003C536F6C6573
:1021A0006E6F696420496E697469616C697A6564EF
:1021B0003E003C54696D65727320496E69746961B3
:1021C0006C697A6564213E003C5553415254206944
:0A21D000732072656164793E00001F
:00000001FF
