:10000000C2C00000E0C00000DEC0000035C2000039
:10001000DAC00000D8C00000D6C00000D4C0000084
:10002000D2C00000D0C00000CEC00000CCC0000094
:10003000CAC00000C8C00000C6C0000013C2000053
:10004000C2C00000C0C00000BEC00000BCC00000B4
:10005000FFC10000B8C00000B6C00000D0C1000061
:10006000B2C00000B0C00000AEC00000ACC00000D4
:10007000AAC00000A8C00000A6C00000A4C00000E4
:10008000A2C00000A0C000009EC000009CC00000F4
:100090009AC0000098C0000096C000003DC6000055
:1000A00092C0000090C000008EC000008CC0000014
:1000B0008AC0000088C0000086C0000084C0000024
:1000C00082C0000080C000007EC000007CC0000034
:1000D0007AC0000078C0000076C0000074C0000044
:1000E00072C00000AA06FC06FC06FC06FC06FC0624
:1000F000FC06FC06AA06FC06FC06FC06FC06FC0642
:10010000FC06FC06AC06FC06FC06FC06FC06FC062F
:10011000FC06FC06FC06FC06FC06FC06FC06FC06CF
:10012000FC06FC06AC06FC06FC06FC06FC06FC060F
:10013000FC06FC06FC06FC06FC06FC06FC06FC06AF
:10014000FC06FC06F806FC06FC06FC06FC06FC06A3
:10015000FC06FC06D506FC06FC06FC06FC06FC06B6
:10016000FC06FC06FC06FC06FC06FC06FC06FC067F
:10017000FC06FC06C906FC06FC06FC06FC06FC06A2
:10018000FC06FC06E70611241FBECFEFD1E2DEBF5E
:10019000CDBF00E00CBF15E0A0E0B2E0ECEBFBE16E
:1001A00000E00BBF02C007900D92A03CB107D9F749
:1001B00025E0A0ECB5E001C01D92AC3EB207E1F72E
:1001C00003D00C94DC0D1CCF35D644D047D580E04D
:1001D00062D012D569D5FED28FE192E00E94BD09AE
:1001E0000F2EF9E4EF2EF2E0FF2EF02D02E512E0E3
:1001F00050D0EC01D695C795D695C795CE019927D5
:100200009F938F93FF92EF920E94AA098C2F49D35C
:100210005AD37DD4C82F78D4D82F1F928F931F9292
:10022000CF931F930F930E94AA096D2F8C2FACD2EE
:100230002FEF81EE94E0215080409040E1F700C024
:1002400000008DB79EB70A960FB6F8949EBF0FBEFA
:100250008DBFCECF8FEF92E00E94BD09ECE7F0E0BA
:10026000808181648083EAE7F0E080818768808311
:100270008081806880830895EAE7F0E0808180646F
:100280008083808186FDFDCF8091780090917900F8
:100290000895F2CF0895CF93C82F81E193E09F9303
:1002A0008F930E94AA098C2F7BD14FEF63E08BE2E2
:1002B0000CD260E08CE265D14FEF68E080E305D2BC
:1002C0000F900F90CF9108957F928F929F92AF924F
:1002D000BF92CF92DF92EF92FF920F931F93CF9333
:1002E000DF93CDB7DEB763970FB6F894DEBF0FBECE
:1002F000CDBF4C018CE238D180FD06C08BE0D4012B
:100300001D928A95E9F750C0FE0131968BE0DF011E
:100310001D928A95E9F781E627D1A82E82E624D19D
:10032000B12CAA0CBB1CAA0CBB1CAA0CBB1C829532
:1003300086958770A80EB11C85E616D18F70782E31
:10034000B8E0B81718F46894772473F888E0E7E108
:10035000F2E0DE011C9601900D928A95E1F777207C
:10036000A1F08E01045F1F4F7E01E4E0EE0EF11C50
:100370006801C70CD11CD8018D918D01F5D0F70112
:1003800081937F010C151D05B1F740E061E08CE21F
:100390009CD1BA82A9827B828BE0FE013196D40186
:1003A00001900D928A95E1F7C40163960FB6F89417
:1003B000DEBF0FBECDBFDF91CF911F910F91FF9098
:1003C000EF90DF90CF90BF90AF909F908F907F90F5
:1003D000089508956FC40895CF93DF9300D0CDB7EB
:1003E000DEB790E599831A828B8363E0CE01019694
:1003F00071D40F900F900F90DF91CF9108951F92BD
:100400000F920FB60F9211240BB60F922F933F93BA
:100410004F935F936F937F938F939F93AF93BF930C
:10042000EF93FF9380E293E0A8D7FF91EF91BF9104
:10043000AF919F918F917F916F915F914F913F917C
:100440002F910F900BBE0F900FBE0F901F9018951D
:100450001F920F920FB60F9211240F900FBE0F90A4
:100460001F9018951F920F920FB60F9211240F90A4
:100470000FBE0F901F9018951F920F920FB60F92FC
:1004800011240BB60F920F931F932F933F934F930B
:100490005F936F937F938F939F93AF93BF93EF93EC
:1004A000FF93CF93DF93CDB7DEB72B97DEBFCDBFE2
:1004B0008FE293E062D7CE01019606DF1D810A85A7
:1004C00088DF89819A810A9731F58E811F928F93F7
:1004D0001F921F938C811F928F938AE393E09F93C7
:1004E0008F9338D7612F70E080E090E0C8D58ED32D
:1004F0000FB6F894DEBF0FBECDBF013079F4B4D390
:100500009FEF20E782E0915020408040E1F700C05B
:100510000000ACD303C08DE493E02FD72B960FB629
:10052000F894DEBF0FBECDBFDF91CF91FF91EF9169
:10053000BF91AF919F918F917F916F915F914F91FB
:100540003F912F911F910F910F900BBE0F900FBEF7
:100550000F901F9018952F9808952F9A0895FBDFFC
:1005600080EC8FD3FACF0895CF93C82FF4DF83E0C8
:1005700088D38C2F86D38AD3C82FEFDF8C2FCF91CF
:100580000895CF93DF93D82FC62FE5DF82E079D38C
:100590008D2F77D38C2F75D3E0DFDF91CF91089526
:1005A0000F931F93CF93DF9300D000D0CDB7DEB76A
:1005B000182F5ED38D819E81883E934050F48D81AB
:1005C0009E8101969E838D838D819E81883E93407E
:1005D000B0F3C5DF8B819C81883E934050F48B81C2
:1005E0009C8101969C838B838B819C81883E934068
:1005F000B0F38EE0B9DF082F89819A81883E93405D
:1006000050F489819A8101969A83898389819A819C
:10061000883E9340B0F31F920F9386E893E09F9338
:100620008F9398D6007E0F900F900F900F90003808
:1006300029F083E993E0A1D601E03BC0612F8FE070
:10064000A0DF8EE091DF082F007E011729F087ECF4
:1006500093E093D601E02DC0011104C08EEE93E02B
:100660008CD627C0003229F48BE094E086D600E0D7
:1006700020C0003429F487E294E07FD600E019C05E
:10068000003629F486E494E078D600E012C0003801
:1006900029F488E694E071D600E00BC0003E29F40E
:1006A00083E894E06AD600E004C080EA94E065D66E
:1006B00000E0802F26960FB6F894DEBF0FBECDBFA8
:1006C000DF91CF911F910F9108951F93CF93DF93E7
:1006D000182FD62FC42F3FDF85E0D3D2812FD1D260
:1006E0008D2FCFD28C2FCDD238DFDF91CF911F91BC
:1006F0000895E2E0F1E080818064808380818F7DD5
:1007000080838081877F808387EC90E00197F1F779
:1007100000C00000A6E0B1E02C9180818860808359
:1007200087EC90E00197F1F700C000008C91908178
:100730009062908390E0922B0895E2E0F1E0808156
:100740008F7B808387EE93E00197F1F700C0000074
:100750008081806480830895813051F018F0823068
:1007600069F00895E2E0F1E080818D7F8083089553
:10077000E2E0F1E08081826080830895E2E0F1E0D0
:1007800080818D7F80830895CF93C62F813039F08B
:1007900018F0823039F008C080E0DEDF05C081E06B
:1007A000DBDF02C082E0D8DF8C2F16DECF91089508
:1007B000CF93C82F60E5E8DF2FEF87EA91E621505D
:1007C00080409040E1F700C0000060E08C2FDCDF4B
:1007D000CF910895FFDDE1E0F1E0808180618083C9
:1007E000A2E0B1E08C9180618C93808182608083F3
:1007F0008081806280838081886080838081806442
:1008000080838081826080838C9182608C938C91C4
:1008100080648C938C9180628C931092070181ECA0
:1008200094E0ABD580E0C4DF83ED94E0A6D581E011
:10083000BFDF83DF8EED94E0A0D55BDF9F938F93C6
:1008400081EF94E09F938F9385D50F900F900F9039
:100850000F9008954EDF813E2FEF92071CF4109207
:10086000D50511C09C01992314F4215E3F4F3595A5
:100870002795359527953595279535952795359560
:1008800027952093D5058091D5051F928F9389E0F8
:1008900095E09F938F935ED50F900F900F900F90E0
:1008A0000895282F30E03093D4052093D3051F926C
:1008B0008F938FE195E09F938F934CD50F900F907E
:1008C0000F900F9008958F929F92AF92BF92CF9208
:1008D000DF92EF92FF92CF93DF93BCDF2091D5059B
:1008E0008091D3059091D405821B91099093D905ED
:1008F0008093D8059F938F9382E595E09F938F9384
:1009000029D5C091D805D091D905CE0109960F906F
:100910000F900F900F90439748F41092CC051092CF
:10092000CD051092CE051092CF051EC0BE010D2E32
:10093000000C880B990BA5D32AE037ED43EA5CE362
:1009400054D49B01AC016091CC057091CD05809190
:10095000CE059091CF0592D26093CC057093CD05D2
:100960008093CE059093CF058091D6059091D705C1
:10097000BE01681B790B072E000C880B990B81D3E5
:100980002AE037ED43EA5CE3E1D26B017C0160933E
:10099000C8057093C9058093CA059093CB05209133
:1009A000CC053091CD054091CE055091CF05609199
:1009B000C4057091C5058091C6059091C70515D4F1
:1009C0004B015C01BE01DD0F880B990B5AD32091BE
:1009D000060230910702409108025091090205D4A5
:1009E0009B01AC01C501B40149D24B015C012091CE
:1009F000C0053091C1054091C2055091C305C701A2
:100A0000B601F3D39B01AC01C501B40137D206D3C3
:100A10009B017093D1056093D0057723A4F441E046
:100A20004093E10569334FEF74074CF0772324F4CA
:100A300022273327261B370B2093D2050FC088ECC3
:100A40008093D2050BC01092E105683C71051CF43F
:100A50006093D20503C088EC8093D2058091D005C5
:100A60009091D105C29724F482E38093D20509C006
:100A70008091D8059091D9051816190614F0109296
:100A8000D2058091D8059091D9059093D705809390
:100A9000D6058091D2051F928F9384E395E09F93B2
:100AA0008F9358D48091D1058F938091D0058F93E7
:100AB0008FE395E09F938F934DD48091D7058F93CB
:100AC0008091D6058F9389E495E09F938F9342D4CC
:100AD0008091E1051F928F938DE595E09F938F9311
:100AE00039D48DB79EB740960FB6F8949EBF0FBE0F
:100AF0008DBFDF91CF91FF90EF90DF90CF90BF90AF
:100B0000AF909F908F9008958091D2050895809125
:100B1000E1050895CF92DF92EF92FF926B017C0185
:100B2000E1E8F0E080818460808380818D7F808334
:100B300080818E7F808360910A0270910B02809188
:100B40000C0290910D029BD2A70196014ED366D262
:100B50007093870060938600FF90EF90DF90CF90B6
:100B60000895E1E8F0E08081806180838081886081
:100B70008083E0E8F0E080818260808380818E7FE6
:100B8000808380818068808380818F7B8083259AA9
:100B90002D986AE077ED83EA9CE3BCCF0895CF926D
:100BA000DF92EF92FF9220E030E04EEF52E4CED1A0
:100BB00021E539E44DE15AE318D32AEF3DEE4BE647
:100BC0005AE35CD16B017C0160910A0270910B02C7
:100BD00080910C0290910D0252D29B01AC01C70191
:100BE000B60103D31BD27093890060938800FF90F5
:100BF000EF90DF90CF9008958DE695E0BED3B1DF02
:100C000060E070E08FEF92E4CACF0895CF92DF9258
:100C1000EF92FF926B017C0120E030E04FE753E45C
:100C2000E0D2181634F460E070E08FE793E4B7DFA9
:100C300010C020E030E0A901C701B60183D18823AC
:100C40002CF460E070E0CB01AADF03C0C701B6015D
:100C5000A6DFFF90EF90DF90CF90089581E895E0B8
:100C60008CD3529A5A9808955A9808955A9A08958A
:100C700084B1876884B9239881E58CBD289A2F9A1E
:100C800008958EBD0DB407FEFDCF089580E0F9DF15
:100C90000DB407FEFDCF8EB5089587E08093B100B7
:100CA00081E080937000089588E995E066D3F5DFD0
:100CB00078940895E8EBF0E08CE0808380831092D4
:100CC000B900ECEBF0E084E080839FEF9093BB00F1
:100CD00080830895DC01ECEBF0E0908190FDFDCF86
:100CE0006093DC058C918093DD0580FD0CC0623043
:100CF00050F0FD013196AEEDB5E081E091919D930C
:100D00008F5F6813FBCF1092DB0588EF80930E0294
:100D100085EA8093BC0008951F920F920FB60F9240
:100D200011240BB60F922F933F938F939F93AF9302
:100D3000BF93EF93FF93E091B9008E2F90E0FC01F9
:100D40003897E135F10508F057C08827EE58FF4F76
:100D50008F4FAEC21092DA05E091DA058091DC0582
:100D6000E81770F481E08E0F8093DA05F0E0E3522B
:100D7000FA4F80818093BB0085E88093BC0043C01C
:100D80008091DB0581608093DB0584E98093BC0062
:100D90003AC0E091DA0581E08E0F8093DA05809108
:100DA000BB00F0E0E352FA4F80832091DA0530E097
:100DB0008091DC0590E001972817390724F485EC31
:100DC0008093BC0020C085E88093BC001CC080914B
:100DD000BB00E091DA05F0E0E352FA4F80838091A6
:100DE000DB0581608093DB0584E98093BC000BC048
:100DF00085EA8093BC0007C08091B90080930E0201
:100E000084E08093BC00FF91EF91BF91AF919F91DF
:100E10008F913F912F910F900BBE0F900FBE0F90AF
:100E20001F901895E0ECF0E080818823ECF780912A
:100E3000C60008951092C50080E18093C40088E147
:100E40008093C1008EE08093C20062E177E084E38A
:100E500097E036D28EEA95E090C208958091C00066
:100E600085FB882780F90895CF93C82FF7DF882363
:100E7000E9F3C093C600CF9108955058BB27AA2725
:100E80000ED075C166D130F06BD120F031F49F3FA8
:100E900011F41EF45BC10EF4E095E7FB51C1E92F9C
:100EA00077D180F3BA17620773078407950718F0A4
:100EB00071F49EF58FC10EF4E0950B2EBA2FA02D84
:100EC0000B01B90190010C01CA01A0011124FF27F7
:100ED000591B99F0593F50F4503E68F11A16F040F2
:100EE000A22F232F342F4427585FF3CF46953795F1
:100EF0002795A795F0405395C9F77EF41F16BA0BB6
:100F0000620B730B840BBAF09150A1F0FF0FBB1F63
:100F1000661F771F881FC2F70EC0BA0F621F731FAC
:100F2000841F48F4879577956795B795F7959E3F09
:100F300008F0B3CF9395880F08F09927EE0F979597
:100F400087950895D9D008F481E008950CD00FC199
:100F500007D140F0FED030F021F45F3F19F0F0C02F
:100F6000511139C1F3C014D198F39923C9F3552312
:100F7000B1F3951B550BBB27AA276217730784078C
:100F800038F09F5F5F4F220F331F441FAA1FA9F342
:100F900033D00E2E3AF0E0E830D091505040E69534
:100FA000001CCAF729D0FE2F27D0660F771F881F95
:100FB000BB1F261737074807AB07B0E809F0BB0B84
:100FC000802DBF01FF2793585F4F2AF09E3F5105A8
:100FD00068F0B6C000C15F3FECF3983EDCF3869545
:100FE00077956795B795F7959F5FC9F7880F911D1E
:100FF0009695879597F90895E1E0660F771F881F0A
:10100000BB1F621773078407BA0720F0621B730BBC
:10101000840BBA0BEE1F88F7E095089504D068940E
:10102000B111D9C00895BCD088F09F5790F0B92F66
:101030009927B751A0F0D1F0660F771F881F991F2D
:101040001AF0BA95C9F712C0B13081F0C3D0B1E03F
:101050000895C0C0672F782F8827B85F39F0B93F4F
:10106000CCF3869577956795B395D9F73EF490952F
:101070008095709561957F4F8F4F9F4F0895E894AD
:1010800009C097FB3EF490958095709561957F4FD0
:101090008F4F9F4F9923A9F0F92F96E9BB2793957E
:1010A000F695879577956795B795F111F8CFFAF48E
:1010B000BB0F11F460FF1BC06F5F7F4F8F4F9F4FBF
:1010C00016C0882311F096E911C0772321F09EE81D
:1010D000872F762F05C0662371F096E8862F70E083
:1010E00060E02AF09A95660F771F881FDAF7880F5D
:1010F0009695879597F90895990F0008550FAA0BB3
:10110000E0E8FEEF16161706E807F907C0F012161A
:101110001306E407F50798F0621B730B840B950B1D
:1011200039F40A2661F0232B242B252B21F4089572
:101130000A2609F4A140A6958FEF811D811D08950F
:1011400097F99F6780E870E060E008959FEF80EC7A
:10115000089500240A94161617061806090608951D
:1011600000240A9412161306140605060895092E83
:101170000394000C11F4882352F0BB0F40F4BF2BF2
:1011800011F460FF04C06F5F7F4F8F4F9F4F089532
:1011900057FD9058440F551F59F05F3F71F0479528
:1011A000880F97FB991F61F09F3F79F0879508950D
:1011B000121613061406551FF2CF4695F1DF08C02C
:1011C000161617061806991FF1CF86957105610549
:1011D00008940895E894BB2766277727CB0197F9F1
:1011E00008958ADF08F48FEF08950BD0C0CFB1DFE8
:1011F00028F0B6DF18F0952309F0A2CFA7CF11246D
:10120000EACFC6DFA0F3959FD1F3950F50E0551FAD
:10121000629FF001729FBB27F00DB11D639FAA274B
:10122000F00DB11DAA1F649F6627B00DA11D661F9A
:10123000829F2227B00DA11D621F739FB00DA11DBB
:10124000621F839FA00D611D221F749F3327A00D75
:10125000611D231F849F600D211D822F762F6A2F11
:1012600011249F5750408AF0E1F088234AF0EE0F96
:10127000FF1FBB1F661F771F881F91505040A9F7A3
:101280009E3F510570F05CCFA6CF5F3FECF3983ED8
:10129000DCF3869577956795B795F795E7959F5F0A
:1012A000C1F7FE2B880F911D9695879597F90895A4
:1012B000EE0FFF1F881F8BBF0790F691E02D19944A
:1012C0000F931F93CF93DF93009731F4611571054E
:1012D00019F480E090E039C08B01EC016EE070E021
:1012E00081E090E077D2FC01892B99F380E8838339
:1012F0000115110571F01387028781E883838091BE
:10130000E2059091E305892B21F4F093E305E09346
:10131000E2052097C9F0D187C087838182608383EB
:101320008091E4059091E505892B71F4F093E50532
:10133000E093E4058091E6059091E705892B21F47F
:10134000F093E705E093E605CF01DF91CF911F9180
:101350000F910895CF93DF93CDB7DEB7AE014A5F0B
:101360005F4FFA0161917191AF018091E405909115
:10137000E50533D0DF91CF9108950F931F93CF935D
:10138000DF93E091E405F091E505238121FF1BC087
:101390008C01D0E0C0E0F80181918F016091E405FB
:1013A0007091E505DB011896ED91FC911997882362
:1013B00031F01995892B79F3DFEFCFEFECCF8AE08D
:1013C0001995892B19F08FEF9FEF02C08D2F9C2F5D
:1013D000DF91CF911F910F9108952F923F924F92DD
:1013E0005F926F927F928F929F92AF92BF92CF92B5
:1013F000DF92EF92FF920F931F93CF93DF93CDB7BE
:10140000DEB72B970FB6F894DEBF0FBECDBF6C01D1
:101410007B018A01FC0117821682838181FFBFC193
:10142000CE0101963C01F6019381F70193FD859170
:1014300093FF81917F01882309F4ADC1853239F48E
:1014400093FD859193FF81917F01853221F4B6014F
:1014500090E018D3E8CF912C212C312CFFE1F3152B
:10146000D8F08B3279F038F4803279F08332A1F4FD
:10147000232D20611DC08D3261F0803369F4232D4E
:10148000216016C0832D8260382EE32DE4603E2E4D
:101490002AC0F32DF8601DC037FC2DC020ED280FA9
:1014A0002A3040F08E32B9F436FC75C1232D206409
:1014B000322E19C036FE06C08AE0989E200D1124F7
:1014C000922E11C0EAE02E9E200D1124222EF32D23
:1014D000F0623F2E08C08C3621F4832D8068382EB0
:1014E00002C0883641F4F70193FD859193FF819105
:1014F0007F018111B3CF982F9F7D9554933028F4AD
:101500000C5F1F4F9FE399830DC0833631F0833703
:1015100071F0833509F055C020C0F80180818983BE
:101520000E5F1F4F88248394912C530112C0280111
:10153000F2E04F0E511CF801A080B18036FE03C0CE
:10154000692D70E002C06FEF7FEFC50190D24C01B2
:101550008201F32DFF773F2E15C0280122E0420EB5
:10156000511CF801A080B18036FE03C0692D70E0E7
:1015700002C06FEF7FEFC50168D24C01F32DF06818
:101580003F2E820133FC19C0822D90E08816990607
:10159000A0F4B60180E290E075D22A94F5CFF5016F
:1015A00037FC859137FE81915F01B60190E06AD2E8
:1015B00021102A9421E0821A91088114910479F76C
:1015C000E1C0843611F0893639F5F80137FE07C0DD
:1015D00060817181828193810C5F1F4F08C060819F
:1015E0007181072E000C880B990B0E5F1F4FF32D96
:1015F000FF763F2E97FF09C0909580957095619575
:101600007F4F8F4F9F4FF0683F2E2AE030E0A301BD
:1016100075D2882E861844C0853731F4232D2F7E4D
:10162000B22E2AE030E025C0932D997FB92E8F3657
:10163000C1F018F4883579F0AEC0803719F08837DA
:1016400021F0A9C0E92FE061BE2EB4FE0DC0FB2D34
:10165000F460BF2E09C034FE0AC0292F2660B22EC6
:1016600006C028E030E005C020E130E002C020E103
:1016700032E0F801B7FE07C06081718182819381F9
:101680000C5F1F4F06C06081718180E090E00E5FAB
:101690001F4FA30133D2882E8618FB2DFF773F2ED4
:1016A00036FE0DC0232D2E7FA22E891458F434FE51
:1016B0000BC032FC09C0832D8E7EA82E05C0B82C2D
:1016C000A32C03C0B82C01C0B92CA4FE0FC0FE018E
:1016D000E80DF11D8081803321F49A2D997EA92E89
:1016E00009C0A2FE06C0B394B39404C08A2D8678C4
:1016F00009F0B394A3FC10C0A0FE06C0B21480F49D
:10170000280C922C9B180DC0B21458F4B60180E23C
:1017100090E0B8D1B394F8CFB21418F42B1802C0EB
:10172000982C212CA4FE0FC0B60180E390E0AAD132
:10173000A2FE16C0A1FC03C088E790E002C088E5C5
:1017400090E0B6010CC08A2D867851F0A1FE02C04F
:101750008BE201C080E2A7FC8DE2B60190E092D15D
:10176000891430F4B60180E390E08CD19A94F8CFDC
:101770008A94F301E80DF11D8081B60190E082D1D9
:101780008110F6CF222009F44ECEB60180E290E01F
:1017900079D12A94F7CFF6018681978102C08FEF25
:1017A0009FEF2B960FB6F894DEBF0FBECDBFDF9133
:1017B000CF911F910F91FF90EF90DF90CF90BF904E
:1017C000AF909F908F907F906F905F904F903F90E1
:1017D0002F9008950F931F93CF93DF93869F8001DF
:1017E000879F100D969F100D1124C8010DD0EC019C
:1017F000009721F0A80160E070E032D1CE01DF91C6
:10180000CF911F910F9108950F931F93CF93DF9363
:101810008230910510F482E090E0E091EA05F091C9
:10182000EB0520E030E0A0E0B0E0309719F1408116
:1018300051810281138148175907C8F08417950711
:1018400069F4109731F012960C93129713961C932B
:1018500027C00093EA051093EB0522C0211531053E
:1018600019F04217530718F49A01BD01EF01DF0187
:10187000F801DBCF21153105F9F0281B390B243095
:10188000310580F48A819B816115710521F0FB018E
:101890009383828304C09093EB058093EA05FE0155
:1018A000329644C0FE01E20FF31F819391932250C0
:1018B0003109398328833AC02091E8053091E90540
:1018C000232B41F420910202309103023093E90569
:1018D0002093E80520910002309101022115310585
:1018E00041F42DB73EB74091040250910502241BEC
:1018F000350BE091E805F091E905E217F307A0F454
:101900002E1B3F0B2817390778F0AC014E5F5F4F55
:101910002417350748F04E0F5F1F5093E905409399
:10192000E8058193919302C0E0E0F0E0CF01DF9100
:10193000CF911F910F910895CF93DF93009709F4F2
:1019400081C0FC01329713821282A091EA05B09106
:10195000EB05109781F420813181820F931F209134
:10196000E8053091E9052817390751F5F093E905A5
:10197000E093E80567C0ED0120E030E0CE17DF0717
:1019800040F44A815B819E0141155105F1F0EA0165
:10199000F5CFD383C28340815181840F951FC8172F
:1019A000D90759F488819981840F951F02969183F4
:1019B00080838A819B81938382832115310529F459
:1019C000F093EB05E093EA053DC0E901FB83EA8370
:1019D00049915991C40FD51FEC17FD0761F480811F
:1019E0009181840F951F0296E901998388838281F2
:1019F00093819B838A83E0E0F0E012968D919C9125
:101A00001397009719F0FD01DC01F7CF8D919C91A0
:101A100011979D012E5F3F4F820F931F2091E80584
:101A20003091E9052817390769F4309729F41092A5
:101A3000EB051092EA0502C013821282B093E90509
:101A4000A093E805DF91CF910895FC0105906150C6
:101A500070400110D8F7809590958E0F9F1F0895C4
:101A6000DC0101C06D9341505040E0F70895FC0146
:101A70006150704001900110D8F7809590958E0FBD
:101A80009F1F08950F931F93CF93DF93FB01238133
:101A900021FD03C08FEF9FEF2CC022FF16C04681AF
:101AA0005781248135814217530744F4A081B181C5
:101AB0009D012F5F3F4F318320838C932681378197
:101AC0002F5F3F4F3783268314C08B01EC01FB014E
:101AD0000084F185E02D1995892BE1F6D801169641
:101AE0008D919C911797019617969C938E931697BC
:101AF000CE01DF91CF911F910F910895FA01AA278E
:101B0000283051F1203181F1E8946F936E7F6E5F40
:101B10007F4F8F4F9F4FAF4FB1E03ED0B4E03CD0EE
:101B2000670F781F891F9A1FA11D680F791F8A1FD1
:101B3000911DA11D6A0F711D811D911DA11D20D038
:101B400009F468943F912AE0269F11243019305DF2
:101B50003193DEF6CF010895462F4770405D4193E3
:101B6000B3E00FD0C9F7F6CF462F4F70405D4A3330
:101B700018F0495D31FD4052419302D0A9F7EACFF8
:101B8000B4E0A6959795879577956795BA95C9F727
:101B900000976105710508959B01AC010A2E06941A
:101BA0005795479537952795BA95C9F7620F731FD3
:0C1BB000841F951FA01D0895F894FFCF1E
:101BBC000000EC0520000000604024F40000F83622
:101BCC003738393A3B3C3D666768696A6B6C6D0A1D
:101BDC002A2A2A2A46696E697368656420736574BB
:101BEC0074696E672075702041746D65676132355C
:101BFC003630212A2A2A2A0A004144433A202564F5
:101C0C000A006469723A20256420202020737065D4
:101C1C0065643A202564200A0069643A2025640A28
:101C2C00004E6F646520323A2049444C4520737451
:101C3C00617465004E6F646520323A20494E4954F8
:101C4C00207374617465004E6F646520323A2052C3
:101C5C00554E4E494E47207374617465004D616B4F
:101C6C00696E67206120536F6C656E6F69642050DC
:101C7C00756C7365210042616C6C206465746563DE
:101C8C00746564212052495021004E6F64653220E6
:101C9C0053746174653A2047414D455F4F56455228
:101CAC000053746174653A204F5448455253003CBC
:101CBC0041444320496E697469616C697A65643E7C
:101CCC00003C43414E2069732072656164793E008B
:101CDC003C536F6C656E6F69642049525148003CEF
:101CEC0043414E20495251483E0052656365697626
:101CFC0065642025642025642025640A003C455237
:101D0C00524F523E204E6F206D6573736167652094
:101D1C00776173207265636569766564203C534F07
:101D2C00555243453E2043414E2049525120486173
:101D3C006E646C65720043414E535441543A2025F5
:101D4C00640A003C4D435032353135206973204EC6
:101D5C004F5420696E20636F6E666967757261748B
:101D6C00696F6E206D6F6465206166746572207298
:101D7C0065736574213E003C4D435032353135203E
:101D8C006973204E4F5420696E207468652073650A
:101D9C006C6563746564206D6F6465213E003C4D19
:101DAC0043503235313520697320696E204E4F52C5
:101DBC004D414C206D6F64652E3E003C4D435032BE
:101DCC0035313520697320696E20534C45455020C0
:101DDC006D6F64652E3E003C4D43503235313520DD
:101DEC00697320696E204C4F4F504241434B206D1C
:101DFC006F64652E3E003C4D4350323531352069C1
:101E0C007320696E204C495354454E204F4E4C590B
:101E1C00206D6F64652E3E004D43503235313520B8
:101E2C00697320696E20434F4E464947206D6F649D
:101E3C00652E004D43503235313520697320696E63
:101E4C0020504F574552205550206D6F64652E0021
:101E5C004D43503235313520697320696E204E4F19
:101E6C004E4520444546494E4544206D6F64652ED1
:101E7C00000A3C54657374696E67206D6F746F72E1
:101E8C00213E002E2E2E2E2E2E2E2E2E2E003C4D92
:101E9C006F746F722043616C696272617465643E29
:101EAC00003E456E636F64657220726573657420C5
:101EBC00746F3A2025643E0A0043757272656E7425
:101ECC0020706F736974696F6E3A2025640A005430
:101EDC00617267657420706F736974696F6E3A20F4
:101EEC0025640A0053706565643A2025640A004332
:101EFC0074726C3A2025640A0050726576696F75AD
:101F0C0073204572726F723A2025640A004469721C
:101F1C00656374696F6E3A2025640A0A003C536548
:101F2C0072766F20496E697469616C697A65643E7A
:101F3C00003C536F6C656E6F696420496E697469FF
:101F4C00616C697A65643E003C54696D65727320FE
:101F5C00496E697469616C697A6564213E003C550F
:101F6C00534152542069732072656164793E0000BC
:00000001FF
