:10000000C2C00000E0C00000DEC0000096C30000D7
:10001000DAC00000D8C00000D6C00000D4C0000084
:10002000D2C00000D0C00000CEC00000CCC0000094
:10003000CAC00000C8C00000C6C0000074C30000F1
:10004000C2C00000C0C00000BEC00000BCC00000B4
:1000500060C30000B8C00000B6C0000031C300009B
:10006000B2C00000B0C00000AEC00000ACC00000D4
:10007000AAC00000A8C00000A6C00000A4C00000E4
:10008000A2C00000A0C000009EC000009CC00000F4
:100090009AC0000098C0000096C000004FC7000042
:1000A00092C0000090C000008EC000008CC0000014
:1000B0008AC0000088C0000086C0000084C0000024
:1000C00082C0000080C000007EC000007CC0000034
:1000D0007AC0000078C0000076C0000074C0000044
:1000E00072C00000BC070E080E080E080E080E08AD
:1000F0000E080E08BC070E080E080E080E080E08A3
:100100000E080E08BE070E080E080E080E080E0890
:100110000E080E080E080E080E080E080E080E082F
:100120000E080E08BE070E080E080E080E080E0870
:100130000E080E080E080E080E080E080E080E080F
:100140000E080E080A080E080E080E080E080E0803
:100150000E080E08E7070E080E080E080E080E0817
:100160000E080E080E080E080E080E080E080E08DF
:100170000E080E08DB070E080E080E080E080E0803
:100180000E080E08F90711241FBECFEFD1E2DEBF23
:10019000CDBF00E00CBF15E0A0E0B2E0E0EEFDE175
:1001A00000E00BBF02C007900D92A236B107D9F74D
:1001B00025E0A2E6B5E001C01D92A039B207E1F743
:1001C000D7D00C94EE0E1CCFFF920F931F93CF93BA
:1001D000DF93CDB7DEB766970FB6F894DEBF0FBEDC
:1001E000CDBFCE010196CBD109811A81FC801F932E
:1001F0000F938FE192E09F938F930E94BC0A8091AE
:1002000062050F900F900F900F90811117C087E239
:1002100092E00E94CF0A0130110531F429E4F21274
:1002200003C081E0809362058FEF90E7A2E08150E8
:100230009040A040E1F700C000008EC0813041F541
:100240008AE392E00E94CF0ACE010C962BE0FC01DB
:1002500011922A95E9F722E030E03D872C8721E0D2
:100260002E8722E52F8720D1FFEF21EE84E0F15089
:1002700020408040E1F700C000000530110509F082
:100280006BC093E5F91268C082E08093620564C098
:10029000823099F58DE492E00E94CF0A0A30110570
:1002A00009F56F2D70E080E090E0FBD7C1D505D255
:1002B000882331F03BD5182F3CD5612FCED3FAD10E
:1002C0008A85813079F483E692E00E94CF0ADED5F8
:1002D000AFEFB0E7E2E0A150B040E040E1F700C08E
:1002E0000000D6D5BFD0892BB9F18CE792E00E94EF
:1002F000CF0A83E0809362052FC0833039F580E90F
:1003000092E00E94CF0AFE013C968BE0DF011D9235
:100310008A95E9F783E090E09D878C8781E08E875E
:1003200087E48F870AE010E0CE010C96BDD0BFEFC6
:10033000E3ECF9E0B150E040F040E1F700C000002C
:100340000150110989F71092620506C087EA92E010
:100350000E94CF0A1092620566960FB6F894DEBF2F
:100360000FBECDBFDF91CF911F910F91FF900895E8
:1003700073D652D085D580E07ED050D5A7D593D303
:1003800085EB92E00E94CF0A0F2EFFEDCF2EF2E018
:10039000DF2EF02D0F2EF8EEEF2EF2E0FF2EF02DD7
:1003A0000FEE12E011DF5CD0EC01D695C795D69523
:1003B000C795CE0199279F938F93DF92CF920E948A
:1003C000BC0A4ED09F938F93FF92EF920E94BC0A7B
:1003D0008C2FC3D3C8D3ADD4C82FA8D4D82F1F9285
:1003E0008F931F92CF931F930F930E94BC0A6D2F80
:1003F0008C2F33D32FEF81EE94E02150804090403A
:10040000E1F700C000008DB79EB70E960FB6F894C6
:100410009EBF0FBE8DBFC6CF86E093E00E94CF0A7D
:10042000ECE7F0E0808181648083EAE7F0E080819E
:10043000876880838081806880830895ECE7F0E09E
:10044000808181648083EAE7F0E08081806480833A
:10045000808186FDFDCF809178009091790008958C
:10046000EDCF0895EBDF21E030E0889710F020E039
:1004700030E0C9010895CF93C82F88E193E09F939E
:100480008F930E94BC0A8C2FECD14FEF63E08BE27C
:1004900085D260E08CE2D6D14FEF68E080E37ED277
:1004A0000F900F90CF910895AF92BF92CF92DF92AD
:1004B000EF92FF920F931F93CF93DF93CDB7DEB7E9
:1004C00028970FB6F894DEBF0FBECDBF6C014FEF7B
:1004D00068E080E363D240E06CE18CE25FD2F60139
:1004E00040814295440F407E60EE82E357D2F60190
:1004F0006081718176956795769567957695679514
:1005000081E3A0D1F601628185E39CD188E0EFE030
:10051000F2E0DE01119601900D928A95E1F7F60165
:1005200082818823C9F07601F3E0EF0EF11C8E0181
:100530000F5F1F4FA12CB12CF70161917F01F801D2
:1005400081918F017FD1FFEFAF1ABF0AF60182813F
:1005500090E0A816B90684F381E818D228960FB661
:10056000F894DEBF0FBECDBFDF91CF911F910F91E9
:10057000FF90EF90DF90CF90BF90AF9008957F9263
:100580008F929F92AF92BF92CF92DF92EF92FF92A3
:100590000F931F93CF93DF93CDB7DEB763970FB65B
:1005A000F894DEBF0FBECDBF4C018CE23ED180FD82
:1005B00006C08BE0D4011D928A95E9F750C0FE0178
:1005C00031968BE0DF011D928A95E9F781E62DD106
:1005D000A82E82E62AD1B12CAA0CBB1CAA0CBB1CEB
:1005E000AA0CBB1C829586958770A80EB11C85E667
:1005F0001CD18F70782EB8E0B81718F4689477245F
:1006000073F888E0E7E1F2E0DE011C9601900D92BC
:100610008A95E1F77720A1F08E01045F1F4F7E01DC
:10062000E4E0EE0EF11C6801C70CD11CD8018D91DD
:100630008D01FBD0F70181937F010C151D05B1F7EA
:1006400040E061E08CE2AAD1BA82A9827B828BE091
:10065000FE013196D40101900D928A95E1F7C40113
:1006600063960FB6F894DEBF0FBECDBFDF91CF917A
:100670001F910F91FF90EF90DF90CF90BF90AF90C0
:100680009F908F907F900895089526C40895CF93EA
:10069000DF9300D0CDB7DEB790E599831A828B83C4
:1006A00063E0CE01019628D40F900F900F90DF9158
:1006B000CF91089510926305089580916305089580
:1006C0001F920F920FB60F9211240BB60F922F9319
:1006D0003F934F935F936F937F938F939F93AF93CA
:1006E000BF93EF93FF9387E293E059D7FF91EF9188
:1006F000BF91AF919F918F917F916F915F914F913A
:100700003F912F910F900BBE0F900FBE0F901F9037
:1007100018951F920F920FB60F9211240F900FBED3
:100720000F901F9018951F920F920FB60F921124E1
:100730000F900FBE0F901F9018951F920F920FB63B
:100740000F9211240BB60F920F931F932F933F9389
:100750004F935F936F937F938F939F93AF93BF93C9
:10076000EF93FF93CF93DF93CDB7DEB72B97DEBF29
:10077000CDBF86E393E013D7CE01019600DF1D8144
:100780000A8582DF89819A810A9731F58E811F92CD
:100790008F931F921F938C811F928F9381E493E01C
:1007A0009F938F93E9D6612F70E080E090E079D538
:1007B0003FD30FB6F894DEBF0FBECDBF013079F442
:1007C00065D39FEF20E782E0915020408040E1F721
:1007D00000C000005DD303C084E593E0E0D62B9613
:1007E0000FB6F894DEBF0FBECDBFDF91CF91FF9162
:1007F000EF91BF91AF919F918F917F916F915F9199
:100800004F913F912F911F910F910F900BBE0F9021
:100810000FBE0F901F9018952F9808952F9A089546
:10082000FBDF80EC40D3FACF0895CF93C82FF4DFDD
:1008300083E039D38C2F37D33BD3C82FEFDF8C2FF6
:10084000CF910895CF93DF93D82FC62FE5DF82E0B5
:100850002AD38D2F28D38C2F26D3E0DFDF91CF91A1
:1008600008950F931F93CF93DF9300D000D0CDB79F
:10087000DEB7182F0FD38D819E81883E934050F4B0
:100880008D819E8101969E838D838D819E81883E80
:100890009340B0F3C5DF8B819C81883E934050F438
:1008A0008B819C8101969C838B838B819C81883E6C
:1008B0009340B0F38EE0B9DF082F89819A81883E9A
:1008C000934050F489819A8101969A838983898122
:1008D0009A81883E9340B0F31F920F938DE893E086
:1008E0009F938F9349D6007E0F900F900F900F909B
:1008F000003829F08AE993E052D601E03BC0612F2D
:100900008FE0A0DF8EE091DF082F007E011729F035
:100910008EEC93E044D601E02DC0011104C085EFB8
:1009200093E03DD627C0003229F482E194E037D627
:1009300000E020C0003429F48EE294E030D600E0DC
:1009400019C0003629F48DE494E029D600E012C0E5
:10095000003829F48FE694E022D600E00BC0003E78
:1009600029F48AE894E01BD600E004C087EA94E00A
:1009700016D600E0802F26960FB6F894DEBF0FBE85
:10098000CDBFDF91CF911F910F910895CF93C82FC5
:1009900043DF8C2F88D242DFCF9108951F93CF93EE
:1009A000DF93182FD62FC42F37DF85E07CD2812F1D
:1009B0007AD28D2F78D28C2F76D230DFDF91CF9103
:1009C0001F910895E2E0F1E080818064808380815E
:1009D0008F7D80838081877F808387EC90E0019783
:1009E000F1F700C00000A6E0B1E02C9180818860A2
:1009F000808387EC90E00197F1F700C000008C91B4
:100A000090819062908390E0922B0895E2E0F1E073
:100A100080818F7B808387EE93E00197F1F700C0A0
:100A200000008081806480830895813051F018F047
:100A3000823069F00895E2E0F1E080818D7F80836B
:100A40000895E2E0F1E08081826080830895E2E031
:100A5000F1E080818D7F80830895CF93C62F813010
:100A600039F018F0823039F008C080E0DEDF05C0D0
:100A700081E0DBDF02C082E0D8DF8C2F08DECF917F
:100A80000895CF93C82F60E5E8DF2FEF87EA91E65E
:100A9000215080409040E1F700C0000060E08C2FC2
:100AA000DCDFCF910895F1DDE1E0F1E0808180614C
:100AB0008083A2E0B1E08C9180618C938081826020
:100AC0008083808180628083808188608083808150
:100AD000806480838081826080838C9182608C932B
:100AE0008C9180648C938C9180628C93109207011E
:100AF00088EC94E054D580E0C4DF8AED94E04FD5D3
:100B000081E0BFDF83DF85EE94E049D55BDF9F9313
:100B10008F9388EF94E09F938F932ED50F900F9033
:100B20000F900F9008954EDF813E2FEF92071CF437
:100B30001092790508959C01992314F4215E3F4F8A
:100B4000359527953595279535952795359527958D
:100B50003595279520937905089590E09093780531
:100B60008093770508958F929F92AF92BF92CF9214
:100B7000DF92EF92FF92CF93DF93D5DF80917905DB
:100B80006091770570917805EB01C81BD109D0936E
:100B90007D05C0937C05CE010996439748F41092D9
:100BA00070051092710510927205109273051EC0A7
:100BB000BE010D2E000C880B990B75D32AE037ED82
:100BC00043EA5CE324D49B01AC0160917005709111
:100BD0007105809172059091730562D260937005E2
:100BE00070937105809372059093730580917A05D7
:100BF00090917B05BE01681B790B072E000C880BBA
:100C0000990B51D32AE037ED43EA5CE3B1D26B0193
:100C10007C0160936C0570936D0580936E059093D5
:100C20006F052091700530917105409172055091CA
:100C30007305609168057091690580916A059091CE
:100C40006B05E5D34B015C01BE01DD0F880B990BF1
:100C50002AD3209106023091070240910802509158
:100C60000902D5D39B01AC01C501B40119D24B01D6
:100C70005C012091640530916505409166055091B5
:100C80006705C701B601C3D39B01AC01C501B4011F
:100C900007D2D6D29B0170937505609374057723B4
:100CA000A4F441E04093850569334FEF74074CF09D
:100CB000772324F422273327261B370B209376052E
:100CC0000FC088EC809376050BC010928505683CB8
:100CD00071051CF46093760503C088EC809376055B
:100CE0008091740590917505C29724F482E38093F6
:100CF000760509C080917C0590917D05181619062E
:100D000014F01092760580917C0590917D0590936A
:100D10007B0580937A05DF91CF91FF90EF90DF9074
:100D2000CF90BF90AF909F908F900895809176055F
:100D30000895809185050895CF92DF92EF92FF92FA
:100D40006B017C01E1E8F0E0808184608083808138
:100D50008D7F808380818E7F808360910A02709175
:100D60000B0280910C0290910D029BD2A70196017B
:100D70004ED366D27093870060938600FF90EF9009
:100D8000DF90CF900895E1E8F0E08081806180837A
:100D9000808188608083E0E8F0E0808182608083E9
:100DA00080818E7F808380818068808380818F7B3B
:100DB0008083259A2D986AE077ED83EA9CE3BCCF87
:100DC0000895CF92DF92EF92FF9220E030E04EEF55
:100DD00052E4CED121E539E44DE15AE318D32AEFAC
:100DE0003DEE4BE65AE35CD16B017C0160910A0257
:100DF00070910B0280910C0290910D0252D29B01D6
:100E0000AC01C701B60103D31BD270938900609374
:100E10008800FF90EF90DF90CF90089580E195E0FB
:100E2000BED3B1DF60E070E08FEF92E4CACF0895E7
:100E3000CF92DF92EF92FF926B017C0120E030E0D5
:100E40004FE753E4E0D2181634F460E070E08FE727
:100E500093E4B7DF10C020E030E0A901C701B6017C
:100E600083D188232CF460E070E0CB01AADF03C0BB
:100E7000C701B601A6DFFF90EF90DF90CF900895F5
:100E800084E295E08CD3529A5A9808955A9808951E
:100E90005A9A089584B1876884B9239881E58CBDF6
:100EA000289A2F9A08958EBD0DB407FEFDCF0895A0
:100EB00080E0F9DF0DB407FEFDCF8EB5089587E021
:100EC0008093B10081E08093700008958BE395E0FA
:100ED00066D3F5DF78940895E8EBF0E08CE080834A
:100EE00080831092B900ECEBF0E084E080839FEF08
:100EF0009093BB0080830895DC01ECEBF0E09081DF
:100F000090FDFDCF609380058C918093810580FDDD
:100F10000CC0623050F0FD013196A2E8B5E081E0EE
:100F200091919D938F5F6813FBCF10927F0588EF9F
:100F300080930E0285EA8093BC0008951F920F9261
:100F40000FB60F9211240BB60F922F933F938F93EE
:100F50009F93AF93BF93EF93FF93E091B9008E2FD0
:100F600090E0FC013897E135F10508F057C088277B
:100F7000EE58FF4F8F4FAEC210927E05E0917E0576
:100F800080918005E81770F481E08E0F80937E05D4
:100F9000F0E0EF57FA4F80818093BB0085E88093A3
:100FA000BC0043C080917F05816080937F0584E908
:100FB0008093BC003AC0E0917E0581E08E0F809363
:100FC0007E058091BB00F0E0EF57FA4F80832091BF
:100FD0007E0530E08091800590E001972817390761
:100FE00024F485EC8093BC0020C085E88093BC008D
:100FF0001CC08091BB00E0917E05F0E0EF57FA4FF6
:10100000808380917F05816080937F0584E9809350
:10101000BC000BC085EA8093BC0007C08091B9007A
:1010200080930E0284E08093BC00FF91EF91BF910A
:10103000AF919F918F913F912F910F900BBE0F9089
:101040000FBE0F901F901895E0ECF0E08081882390
:10105000ECF78091C60008951092C50080E180935E
:10106000C40088E18093C1008EE08093C20064E2F6
:1010700078E086E498E036D281E595E090C2089564
:101080008091C00085FB882780F90895CF93C82FF1
:10109000F7DF8823E9F3C093C600CF910895505835
:1010A000BB27AA270ED075C166D130F06BD120F0D6
:1010B00031F49F3F11F41EF45BC10EF4E095E7FBA1
:1010C00051C1E92F77D180F3BA17620773078407FC
:1010D000950718F071F49EF58FC10EF4E0950B2E74
:1010E000BA2FA02D0B01B90190010C01CA01A0017A
:1010F0001124FF27591B99F0593F50F4503E68F1D5
:101100001A16F040A22F232F342F4427585FF3CF15
:10111000469537952795A795F0405395C9F77EF4E6
:101120001F16BA0B620B730B840BBAF09150A1F02F
:10113000FF0FBB1F661F771F881FC2F70EC0BA0FB5
:10114000621F731F841F48F4879577956795B7953D
:10115000F7959E3F08F0B3CF9395880F08F0992735
:10116000EE0F979587950895D9D008F481E00895FA
:101170000CD00FC107D140F0FED030F021F45F3F1A
:1011800019F0F0C0511139C1F3C014D198F399236B
:10119000C9F35523B1F3951B550BBB27AA2762173B
:1011A0007307840738F09F5F5F4F220F331F441F80
:1011B000AA1FA9F333D00E2E3AF0E0E830D09150B8
:1011C0005040E695001CCAF729D0FE2F27D0660FA5
:1011D000771F881FBB1F261737074807AB07B0E8E4
:1011E00009F0BB0B802DBF01FF2793585F4F2AF0FA
:1011F0009E3F510568F0B6C000C15F3FECF3983EDA
:10120000DCF3869577956795B795F7959F5FC9F756
:10121000880F911D9695879597F90895E1E0660FDF
:10122000771F881FBB1F621773078407BA0720F058
:10123000621B730B840BBA0BEE1F88F7E0950895C1
:1012400004D06894B111D9C00895BCD088F09F57DC
:1012500090F0B92F9927B751A0F0D1F0660F771F02
:10126000881F991F1AF0BA95C9F712C0B13081F0E2
:10127000C3D0B1E00895C0C0672F782F8827B85F2A
:1012800039F0B93FCCF3869577956795B395D9F743
:101290003EF490958095709561957F4F8F4F9F4F4D
:1012A0000895E89409C097FB3EF490958095709559
:1012B00061957F4F8F4F9F4F9923A9F0F92F96E9A2
:1012C000BB279395F695879577956795B795F11117
:1012D000F8CFFAF4BB0F11F460FF1BC06F5F7F4FB4
:1012E0008F4F9F4F16C0882311F096E911C07723C6
:1012F00021F09EE8872F762F05C0662371F096E8CF
:10130000862F70E060E02AF09A95660F771F881F9D
:10131000DAF7880F9695879597F90895990F000841
:10132000550FAA0BE0E8FEEF16161706E807F907B7
:10133000C0F012161306E407F50798F0621B730B52
:10134000840B950B39F40A2661F0232B242B252BD3
:1013500021F408950A2609F4A140A6958FEF811D76
:10136000811D089597F99F6780E870E060E0089517
:101370009FEF80EC089500240A94161617061806AD
:101380000906089500240A94121613061406050689
:101390000895092E0394000C11F4882352F0BB0F1A
:1013A00040F4BF2B11F460FF04C06F5F7F4F8F4F7D
:1013B0009F4F089557FD9058440F551F59F05F3FB8
:1013C00071F04795880F97FB991F61F09F3F79F067
:1013D00087950895121613061406551FF2CF4695E9
:1013E000F1DF08C0161617061806991FF1CF86956B
:1013F0007105610508940895E894BB27662777274F
:10140000CB0197F908958ADF08F48FEF08950BD088
:10141000C0CFB1DF28F0B6DF18F0952309F0A2CFD6
:10142000A7CF1124EACFC6DFA0F3959FD1F3950F84
:1014300050E0551F629FF001729FBB27F00DB11D58
:10144000639FAA27F00DB11DAA1F649F6627B00DE8
:10145000A11D661F829F2227B00DA11D621F739FD1
:10146000B00DA11D621F839FA00D611D221F749FDF
:101470003327A00D611D231F849F600D211D822F26
:10148000762F6A2F11249F5750408AF0E1F088236D
:101490004AF0EE0FFF1FBB1F661F771F881F91507A
:1014A0005040A9F79E3F510570F05CCFA6CF5F3F3B
:1014B000ECF3983EDCF3869577956795B795F795AD
:1014C000E7959F5FC1F7FE2B880F911D9695879535
:1014D00097F90895EE0FFF1F881F8BBF0790F691B5
:1014E000E02D19940F931F93CF93DF93009731F45E
:1014F0006115710519F480E090E039C08B01EC01B1
:101500006EE070E081E090E077D2FC01892B99F3E6
:1015100080E883830115110571F01387028781E844
:1015200083838091860590918705892B21F4F09320
:101530008705E09386052097C9F0D187C08783810E
:10154000826083838091880590918905892B71F44D
:10155000F0938905E093880580918A0590918B0529
:10156000892B21F4F0938B05E0938A05CF01DF915D
:10157000CF911F910F910895CF93DF93CDB7DEB731
:10158000AE014A5F5F4FFA0161917191AF018091A5
:1015900088059091890533D0DF91CF9108950F93FD
:1015A0001F93CF93DF93E0918805F0918905238104
:1015B00021FF1BC08C01D0E0C0E0F80181918F01B8
:1015C0006091880570918905DB011896ED91FC9179
:1015D0001997882331F01995892B79F3DFEFCFEF35
:1015E000ECCF8AE01995892B19F08FEF9FEF02C09D
:1015F0008D2F9C2FDF91CF911F910F9108952F92E6
:101600003F924F925F926F927F928F929F92AF9292
:10161000BF92CF92DF92EF92FF920F931F93CF93DF
:10162000DF93CDB7DEB72B970FB6F894DEBF0FBEB2
:10163000CDBF6C017B018A01FC0117821682838178
:1016400081FFBFC1CE0101963C01F6019381F701F4
:1016500093FD859193FF81917F01882309F4ADC1AA
:10166000853239F493FD859193FF81917F01853215
:1016700021F4B60190E018D3E8CF912C212C312C25
:10168000FFE1F315D8F08B3279F038F4803279F03D
:101690008332A1F4232D20611DC08D3261F080338F
:1016A00069F4232D216016C0832D8260382EE32D2E
:1016B000E4603E2E2AC0F32DF8601DC037FC2DC01B
:1016C00020ED280F2A3040F08E32B9F436FC75C177
:1016D000232D2064322E19C036FE06C08AE0989E63
:1016E000200D1124922E11C0EAE02E9E200D11240F
:1016F000222EF32DF0623F2E08C08C3621F4832D6C
:101700008068382E02C0883641F4F70193FD859138
:1017100093FF81917F018111B3CF982F9F7D9554C5
:10172000933028F40C5F1F4F9FE399830DC08336DD
:1017300031F0833771F0833509F055C020C0F801CE
:10174000808189830E5F1F4F88248394912C5301DD
:1017500012C02801F2E04F0E511CF801A080B180A8
:1017600036FE03C0692D70E002C06FEF7FEFC50148
:1017700090D24C018201F32DFF773F2E15C0280136
:1017800022E0420E511CF801A080B18036FE03C059
:10179000692D70E002C06FEF7FEFC50168D24C0188
:1017A000F32DF0683F2E820133FC19C0822D90E0AA
:1017B00088169906A0F4B60180E290E075D22A94CA
:1017C000F5CFF50137FC859137FE81915F01B601B8
:1017D00090E06AD221102A9421E0821A91088114A3
:1017E000910479F7E1C0843611F0893639F5F801B2
:1017F00037FE07C060817181828193810C5F1F4F2A
:1018000008C060817181072E000C880B990B0E5F58
:101810001F4FF32DFF763F2E97FF09C090958095BF
:10182000709561957F4F8F4F9F4FF0683F2E2AE054
:1018300030E0A30175D2882E861844C0853731F474
:10184000232D2F7EB22E2AE030E025C0932D997FE4
:10185000B92E8F36C1F018F4883579F0AEC08037D4
:1018600019F0883721F0A9C0E92FE061BE2EB4FE3F
:101870000DC0FB2DF460BF2E09C034FE0AC0292F15
:101880002660B22E06C028E030E005C020E130E03E
:1018900002C020E132E0F801B7FE07C0608171812B
:1018A000828193810C5F1F4F06C06081718180E04F
:1018B00090E00E5F1F4FA30133D2882E8618FB2DB8
:1018C000FF773F2E36FE0DC0232D2E7FA22E8914CA
:1018D00058F434FE0BC032FC09C0832D8E7EA82E36
:1018E00005C0B82CA32C03C0B82C01C0B92CA4FE91
:1018F0000FC0FE01E80DF11D8081803321F49A2D87
:10190000997EA92E09C0A2FE06C0B394B39404C068
:101910008A2D867809F0B394A3FC10C0A0FE06C0FF
:10192000B21480F4280C922C9B180DC0B21458F4F9
:10193000B60180E290E0B8D1B394F8CFB21418F4B5
:101940002B1802C0982C212CA4FE0FC0B60180E3F6
:1019500090E0AAD1A2FE16C0A1FC03C088E790E0E7
:1019600002C088E590E0B6010CC08A2D867851F05F
:10197000A1FE02C08BE201C080E2A7FC8DE2B601AD
:1019800090E092D1891430F4B60180E390E08CD1DC
:101990009A94F8CF8A94F301E80DF11D8081B60185
:1019A00090E082D18110F6CF222009F44ECEB6010C
:1019B00080E290E079D12A94F7CFF6018681978171
:1019C00002C08FEF9FEF2B960FB6F894DEBF0FBECD
:1019D000CDBFDF91CF911F910F91FF90EF90DF90DE
:1019E000CF90BF90AF909F908F907F906F905F90BF
:1019F0004F903F902F9008950F931F93CF93DF93B5
:101A0000869F8001879F100D969F100D1124C8019D
:101A10000DD0EC01009721F0A80160E070E032D118
:101A2000CE01DF91CF911F910F9108950F931F93D6
:101A3000CF93DF938230910510F482E090E0E09143
:101A40008E05F0918F0520E030E0A0E0B0E0309707
:101A500019F1408151810281138148175907C8F05B
:101A60008417950769F4109731F012960C9312972A
:101A700013961C9327C000938E0510938F0522C0E8
:101A80002115310519F04217530718F49A01BD01C9
:101A9000EF01DF01F801DBCF21153105F9F0281B3B
:101AA000390B2430310580F48A819B8161157105E1
:101AB00021F0FB019383828304C090938F05809370
:101AC0008E05FE01329644C0FE01E20FF31F8193A2
:101AD000919322503109398328833AC020918C0593
:101AE00030918D05232B41F42091020230910302A5
:101AF00030938D0520938C052091000230910102D6
:101B00002115310541F42DB73EB7409104025091A3
:101B10000502241B350BE0918C05F0918D05E21731
:101B2000F307A0F42E1B3F0B2817390778F0AC0100
:101B30004E5F5F4F2417350748F04E0F5F1F5093DD
:101B40008D0540938C058193919302C0E0E0F0E015
:101B5000CF01DF91CF911F910F910895CF93DF9324
:101B6000009709F481C0FC01329713821282A09180
:101B70008E05B0918F05109781F420813181820FFD
:101B8000931F20918C0530918D052817390751F549
:101B9000F0938D05E0938C0567C0ED0120E030E007
:101BA000CE17DF0740F44A815B819E014115510544
:101BB000F1F0EA01F5CFD383C28340815181840FD4
:101BC000951FC817D90759F488819981840F951FEB
:101BD0000296918380838A819B81938382832115DE
:101BE000310529F4F0938F05E0938E053DC0E9019E
:101BF000FB83EA8349915991C40FD51FEC17FD0768
:101C000061F480819181840F951F0296E901998387
:101C10008883828193819B838A83E0E0F0E012963F
:101C20008D919C911397009719F0FD01DC01F7CF7E
:101C30008D919C9111979D012E5F3F4F820F931FB5
:101C400020918C0530918D052817390769F430975C
:101C500029F410928F0510928E0502C01382128211
:101C6000B0938D05A0938C05DF91CF910895FC0171
:101C70000590615070400110D8F7809590958E0FB7
:101C80009F1F0895DC0101C06D9341505040E0F763
:101C90000895FC016150704001900110D8F78095C3
:101CA00090958E0F9F1F08950F931F93CF93DF93EF
:101CB000FB01238121FD03C08FEF9FEF2CC022FF8A
:101CC00016C046815781248135814217530744F459
:101CD000A081B1819D012F5F3F4F318320838C9381
:101CE000268137812F5F3F4F3783268314C08B01B6
:101CF000EC01FB010084F185E02D1995892BE1F6BB
:101D0000D80116968D919C911797019617969C93E2
:101D10008E931697CE01DF91CF911F910F91089569
:101D2000FA01AA27283051F1203181F1E8946F930C
:101D30006E7F6E5F7F4F8F4F9F4FAF4FB1E03ED0B2
:101D4000B4E03CD0670F781F891F9A1FA11D680F50
:101D5000791F8A1F911DA11D6A0F711D811D911D83
:101D6000A11D20D009F468943F912AE0269F1124F8
:101D70003019305D3193DEF6CF010895462F47705C
:101D8000405D4193B3E00FD0C9F7F6CF462F4F70B7
:101D9000405D4A3318F0495D31FD4052419302D015
:101DA000A9F7EACFB4E0A6959795879577956795BB
:101DB000BA95C9F700976105710508959B01AC01BB
:101DC0000A2E06945795479537952795BA95C9F7E2
:101DD000620F731F841F951FA01D0895F894FFCFF5
:101DE0000000900520000000604024F40000F83658
:101DF0003738393A3B3C3D666768696A6B6C6D6998
:101E0000643A2025640A004E6F646520323A204906
:101E1000444C45207374617465004E6F64652032D4
:101E20003A20494E4954207374617465004E6F64C2
:101E30006520323A2052554E4E494E472073746108
:101E40007465004D616B696E67206120536F6C652E
:101E50006E6F69642050756C7365210042616C6C13
:101E600020646574656374656421205249502100C3
:101E70004E6F6465322053746174653A2047414D5A
:101E8000455F4F5645520053746174653A204F5474
:101E900048455253000A2A2A2A2A46696E697368FD
:101EA00065642073657474696E6720757020417471
:101EB0006D65676132353630212A2A2A2A0A0041A7
:101EC00044433A2025640A0049523A2025640064BC
:101ED00069723A2025642020202073706565643A79
:101EE000202564200A003C41444320496E697469FE
:101EF000616C697A65643E003C43414E2069732001
:101F000072656164793E003C536F6C656E6F696405
:101F10002049525148003C43414E20495251483ECD
:101F20000052656365697665642025642025642018
:101F300025640A003C4552524F523E204E6F206DA0
:101F40006573736167652077617320726563656986
:101F5000766564203C534F555243453E2043414EE5
:101F6000204952512048616E646C65720043414EB5
:101F7000535441543A2025640A003C4D43503235B5
:101F80003135206973204E4F5420696E20636F6E87
:101F900066696775726174696F6E206D6F64652024
:101FA0006166746572207265736574213E003C4DF4
:101FB000435032353135206973204E4F5420696EBD
:101FC000207468652073656C6563746564206D6F4B
:101FD0006465213E003C4D435032353135206973F4
:101FE00020696E204E4F524D414C206D6F64652E1E
:101FF0003E003C4D43503235313520697320696EC7
:1020000020534C454550206D6F64652E3E003C4D7D
:1020100043503235313520697320696E204C4F4F63
:10202000504241434B206D6F64652E3E003C4D4352
:10203000503235313520697320696E204C49535434
:10204000454E204F4E4C59206D6F64652E3E004D1D
:1020500043503235313520697320696E20434F4E2D
:10206000464947206D6F64652E004D43503235312F
:102070003520697320696E20504F574552205550C6
:10208000206D6F64652E004D435032353135206927
:102090007320696E204E4F4E4520444546494E45BB
:1020A00044206D6F64652E000A3C54657374696E3C
:1020B00067206D6F746F72213E002E2E2E2E2E2EF5
:1020C0002E2E2E2E003C4D6F746F722043616C6972
:1020D0006272617465643E003E456E636F64657252
:1020E00020726573657420746F3A2025643E0A007F
:1020F0003C536572766F20496E697469616C697AC8
:1021000065643E003C536F6C656E6F696420496E78
:10211000697469616C697A65643E003C54696D65F7
:10212000727320496E697469616C697A6564213ED5
:10213000003C5553415254206973207265616479A3
:022140003E005F
:00000001FF
