:10000000C2C00000E0C00000DEC000004FC200001F
:10001000DAC00000D8C00000D6C00000D4C0000084
:10002000D2C00000D0C00000CEC00000CCC0000094
:10003000CAC00000C8C00000C6C0000004C2000062
:10004000C2C00000C0C00000BEC00000BCC00000B4
:10005000F0C10000B8C00000B6C00000C1C100007F
:10006000B2C00000B0C00000AEC00000ACC00000D4
:10007000AAC00000A8C00000A6C00000A4C00000E4
:10008000A2C00000A0C000009EC000009CC00000F4
:100090009AC0000098C0000096C00000A8C50000EB
:1000A00092C0000090C000008EC000008CC0000014
:1000B0008AC0000088C0000086C0000084C0000024
:1000C00082C0000080C000007EC000007CC0000034
:1000D0007AC0000078C0000076C0000074C0000044
:1000E00072C00000150667066706670667066706A2
:1000F00067066706150667066706670667066706EA
:1001000067066706170667066706670667066706D7
:100110006706670667066706670667066706670677
:1001200067066706170667066706670667066706B7
:100130006706670667066706670667066706670657
:10014000670667066306670667066706670667064B
:10015000670667064006670667066706670667065E
:100160006706670667066706670667066706670627
:10017000670667063406670667066706670667064A
:1001800067066706520611241FBECFEFD1E2DEBF1D
:10019000CDBF00E00CBF14E0A0E0B2E0E0E9FAE17E
:1001A00000E00BBF02C007900D92A63BB107D9F744
:1001B00024E0A6EBB4E001C01D92AE3DB207E1F72A
:1001C00003D00C94460D1CCFA0D529D08AD4A1D23F
:1001D000EFD2B9D480E04BD0D8D487E292E00E942D
:1001E0002709C1E5D2E037D09F938F93DF93CF9358
:1001F0000E94140932D00F900F900F900F90892B0E
:1002000021F08AE592E00E942709E7D0882359F37C
:10021000F0D3182FF1D3612FB7D2DCD0E4CF8EE624
:1002200092E00E942709ECE7F0E0808180648083FF
:10023000EAE7F0E08081806880830895EAE7F0E0F3
:10024000808180648083808186FDFDCF80917800ED
:10025000909179000895F2CF0895F0DF21E030E029
:100260008436910510F020E030E0C9010895CF9365
:10027000C82F80E892E09F938F93D6D78C2FA0D180
:100280004FEF63E08BE231D260E08CE28AD14FEF36
:1002900068E080E32AD20F900F90CF9108957F926B
:1002A0008F929F92AF92BF92CF92DF92EF92FF9286
:1002B0000F931F93CF93DF93CDB7DEB763970FB63E
:1002C000F894DEBF0FBECDBF4C018CE25DD180FD46
:1002D00006C08BE0D4011D928A95E9F750C0FE015B
:1002E00031968BE0DF011D928A95E9F781E64CD1CA
:1002F000A82E82E649D1B12CAA0CBB1CAA0CBB1CAF
:10030000AA0CBB1C829586958770A80EB11C85E649
:100310003BD18F70782EB8E0B81718F46894772422
:1003200073F888E0EFE1F2E0DE011C9601900D9297
:100330008A95E1F77720A1F08E01045F1F4F7E01BF
:10034000E4E0EE0EF11C6801C70CD11CD8018D91C0
:100350008D011AD1F70181937F010C151D05B1F7AD
:1003600040E061E08CE2C1D1BA82A9827B828BE05D
:10037000FE013196D40101900D928A95E1F7C401F6
:1003800063960FB6F894DEBF0FBECDBFDF91CF915D
:100390001F910F91FF90EF90DF90CF90BF90AF90A3
:1003A0009F908F907F9008950895F5C30895CF93FF
:1003B000DF9300D0CDB7DEB79AE099831A828B83A2
:1003C00063E0CE010196F1D30F900F900F90DF9173
:1003D000CF9108951092B60408958091B6040895BF
:1003E0001F920F920FB60F9211240BB60F922F93FC
:1003F0003F934F935F936F937F938F939F93AF93AD
:10040000BF93EF93FF938FE892E021D7FF91EF9195
:10041000BF91AF919F918F917F916F915F914F911C
:100420003F912F910F900BBE0F900FBE0F901F901A
:1004300018951F920F920FB60F9211240F900FBEB6
:100440000F901F9018951F920F920FB60F921124C4
:100450000BB60F922F933F934F935F936F937F93BE
:100460008F939F93AF93BF93EF93FF938EE992E0A7
:10047000EED6A2D1A2D1E6D100D25CD288D2D9D117
:1004800081E08093B604FF91EF91BF91AF919F916E
:100490008F917F916F915F914F913F912F910F902D
:1004A0000BBE0F900FBE0F901F9018951F920F92CA
:1004B0000FB60F9211240BB60F92FF920F931F935A
:1004C0002F933F934F935F936F937F938F939F935C
:1004D000AF93BF93EF93FF93CF93DF93CDB7DEB787
:1004E0002B97DEBFCDBF8BEA92E0B1D6CE0101964D
:1004F000D6DE0C811D81FE8057DF89819A810A97A3
:10050000C9F41F92FF921F921F931F920F9386EBC5
:1005100092E09F938F9388D6612F70E080E090E007
:1005200018D5E9D2802F5FD20FB6F894DEBF0FBE88
:10053000CDBF03C089EC92E08AD62B960FB6F89413
:10054000DEBF0FBECDBFDF91CF91FF91EF91BF9185
:10055000AF919F918F917F916F915F914F913F915B
:100560002F911F910F91FF900F900BBE0F900FBE18
:100570000F901F9018952F9808952F9A0895FBDFDC
:1005800080ECF0D2FACF0895CF93C82FF4DF83E048
:10059000E9D28C2FE7D2EBD2C82FEFDF8C2FCF918F
:1005A0000895CF93DF93D82FC62FE5DF82E0DAD20C
:1005B0008D2FD8D28C2FD6D2E0DFDF91CF91089546
:1005C0000F931F93CF93DF9300D000D0CDB7DEB74A
:1005D000182FBFD28D819E81883E934050F48D812B
:1005E0009E8101969E838D838D819E81883E93405E
:1005F000B0F3C5DF8B819C81883E934050F48B81A2
:100600009C8101969C838B838B819C81883E934047
:10061000B0F38EE0B9DF082F89819A81883E93403C
:1006200050F489819A8101969A83898389819A817C
:10063000883E9340B0F31F920F9382E093E09F9324
:100640008F93F2D5007E0F900F900F900F9000388F
:1006500029F08FE093E0FBD501E03BC0612F8FE0F4
:10066000A0DF8EE091DF082F007E011729F083E4E0
:1006700093E0EDD501E02DC0011104C08AE693E0BE
:10068000E6D527C0003229F487E893E0E0D500E002
:1006900020C0003429F483EA93E0D9D500E019C0E2
:1006A000003629F482EC93E0D2D500E012C0003885
:1006B00029F484EE93E0CBD500E00BC0003E29F492
:1006C0008FEF93E0C4D500E004C08CE194E0BFD587
:1006D00000E0802F26960FB6F894DEBF0FBECDBF88
:1006E000DF91CF911F910F9108951F93CF93DF93C7
:1006F000182FD62FC42F3FDF85E034D2812F32D27E
:100700008D2F30D28C2F2ED238DFDF91CF911F91D9
:1007100008958DE394E09BD548DEE2E0F1E080812E
:100720008061808380818062808380818860808313
:1007300080818064808380818260808336B128B12B
:1007400081E090E002C0880F991F3A95E2F780950A
:100750009095822388B90895813051F018F0823045
:1007600069F00895E2E0F1E080818D7F8083089553
:10077000E2E0F1E08081826080830895E2E0F1E0D0
:1007800080818D7F80830895CF93C62F813039F08B
:1007900018F0823039F008C080E0DEDF05C081E06B
:1007A000DBDF02C082E0D8DF8C2F01DECF9108951D
:1007B00081E594E04CC508950895CF92DF92EF92C1
:1007C000FF92CF93DF936091C8047091C904809128
:1007D000CA049091CB04EB01C81BD90BD093C5047C
:1007E000C093C40420910A0230910B0240910C0284
:1007F00050910D0260E070E088E492E411D36B0147
:100800007C01BE01DD0F880B990BA5D3A7019601D2
:1008100052D418163CF4C701B6016AD37093C504CC
:100820006093C404DF91CF91FF90EF90DF90CF9061
:1008300008958091C4049091C5049093C704809357
:10084000C60408956091C4047091C504072E000C7D
:10085000880B990B80D320910E0230910F024091AA
:100860001002509111022BD46093C0047093C10404
:100870008093C2049093C30408958F929F92AF9285
:10088000BF92CF92DF92EF92FF92CF93DF93C0910E
:10089000C404D091C5041C161D064CF01092BC0473
:1008A0001092BD041092BE041092BF0438C0BE0165
:1008B0000D2E000C880B990B4ED36B017C018090A0
:1008C0000A0290900B02A0900C02B0900D02A501BC
:1008D000940160E070E088E492E4A2D29B01AC0154
:1008E000C701B60199D28823D4F42297C4F0A50198
:1008F0009401C701B601E3D39B01AC016091BC0434
:100900007091BD048091BE049091BF0421D2609388
:10091000BC047093BD048093BE049093BF04DF9128
:10092000CF91FF90EF90DF90CF90BF90AF909F90CE
:100930008F9008956091C4047091C504161617062F
:100940004CF01092B8041092B9041092BA041092AC
:10095000BB0408958091C6049091C704681B790B6D
:10096000072E000C880B990BF6D2209106023091CD
:1009700007024091080250910902A1D36093B80484
:100980007093B9048093BA049093BB0408952091A6
:10099000BC043091BD044091BE045091BF046091ED
:1009A000C0047091C1048091C2049091C304D0D15D
:1009B0002091B8043091B9044091BA045091BB041D
:1009C000C7D19BD2662361F081E08093D30467395D
:1009D00020F086E98093B70408956093B7040895E2
:1009E0001092B704089590E09093C9048093C804CE
:1009F00008958091B70408958091D3040895CF920B
:100A0000DF92EF92FF926B017C01E1E8F0E08081E0
:100A10008460808380818D7F808380818E7F8083CE
:100A2000609112027091130280911402909115024C
:100A300090D2A701960143D35BD270938700609355
:100A40008600FF90EF90DF90CF900895E1E8F0E00E
:100A5000808180618083808188608083E0E8F0E02D
:100A600080818260808380818E7F808380818068A6
:100A7000808380818F7B8083259A2D986AE077ED33
:100A800083EA9CE3BCCF0895CF92DF92EF92FF926E
:100A900020E030E04EEF52E4C3D121E539E44DE1EE
:100AA0005AE30DD32AEF3DEE4BE65AE351D16B01E9
:100AB0007C01609112027091130280911402909156
:100AC000150247D29B01AC01C701B601F8D210D282
:100AD0007093890060938800FF90EF90DF90CF9033
:100AE000089583E694E0B3D3B1DF60E070E08FEF68
:100AF00092E4CACF0895CF92DF92EF92FF926B01FA
:100B00007C0120E030E04FE753E4D5D2181634F4EE
:100B100060E070E08FE793E4B7DF10C020E030E0E2
:100B2000A901C701B60178D188232CF460E070E0F8
:100B3000CB01AADF03C0C701B601A6DFFF90EF908B
:100B4000DF90CF90089587E794E081D3819A8998C8
:100B5000089584B1876884B9239881E58CBD289A6B
:100B60002F9A08958EBD0DB407FEFDCF089580E045
:100B7000F9DF0DB407FEFDCF8EB5089587E08093B1
:100B8000B10081E08093700008958EE894E05FD317
:100B9000F5DF789408958CE08093B8008FEF809310
:100BA000BB0084E08093BC000895DC01ECEBF0E036
:100BB000908190FDFDCF6093CE048C918093CF0403
:100BC00080FD0CC0623050F0FD013196A0EDB4E024
:100BD00081E091919D938F5F6813FBCF1092CD04BC
:100BE00088EF8093160285EA8093BC0008951F92D7
:100BF0000F920FB60F9211240BB60F922F933F93C3
:100C00008F939F93AF93BF93EF93FF93E091B900BE
:100C10008E2F90E0FC013897E135F10508F057C0C0
:100C20008827EE58FF4F8F4FADC21092CC04E09151
:100C3000CC048091CE04E81770F481E08E0F80938D
:100C4000CC04F0E0E153FB4F80818093BB0085E84A
:100C50008093BC0043C08091CD0481608093CD041B
:100C600084E98093BC003AC0E091CC0481E08E0F0F
:100C70008093CC048091BB00F0E0E153FB4F808374
:100C80002091CC0430E08091CE0490E001972817A9
:100C9000390724F485EC8093BC0020C085E880935C
:100CA000BC001CC08091BB00E091CC04F0E0E1539B
:100CB000FB4F80838091CD0481608093CD0484E9D3
:100CC0008093BC000BC085EA8093BC0007C0809174
:100CD000B9008093160284E08093BC00FF91EF91ED
:100CE000BF91AF919F918F913F912F910F900BBE2C
:100CF0000F900FBE0F901F901895E0ECF0E08081F0
:100D00008823ECF78091C60008951092C5001092D8
:100D1000C40088E18093C1008EE08093C2006DE73B
:100D200076E08EE996E036D284EA94E090C20895A7
:100D30008091C00085FB882780F90895CF93C82F44
:100D4000F7DF8823E9F3C093C600CF910895505888
:100D5000BB27AA270ED075C166D130F06BD120F029
:100D600031F49F3F11F41EF45BC10EF4E095E7FBF4
:100D700051C1E92F77D180F3BA176207730784074F
:100D8000950718F071F49EF58FC10EF4E0950B2EC7
:100D9000BA2FA02D0B01B90190010C01CA01A001CD
:100DA0001124FF27591B99F0593F50F4503E68F128
:100DB0001A16F040A22F232F342F4427585FF3CF69
:100DC000469537952795A795F0405395C9F77EF43A
:100DD0001F16BA0B620B730B840BBAF09150A1F083
:100DE000FF0FBB1F661F771F881FC2F70EC0BA0F09
:100DF000621F731F841F48F4879577956795B79591
:100E0000F7959E3F08F0B3CF9395880F08F0992788
:100E1000EE0F979587950895D9D008F481E008954D
:100E20000CD00FC107D140F0FED030F021F45F3F6D
:100E300019F0F0C0511139C1F3C014D198F39923BE
:100E4000C9F35523B1F3951B550BBB27AA2762178E
:100E50007307840738F09F5F5F4F220F331F441FD3
:100E6000AA1FA9F333D00E2E3AF0E0E830D091500B
:100E70005040E695001CCAF729D0FE2F27D0660FF8
:100E8000771F881FBB1F261737074807AB07B0E837
:100E900009F0BB0B802DBF01FF2793585F4F2AF04D
:100EA0009E3F510568F0B6C000C15F3FECF3983E2D
:100EB000DCF3869577956795B795F7959F5FC9F7AA
:100EC000880F911D9695879597F90895E1E0660F33
:100ED000771F881FBB1F621773078407BA0720F0AC
:100EE000621B730B840BBA0BEE1F88F7E095089515
:100EF00004D06894B111D9C00895BCD088F09F5730
:100F000090F0B92F9927B751A0F0D1F0660F771F55
:100F1000881F991F1AF0BA95C9F712C0B13081F035
:100F2000C3D0B1E00895C0C0672F782F8827B85F7D
:100F300039F0B93FCCF3869577956795B395D9F796
:100F40003EF490958095709561957F4F8F4F9F4FA0
:100F50000895E89409C097FB3EF4909580957095AC
:100F600061957F4F8F4F9F4F9923A9F0F92F96E9F5
:100F7000BB279395F695879577956795B795F1116A
:100F8000F8CFFAF4BB0F11F460FF1BC06F5F7F4F07
:100F90008F4F9F4F16C0882311F096E911C0772319
:100FA00021F09EE8872F762F05C0662371F096E822
:100FB000862F70E060E02AF09A95660F771F881FF1
:100FC000DAF7880F9695879597F90895990F000895
:100FD000550FAA0BE0E8FEEF16161706E807F9070B
:100FE000C0F012161306E407F50798F0621B730BA6
:100FF000840B950B39F40A2661F0232B242B252B27
:1010000021F408950A2609F4A140A6958FEF811DC9
:10101000811D089597F99F6780E870E060E008956A
:101020009FEF80EC089500240A9416161706180600
:101030000906089500240A941216130614060506DC
:101040000895092E0394000C11F4882352F0BB0F6D
:1010500040F4BF2B11F460FF04C06F5F7F4F8F4FD0
:101060009F4F089557FD9058440F551F59F05F3F0B
:1010700071F04795880F97FB991F61F09F3F79F0BA
:1010800087950895121613061406551FF2CF46953C
:10109000F1DF08C0161617061806991FF1CF8695BE
:1010A0007105610508940895E894BB2766277727A2
:1010B000CB0197F908958ADF08F48FEF08950BD0DC
:1010C000C0CFB1DF28F0B6DF18F0952309F0A2CF2A
:1010D000A7CF1124EACFC6DFA0F3959FD1F3950FD8
:1010E00050E0551F629FF001729FBB27F00DB11DAC
:1010F000639FAA27F00DB11DAA1F649F6627B00D3C
:10110000A11D661F829F2227B00DA11D621F739F24
:10111000B00DA11D621F839FA00D611D221F749F32
:101120003327A00D611D231F849F600D211D822F79
:10113000762F6A2F11249F5750408AF0E1F08823C0
:101140004AF0EE0FFF1FBB1F661F771F881F9150CD
:101150005040A9F79E3F510570F05CCFA6CF5F3F8E
:10116000ECF3983EDCF3869577956795B795F79500
:10117000E7959F5FC1F7FE2B880F911D9695879588
:1011800097F90895EE0FFF1F881F8BBF0790F69108
:10119000E02D19940F931F93CF93DF93009731F4B1
:1011A0006115710519F480E090E039C08B01EC0104
:1011B0006EE070E081E090E077D2FC01892B99F33A
:1011C00080E883830115110571F01387028781E898
:1011D00083838091D4049091D504892B21F4F093DA
:1011E000D504E093D4042097C9F0D187C0878381C8
:1011F000826083838091D6049091D704892B71F407
:10120000F093D704E093D6048091D8049091D90448
:10121000892B21F4F093D904E093D804CF01DF9116
:10122000CF911F910F910895CF93DF93CDB7DEB784
:10123000AE014A5F5F4FFA0161917191AF018091F8
:10124000D6049091D70433D0DF91CF9108950F93B6
:101250001F93CF93DF93E091D604F091D7042381BD
:1012600021FF1BC08C01D0E0C0E0F80181918F010B
:101270006091D6047091D704DB011896ED91FC9132
:101280001997882331F01995892B79F3DFEFCFEF88
:10129000ECCF8AE01995892B19F08FEF9FEF02C0F0
:1012A0008D2F9C2FDF91CF911F910F9108952F9239
:1012B0003F924F925F926F927F928F929F92AF92E6
:1012C000BF92CF92DF92EF92FF920F931F93CF9333
:1012D000DF93CDB7DEB72B970FB6F894DEBF0FBE06
:1012E000CDBF6C017B018A01FC01178216828381CC
:1012F00081FFBFC1CE0101963C01F6019381F70148
:1013000093FD859193FF81917F01882309F4ADC1FD
:10131000853239F493FD859193FF81917F01853268
:1013200021F4B60190E018D3E8CF912C212C312C78
:10133000FFE1F315D8F08B3279F038F4803279F090
:101340008332A1F4232D20611DC08D3261F08033E2
:1013500069F4232D216016C0832D8260382EE32D81
:10136000E4603E2E2AC0F32DF8601DC037FC2DC06E
:1013700020ED280F2A3040F08E32B9F436FC75C1CA
:10138000232D2064322E19C036FE06C08AE0989EB6
:10139000200D1124922E11C0EAE02E9E200D112462
:1013A000222EF32DF0623F2E08C08C3621F4832DBF
:1013B0008068382E02C0883641F4F70193FD85918C
:1013C00093FF81917F018111B3CF982F9F7D955419
:1013D000933028F40C5F1F4F9FE399830DC0833631
:1013E00031F0833771F0833509F055C020C0F80122
:1013F000808189830E5F1F4F88248394912C530131
:1014000012C02801F2E04F0E511CF801A080B180FB
:1014100036FE03C0692D70E002C06FEF7FEFC5019B
:1014200090D24C018201F32DFF773F2E15C0280189
:1014300022E0420E511CF801A080B18036FE03C0AC
:10144000692D70E002C06FEF7FEFC50168D24C01DB
:10145000F32DF0683F2E820133FC19C0822D90E0FD
:1014600088169906A0F4B60180E290E075D22A941D
:10147000F5CFF50137FC859137FE81915F01B6010B
:1014800090E06AD221102A9421E0821A91088114F6
:10149000910479F7E1C0843611F0893639F5F80105
:1014A00037FE07C060817181828193810C5F1F4F7D
:1014B00008C060817181072E000C880B990B0E5FAC
:1014C0001F4FF32DFF763F2E97FF09C09095809513
:1014D000709561957F4F8F4F9F4FF0683F2E2AE0A8
:1014E00030E0A30175D2882E861844C0853731F4C8
:1014F000232D2F7EB22E2AE030E025C0932D997F38
:10150000B92E8F36C1F018F4883579F0AEC0803727
:1015100019F0883721F0A9C0E92FE061BE2EB4FE92
:101520000DC0FB2DF460BF2E09C034FE0AC0292F68
:101530002660B22E06C028E030E005C020E130E091
:1015400002C020E132E0F801B7FE07C0608171817E
:10155000828193810C5F1F4F06C06081718180E0A2
:1015600090E00E5F1F4FA30133D2882E8618FB2D0B
:10157000FF773F2E36FE0DC0232D2E7FA22E89141D
:1015800058F434FE0BC032FC09C0832D8E7EA82E89
:1015900005C0B82CA32C03C0B82C01C0B92CA4FEE4
:1015A0000FC0FE01E80DF11D8081803321F49A2DDA
:1015B000997EA92E09C0A2FE06C0B394B39404C0BC
:1015C0008A2D867809F0B394A3FC10C0A0FE06C053
:1015D000B21480F4280C922C9B180DC0B21458F44D
:1015E000B60180E290E0B8D1B394F8CFB21418F409
:1015F0002B1802C0982C212CA4FE0FC0B60180E34A
:1016000090E0AAD1A2FE16C0A1FC03C088E790E03A
:1016100002C088E590E0B6010CC08A2D867851F0B2
:10162000A1FE02C08BE201C080E2A7FC8DE2B60100
:1016300090E092D1891430F4B60180E390E08CD12F
:101640009A94F8CF8A94F301E80DF11D8081B601D8
:1016500090E082D18110F6CF222009F44ECEB6015F
:1016600080E290E079D12A94F7CFF60186819781C4
:1016700002C08FEF9FEF2B960FB6F894DEBF0FBE20
:10168000CDBFDF91CF911F910F91FF90EF90DF9031
:10169000CF90BF90AF909F908F907F906F905F9012
:1016A0004F903F902F9008950F931F93CF93DF9308
:1016B000869F8001879F100D969F100D1124C801F1
:1016C0000DD0EC01009721F0A80160E070E032D16C
:1016D000CE01DF91CF911F910F9108950F931F932A
:1016E000CF93DF938230910510F482E090E0E09197
:1016F000DC04F091DD0420E030E0A0E0B0E03097C1
:1017000019F1408151810281138148175907C8F0AE
:101710008417950769F4109731F012960C9312977D
:1017200013961C9327C00093DC041093DD0422C0A1
:101730002115310519F04217530718F49A01BD011C
:10174000EF01DF01F801DBCF21153105F9F0281B8E
:10175000390B2430310580F48A819B816115710534
:1017600021F0FB019383828304C09093DD04809376
:10177000DC04FE01329644C0FE01E20FF31F8193A8
:10178000919322503109398328833AC02091DA0499
:101790003091DB04232B41F42091020230910302AB
:1017A0003093DB042093DA0420910002309101028F
:1017B0002115310541F42DB73EB7409104025091F7
:1017C0000502241B350BE091DA04F091DB04E217EB
:1017D000F307A0F42E1B3F0B2817390778F0AC0154
:1017E0004E5F5F4F2417350748F04E0F5F1F509331
:1017F000DB044093DA048193919302C0E0E0F0E0CF
:10180000CF01DF91CF911F910F910895CF93DF9377
:10181000009709F481C0FC01329713821282A091D3
:10182000DC04B091DD04109781F420813181820FB6
:10183000931F2091DA043091DB042817390751F502
:10184000F093DB04E093DA0467C0ED0120E030E0C0
:10185000CE17DF0740F44A815B819E014115510597
:10186000F1F0EA01F5CFD383C28340815181840F27
:10187000951FC817D90759F488819981840F951F3E
:101880000296918380838A819B8193838283211531
:10189000310529F4F093DD04E093DC043DC0E90157
:1018A000FB83EA8349915991C40FD51FEC17FD07BB
:1018B00061F480819181840F951F0296E9019983DB
:1018C0008883828193819B838A83E0E0F0E0129693
:1018D0008D919C911397009719F0FD01DC01F7CFD2
:1018E0008D919C9111979D012E5F3F4F820F931F09
:1018F0002091DA043091DB042817390769F4309716
:1019000029F41092DD041092DC0402C013821282CA
:10191000B093DB04A093DA04DF91CF910895FC012A
:101920000590615070400110D8F7809590958E0F0A
:101930009F1F0895DC0101C06D9341505040E0F7B6
:101940000895FC016150704001900110D8F7809516
:1019500090958E0F9F1F08950F931F93CF93DF9342
:10196000FB01238121FD03C08FEF9FEF2CC022FFDD
:1019700016C046815781248135814217530744F4AC
:10198000A081B1819D012F5F3F4F318320838C93D4
:10199000268137812F5F3F4F3783268314C08B0109
:1019A000EC01FB010084F185E02D1995892BE1F60E
:1019B000D80116968D919C911797019617969C9336
:1019C0008E931697CE01DF91CF911F910F910895BD
:1019D000FA01AA27283051F1203181F1E8946F9360
:1019E0006E7F6E5F7F4F8F4F9F4FAF4FB1E03ED006
:1019F000B4E03CD0670F781F891F9A1FA11D680FA4
:101A0000791F8A1F911DA11D6A0F711D811D911DD6
:101A1000A11D20D009F468943F912AE0269F11244B
:101A20003019305D3193DEF6CF010895462F4770AF
:101A3000405D4193B3E00FD0C9F7F6CF462F4F700A
:101A4000405D4A3318F0495D31FD4052419302D068
:101A5000A9F7EACFB4E0A69597958795779567950E
:101A6000BA95C9F700976105710508959B01AC010E
:101A70000A2E06945795479537952795BA95C9F735
:101A8000620F731F841F951FA01D0895F894FFCF48
:101A90000000DE0420009A99993F00006040000099
:101AA000004024F40000F8363738393A3B3C3D66B4
:101AB0006768696A6B6C6D0A2A2A2A2A46696E6908
:101AC000736865642073657474696E67207570202F
:101AD00041746D65676132353630212A2A2A2A0A17
:101AE000004144433A2025640A00524950212042D3
:101AF000616C6C20646574656374656421003C41AD
:101B0000444320496E697469616C697A65643E007A
:101B10003C43414E2069732072656164793E003C0C
:101B2000536F6C656E6F69642049525148003C4D9B
:101B30006F746F7220495251483E003C43414E2021
:101B4000495251483E0052656365697665642025B7
:101B5000642025642025640A003C4552524F523EC1
:101B6000204E6F206D657373616765207761732008
:101B70007265636569766564203C534F55524345F1
:101B80003E2043414E204952512048616E646C65AD
:101B9000720043414E535441543A2025640A003C9C
:101BA0004D435032353135206973204E4F542069F2
:101BB0006E20636F6E66696775726174696F6E20FF
:101BC0006D6F6465206166746572207265736574FB
:101BD000213E003C4D435032353135206973204E53
:101BE0004F5420696E207468652073656C6563745A
:101BF0006564206D6F6465213E003C4D4350323575
:101C0000313520697320696E204E4F524D414C2072
:101C10006D6F64652E3E003C4D43503235313520AA
:101C2000697320696E20534C454550206D6F646583
:101C30002E3E003C4D4350323531352069732069CA
:101C40006E204C4F4F504241434B206D6F64652EC8
:101C50003E003C4D43503235313520697320696E6A
:101C6000204C495354454E204F4E4C59206D6F64C3
:101C7000652E3E004D435032353135206973206961
:101C80006E20434F4E464947206D6F64652E004DD0
:101C900043503235313520697320696E20504F57DB
:101CA0004552205550206D6F64652E004D435032D3
:101CB00035313520697320696E204E4F4E452044E2
:101CC0004546494E4544206D6F64652E003C4D6F7E
:101CD000746F7220496E697469616C697A65643EDB
:101CE000003C50494420496E697469616C697A65A9
:101CF000643E003C536572766F20496E6974696179
:101D00006C697A65643E003C536F6C656E6F696404
:101D100020496E697469616C697A65643E003C545F
:101D2000696D65727320496E697469616C697A6561
:101D300064213E003C555341525420697320726522
:061D40006164793E000021
:00000001FF
